{
	"hardhat/contracts/VersatilToken.sol": {
		"VersatilToken": {
			"abi": [
				{
					"inputs": [
						{
							"internalType": "address",
							"name": "_token0",
							"type": "address"
						},
						{
							"internalType": "address",
							"name": "_token1",
							"type": "address"
						},
						{
							"internalType": "address",
							"name": "_router",
							"type": "address"
						},
						{
							"internalType": "address",
							"name": "_pool",
							"type": "address"
						},
						{
							"internalType": "string",
							"name": "name_",
							"type": "string"
						},
						{
							"internalType": "string",
							"name": "symbol_",
							"type": "string"
						}
					],
					"stateMutability": "nonpayable",
					"type": "constructor"
				},
				{
					"anonymous": false,
					"inputs": [
						{
							"indexed": true,
							"internalType": "address",
							"name": "owner",
							"type": "address"
						},
						{
							"indexed": true,
							"internalType": "address",
							"name": "spender",
							"type": "address"
						},
						{
							"indexed": false,
							"internalType": "uint256",
							"name": "value",
							"type": "uint256"
						}
					],
					"name": "Approval",
					"type": "event"
				},
				{
					"anonymous": false,
					"inputs": [
						{
							"indexed": true,
							"internalType": "address",
							"name": "from",
							"type": "address"
						},
						{
							"indexed": true,
							"internalType": "address",
							"name": "to",
							"type": "address"
						},
						{
							"indexed": false,
							"internalType": "uint256",
							"name": "value",
							"type": "uint256"
						}
					],
					"name": "Transfer",
					"type": "event"
				},
				{
					"inputs": [],
					"name": "FEE",
					"outputs": [
						{
							"internalType": "uint24",
							"name": "",
							"type": "uint24"
						}
					],
					"stateMutability": "view",
					"type": "function"
				},
				{
					"inputs": [],
					"name": "TOKEN0",
					"outputs": [
						{
							"internalType": "address",
							"name": "",
							"type": "address"
						}
					],
					"stateMutability": "view",
					"type": "function"
				},
				{
					"inputs": [],
					"name": "TOKEN1",
					"outputs": [
						{
							"internalType": "address",
							"name": "",
							"type": "address"
						}
					],
					"stateMutability": "view",
					"type": "function"
				},
				{
					"inputs": [],
					"name": "UNISWAP_POOL",
					"outputs": [
						{
							"internalType": "address",
							"name": "",
							"type": "address"
						}
					],
					"stateMutability": "view",
					"type": "function"
				},
				{
					"inputs": [],
					"name": "UNISWAP_ROUTER",
					"outputs": [
						{
							"internalType": "address",
							"name": "",
							"type": "address"
						}
					],
					"stateMutability": "view",
					"type": "function"
				},
				{
					"inputs": [
						{
							"internalType": "address",
							"name": "owner",
							"type": "address"
						},
						{
							"internalType": "address",
							"name": "spender",
							"type": "address"
						}
					],
					"name": "allowance",
					"outputs": [
						{
							"internalType": "uint256",
							"name": "",
							"type": "uint256"
						}
					],
					"stateMutability": "view",
					"type": "function"
				},
				{
					"inputs": [
						{
							"internalType": "address",
							"name": "spender",
							"type": "address"
						},
						{
							"internalType": "uint256",
							"name": "amount",
							"type": "uint256"
						}
					],
					"name": "approve",
					"outputs": [
						{
							"internalType": "bool",
							"name": "",
							"type": "bool"
						}
					],
					"stateMutability": "nonpayable",
					"type": "function"
				},
				{
					"inputs": [
						{
							"internalType": "address",
							"name": "account",
							"type": "address"
						}
					],
					"name": "balanceOf",
					"outputs": [
						{
							"internalType": "uint256",
							"name": "",
							"type": "uint256"
						}
					],
					"stateMutability": "view",
					"type": "function"
				},
				{
					"inputs": [],
					"name": "decimals",
					"outputs": [
						{
							"internalType": "uint8",
							"name": "",
							"type": "uint8"
						}
					],
					"stateMutability": "view",
					"type": "function"
				},
				{
					"inputs": [],
					"name": "name",
					"outputs": [
						{
							"internalType": "string",
							"name": "",
							"type": "string"
						}
					],
					"stateMutability": "view",
					"type": "function"
				},
				{
					"inputs": [],
					"name": "symbol",
					"outputs": [
						{
							"internalType": "string",
							"name": "",
							"type": "string"
						}
					],
					"stateMutability": "view",
					"type": "function"
				},
				{
					"inputs": [],
					"name": "totalSupply",
					"outputs": [
						{
							"internalType": "uint256",
							"name": "",
							"type": "uint256"
						}
					],
					"stateMutability": "pure",
					"type": "function"
				},
				{
					"inputs": [
						{
							"internalType": "address",
							"name": "recipient",
							"type": "address"
						},
						{
							"internalType": "uint256",
							"name": "amount",
							"type": "uint256"
						}
					],
					"name": "transfer",
					"outputs": [
						{
							"internalType": "bool",
							"name": "",
							"type": "bool"
						}
					],
					"stateMutability": "nonpayable",
					"type": "function"
				},
				{
					"inputs": [
						{
							"internalType": "address",
							"name": "sender",
							"type": "address"
						},
						{
							"internalType": "address",
							"name": "recipient",
							"type": "address"
						},
						{
							"internalType": "uint256",
							"name": "amount",
							"type": "uint256"
						}
					],
					"name": "transferFrom",
					"outputs": [
						{
							"internalType": "bool",
							"name": "",
							"type": "bool"
						}
					],
					"stateMutability": "nonpayable",
					"type": "function"
				}
			],
			"devdoc": {
				"events": {
					"Approval(address,address,uint256)": {
						"details": "Emitted when the allowance of a `spender` for an `owner` is set by a call to {approve}. `value` is the new allowance."
					},
					"Transfer(address,address,uint256)": {
						"details": "Emitted when `value` tokens are moved from one account (`from`) to another (`to`). Note that `value` may be zero."
					}
				},
				"kind": "dev",
				"methods": {
					"allowance(address,address)": {
						"details": "Returns the remaining number of tokens that `spender` will be allowed to spend on behalf of `owner` through {transferFrom}. This is zero by default. This value changes when {approve} or {transferFrom} are called."
					},
					"balanceOf(address)": {
						"details": "Returns the value of tokens owned by `account`."
					},
					"decimals()": {
						"details": "Returns the decimals places of the token."
					},
					"name()": {
						"details": "Returns the name of the token."
					},
					"symbol()": {
						"details": "Returns the symbol of the token."
					},
					"totalSupply()": {
						"details": "Returns the value of tokens in existence."
					}
				},
				"version": 1
			},
			"evm": {
				"assembly": "    /* \"hardhat/contracts/VersatilToken.sol\":958:5481  contract VersatilToken is Context, IERC20, IERC20Metadata {... */\n  mstore(0x40, 0x0100)\n    /* \"hardhat/contracts/VersatilToken.sol\":1102:1104  18 */\n  0x12\n    /* \"hardhat/contracts/VersatilToken.sol\":1076:1104  uint8 private _decimals = 18 */\n  0x02\n  exp(0x0100, 0x00)\n  dup2\n  sload\n  dup2\n  0xff\n  mul\n  not\n  and\n  swap1\n  dup4\n  0xff\n  and\n  mul\n  or\n  swap1\n  sstore\n  pop\n    /* \"hardhat/contracts/VersatilToken.sol\":1396:1745  constructor(... */\n  callvalue\n  dup1\n  iszero\n  tag_1\n  jumpi\n  0x00\n  dup1\n  revert\ntag_1:\n  pop\n  mload(0x40)\n  sub(codesize, bytecodeSize)\n  dup1\n  bytecodeSize\n  dup4\n  codecopy\n  dup2\n  dup2\n  add\n  0x40\n  mstore\n  dup2\n  add\n  swap1\n  tag_2\n  swap2\n  swap1\n  tag_3\n  jump\t// in\ntag_2:\n    /* \"hardhat/contracts/VersatilToken.sol\":1591:1598  _token0 */\n  dup6\n    /* \"hardhat/contracts/VersatilToken.sol\":1582:1598  TOKEN0 = _token0 */\n  0xffffffffffffffffffffffffffffffffffffffff\n  and\n  0x80\n  dup2\n  0xffffffffffffffffffffffffffffffffffffffff\n  and\n  dup2\n  mstore\n  pop\n  pop\n    /* \"hardhat/contracts/VersatilToken.sol\":1617:1624  _token1 */\n  dup5\n    /* \"hardhat/contracts/VersatilToken.sol\":1608:1624  TOKEN1 = _token1 */\n  0xffffffffffffffffffffffffffffffffffffffff\n  and\n  0xa0\n  dup2\n  0xffffffffffffffffffffffffffffffffffffffff\n  and\n  dup2\n  mstore\n  pop\n  pop\n    /* \"hardhat/contracts/VersatilToken.sol\":1651:1658  _router */\n  dup4\n    /* \"hardhat/contracts/VersatilToken.sol\":1634:1658  UNISWAP_ROUTER = _router */\n  0xffffffffffffffffffffffffffffffffffffffff\n  and\n  0xc0\n  dup2\n  0xffffffffffffffffffffffffffffffffffffffff\n  and\n  dup2\n  mstore\n  pop\n  pop\n    /* \"hardhat/contracts/VersatilToken.sol\":1683:1688  _pool */\n  dup3\n    /* \"hardhat/contracts/VersatilToken.sol\":1668:1688  UNISWAP_POOL = _pool */\n  0xffffffffffffffffffffffffffffffffffffffff\n  and\n  0xe0\n  dup2\n  0xffffffffffffffffffffffffffffffffffffffff\n  and\n  dup2\n  mstore\n  pop\n  pop\n    /* \"hardhat/contracts/VersatilToken.sol\":1706:1711  name_ */\n  dup2\n    /* \"hardhat/contracts/VersatilToken.sol\":1698:1703  _name */\n  0x00\n    /* \"hardhat/contracts/VersatilToken.sol\":1698:1711  _name = name_ */\n  swap1\n  dup2\n  tag_6\n  swap2\n  swap1\n  tag_7\n  jump\t// in\ntag_6:\n  pop\n    /* \"hardhat/contracts/VersatilToken.sol\":1731:1738  symbol_ */\n  dup1\n    /* \"hardhat/contracts/VersatilToken.sol\":1721:1728  _symbol */\n  0x01\n    /* \"hardhat/contracts/VersatilToken.sol\":1721:1738  _symbol = symbol_ */\n  swap1\n  dup2\n  tag_8\n  swap2\n  swap1\n  tag_7\n  jump\t// in\ntag_8:\n  pop\n    /* \"hardhat/contracts/VersatilToken.sol\":1396:1745  constructor(... */\n  pop\n  pop\n  pop\n  pop\n  pop\n  pop\n    /* \"hardhat/contracts/VersatilToken.sol\":958:5481  contract VersatilToken is Context, IERC20, IERC20Metadata {... */\n  jump(tag_9)\n    /* \"#utility.yul\":7:82   */\ntag_10:\n    /* \"#utility.yul\":40:46   */\n  0x00\n    /* \"#utility.yul\":73:75   */\n  0x40\n    /* \"#utility.yul\":67:76   */\n  mload\n    /* \"#utility.yul\":57:76   */\n  swap1\n  pop\n    /* \"#utility.yul\":7:82   */\n  swap1\n  jump\t// out\n    /* \"#utility.yul\":88:205   */\ntag_11:\n    /* \"#utility.yul\":197:198   */\n  0x00\n    /* \"#utility.yul\":194:195   */\n  dup1\n    /* \"#utility.yul\":187:199   */\n  revert\n    /* \"#utility.yul\":211:328   */\ntag_12:\n    /* \"#utility.yul\":320:321   */\n  0x00\n    /* \"#utility.yul\":317:318   */\n  dup1\n    /* \"#utility.yul\":310:322   */\n  revert\n    /* \"#utility.yul\":334:460   */\ntag_13:\n    /* \"#utility.yul\":371:378   */\n  0x00\n    /* \"#utility.yul\":411:453   */\n  0xffffffffffffffffffffffffffffffffffffffff\n    /* \"#utility.yul\":404:409   */\n  dup3\n    /* \"#utility.yul\":400:454   */\n  and\n    /* \"#utility.yul\":389:454   */\n  swap1\n  pop\n    /* \"#utility.yul\":334:460   */\n  swap2\n  swap1\n  pop\n  jump\t// out\n    /* \"#utility.yul\":466:562   */\ntag_14:\n    /* \"#utility.yul\":503:510   */\n  0x00\n    /* \"#utility.yul\":532:556   */\n  tag_52\n    /* \"#utility.yul\":550:555   */\n  dup3\n    /* \"#utility.yul\":532:556   */\n  tag_13\n  jump\t// in\ntag_52:\n    /* \"#utility.yul\":521:556   */\n  swap1\n  pop\n    /* \"#utility.yul\":466:562   */\n  swap2\n  swap1\n  pop\n  jump\t// out\n    /* \"#utility.yul\":568:690   */\ntag_15:\n    /* \"#utility.yul\":641:665   */\n  tag_54\n    /* \"#utility.yul\":659:664   */\n  dup2\n    /* \"#utility.yul\":641:665   */\n  tag_14\n  jump\t// in\ntag_54:\n    /* \"#utility.yul\":634:639   */\n  dup2\n    /* \"#utility.yul\":631:666   */\n  eq\n    /* \"#utility.yul\":621:684   */\n  tag_55\n  jumpi\n    /* \"#utility.yul\":680:681   */\n  0x00\n    /* \"#utility.yul\":677:678   */\n  dup1\n    /* \"#utility.yul\":670:682   */\n  revert\n    /* \"#utility.yul\":621:684   */\ntag_55:\n    /* \"#utility.yul\":568:690   */\n  pop\n  jump\t// out\n    /* \"#utility.yul\":696:839   */\ntag_16:\n    /* \"#utility.yul\":753:758   */\n  0x00\n    /* \"#utility.yul\":784:790   */\n  dup2\n    /* \"#utility.yul\":778:791   */\n  mload\n    /* \"#utility.yul\":769:791   */\n  swap1\n  pop\n    /* \"#utility.yul\":800:833   */\n  tag_57\n    /* \"#utility.yul\":827:832   */\n  dup2\n    /* \"#utility.yul\":800:833   */\n  tag_15\n  jump\t// in\ntag_57:\n    /* \"#utility.yul\":696:839   */\n  swap3\n  swap2\n  pop\n  pop\n  jump\t// out\n    /* \"#utility.yul\":845:962   */\ntag_17:\n    /* \"#utility.yul\":954:955   */\n  0x00\n    /* \"#utility.yul\":951:952   */\n  dup1\n    /* \"#utility.yul\":944:956   */\n  revert\n    /* \"#utility.yul\":968:1085   */\ntag_18:\n    /* \"#utility.yul\":1077:1078   */\n  0x00\n    /* \"#utility.yul\":1074:1075   */\n  dup1\n    /* \"#utility.yul\":1067:1079   */\n  revert\n    /* \"#utility.yul\":1091:1193   */\ntag_19:\n    /* \"#utility.yul\":1132:1138   */\n  0x00\n    /* \"#utility.yul\":1183:1185   */\n  0x1f\n    /* \"#utility.yul\":1179:1186   */\n  not\n    /* \"#utility.yul\":1174:1176   */\n  0x1f\n    /* \"#utility.yul\":1167:1172   */\n  dup4\n    /* \"#utility.yul\":1163:1177   */\n  add\n    /* \"#utility.yul\":1159:1187   */\n  and\n    /* \"#utility.yul\":1149:1187   */\n  swap1\n  pop\n    /* \"#utility.yul\":1091:1193   */\n  swap2\n  swap1\n  pop\n  jump\t// out\n    /* \"#utility.yul\":1199:1379   */\ntag_20:\n    /* \"#utility.yul\":1247:1324   */\n  0x4e487b7100000000000000000000000000000000000000000000000000000000\n    /* \"#utility.yul\":1244:1245   */\n  0x00\n    /* \"#utility.yul\":1237:1325   */\n  mstore\n    /* \"#utility.yul\":1344:1348   */\n  0x41\n    /* \"#utility.yul\":1341:1342   */\n  0x04\n    /* \"#utility.yul\":1334:1349   */\n  mstore\n    /* \"#utility.yul\":1368:1372   */\n  0x24\n    /* \"#utility.yul\":1365:1366   */\n  0x00\n    /* \"#utility.yul\":1358:1373   */\n  revert\n    /* \"#utility.yul\":1385:1666   */\ntag_21:\n    /* \"#utility.yul\":1468:1495   */\n  tag_63\n    /* \"#utility.yul\":1490:1494   */\n  dup3\n    /* \"#utility.yul\":1468:1495   */\n  tag_19\n  jump\t// in\ntag_63:\n    /* \"#utility.yul\":1460:1466   */\n  dup2\n    /* \"#utility.yul\":1456:1496   */\n  add\n    /* \"#utility.yul\":1598:1604   */\n  dup2\n    /* \"#utility.yul\":1586:1596   */\n  dup2\n    /* \"#utility.yul\":1583:1605   */\n  lt\n    /* \"#utility.yul\":1562:1580   */\n  0xffffffffffffffff\n    /* \"#utility.yul\":1550:1560   */\n  dup3\n    /* \"#utility.yul\":1547:1581   */\n  gt\n    /* \"#utility.yul\":1544:1606   */\n  or\n    /* \"#utility.yul\":1541:1629   */\n  iszero\n  tag_64\n  jumpi\n    /* \"#utility.yul\":1609:1627   */\n  tag_65\n  tag_20\n  jump\t// in\ntag_65:\n    /* \"#utility.yul\":1541:1629   */\ntag_64:\n    /* \"#utility.yul\":1649:1659   */\n  dup1\n    /* \"#utility.yul\":1645:1647   */\n  0x40\n    /* \"#utility.yul\":1638:1660   */\n  mstore\n    /* \"#utility.yul\":1428:1666   */\n  pop\n    /* \"#utility.yul\":1385:1666   */\n  pop\n  pop\n  jump\t// out\n    /* \"#utility.yul\":1672:1801   */\ntag_22:\n    /* \"#utility.yul\":1706:1712   */\n  0x00\n    /* \"#utility.yul\":1733:1753   */\n  tag_67\n  tag_10\n  jump\t// in\ntag_67:\n    /* \"#utility.yul\":1723:1753   */\n  swap1\n  pop\n    /* \"#utility.yul\":1762:1795   */\n  tag_68\n    /* \"#utility.yul\":1790:1794   */\n  dup3\n    /* \"#utility.yul\":1782:1788   */\n  dup3\n    /* \"#utility.yul\":1762:1795   */\n  tag_21\n  jump\t// in\ntag_68:\n    /* \"#utility.yul\":1672:1801   */\n  swap2\n  swap1\n  pop\n  jump\t// out\n    /* \"#utility.yul\":1807:2115   */\ntag_23:\n    /* \"#utility.yul\":1869:1873   */\n  0x00\n    /* \"#utility.yul\":1959:1977   */\n  0xffffffffffffffff\n    /* \"#utility.yul\":1951:1957   */\n  dup3\n    /* \"#utility.yul\":1948:1978   */\n  gt\n    /* \"#utility.yul\":1945:2001   */\n  iszero\n  tag_70\n  jumpi\n    /* \"#utility.yul\":1981:1999   */\n  tag_71\n  tag_20\n  jump\t// in\ntag_71:\n    /* \"#utility.yul\":1945:2001   */\ntag_70:\n    /* \"#utility.yul\":2019:2048   */\n  tag_72\n    /* \"#utility.yul\":2041:2047   */\n  dup3\n    /* \"#utility.yul\":2019:2048   */\n  tag_19\n  jump\t// in\ntag_72:\n    /* \"#utility.yul\":2011:2048   */\n  swap1\n  pop\n    /* \"#utility.yul\":2103:2107   */\n  0x20\n    /* \"#utility.yul\":2097:2101   */\n  dup2\n    /* \"#utility.yul\":2093:2108   */\n  add\n    /* \"#utility.yul\":2085:2108   */\n  swap1\n  pop\n    /* \"#utility.yul\":1807:2115   */\n  swap2\n  swap1\n  pop\n  jump\t// out\n    /* \"#utility.yul\":2121:2367   */\ntag_24:\n    /* \"#utility.yul\":2202:2203   */\n  0x00\n    /* \"#utility.yul\":2212:2325   */\ntag_74:\n    /* \"#utility.yul\":2226:2232   */\n  dup4\n    /* \"#utility.yul\":2223:2224   */\n  dup2\n    /* \"#utility.yul\":2220:2233   */\n  lt\n    /* \"#utility.yul\":2212:2325   */\n  iszero\n  tag_76\n  jumpi\n    /* \"#utility.yul\":2311:2312   */\n  dup1\n    /* \"#utility.yul\":2306:2309   */\n  dup3\n    /* \"#utility.yul\":2302:2313   */\n  add\n    /* \"#utility.yul\":2296:2314   */\n  mload\n    /* \"#utility.yul\":2292:2293   */\n  dup2\n    /* \"#utility.yul\":2287:2290   */\n  dup5\n    /* \"#utility.yul\":2283:2294   */\n  add\n    /* \"#utility.yul\":2276:2315   */\n  mstore\n    /* \"#utility.yul\":2248:2250   */\n  0x20\n    /* \"#utility.yul\":2245:2246   */\n  dup2\n    /* \"#utility.yul\":2241:2251   */\n  add\n    /* \"#utility.yul\":2236:2251   */\n  swap1\n  pop\n    /* \"#utility.yul\":2212:2325   */\n  jump(tag_74)\ntag_76:\n    /* \"#utility.yul\":2359:2360   */\n  0x00\n    /* \"#utility.yul\":2350:2356   */\n  dup5\n    /* \"#utility.yul\":2345:2348   */\n  dup5\n    /* \"#utility.yul\":2341:2357   */\n  add\n    /* \"#utility.yul\":2334:2361   */\n  mstore\n    /* \"#utility.yul\":2183:2367   */\n  pop\n    /* \"#utility.yul\":2121:2367   */\n  pop\n  pop\n  pop\n  jump\t// out\n    /* \"#utility.yul\":2373:2807   */\ntag_25:\n    /* \"#utility.yul\":2462:2467   */\n  0x00\n    /* \"#utility.yul\":2487:2553   */\n  tag_78\n    /* \"#utility.yul\":2503:2552   */\n  tag_79\n    /* \"#utility.yul\":2545:2551   */\n  dup5\n    /* \"#utility.yul\":2503:2552   */\n  tag_23\n  jump\t// in\ntag_79:\n    /* \"#utility.yul\":2487:2553   */\n  tag_22\n  jump\t// in\ntag_78:\n    /* \"#utility.yul\":2478:2553   */\n  swap1\n  pop\n    /* \"#utility.yul\":2576:2582   */\n  dup3\n    /* \"#utility.yul\":2569:2574   */\n  dup2\n    /* \"#utility.yul\":2562:2583   */\n  mstore\n    /* \"#utility.yul\":2614:2618   */\n  0x20\n    /* \"#utility.yul\":2607:2612   */\n  dup2\n    /* \"#utility.yul\":2603:2619   */\n  add\n    /* \"#utility.yul\":2652:2655   */\n  dup5\n    /* \"#utility.yul\":2643:2649   */\n  dup5\n    /* \"#utility.yul\":2638:2641   */\n  dup5\n    /* \"#utility.yul\":2634:2650   */\n  add\n    /* \"#utility.yul\":2631:2656   */\n  gt\n    /* \"#utility.yul\":2628:2740   */\n  iszero\n  tag_80\n  jumpi\n    /* \"#utility.yul\":2659:2738   */\n  tag_81\n  tag_18\n  jump\t// in\ntag_81:\n    /* \"#utility.yul\":2628:2740   */\ntag_80:\n    /* \"#utility.yul\":2749:2801   */\n  tag_82\n    /* \"#utility.yul\":2794:2800   */\n  dup5\n    /* \"#utility.yul\":2789:2792   */\n  dup3\n    /* \"#utility.yul\":2784:2787   */\n  dup6\n    /* \"#utility.yul\":2749:2801   */\n  tag_24\n  jump\t// in\ntag_82:\n    /* \"#utility.yul\":2468:2807   */\n  pop\n    /* \"#utility.yul\":2373:2807   */\n  swap4\n  swap3\n  pop\n  pop\n  pop\n  jump\t// out\n    /* \"#utility.yul\":2827:3182   */\ntag_26:\n    /* \"#utility.yul\":2894:2899   */\n  0x00\n    /* \"#utility.yul\":2943:2946   */\n  dup3\n    /* \"#utility.yul\":2936:2940   */\n  0x1f\n    /* \"#utility.yul\":2928:2934   */\n  dup4\n    /* \"#utility.yul\":2924:2941   */\n  add\n    /* \"#utility.yul\":2920:2947   */\n  slt\n    /* \"#utility.yul\":2910:3032   */\n  tag_84\n  jumpi\n    /* \"#utility.yul\":2951:3030   */\n  tag_85\n  tag_17\n  jump\t// in\ntag_85:\n    /* \"#utility.yul\":2910:3032   */\ntag_84:\n    /* \"#utility.yul\":3061:3067   */\n  dup2\n    /* \"#utility.yul\":3055:3068   */\n  mload\n    /* \"#utility.yul\":3086:3176   */\n  tag_86\n    /* \"#utility.yul\":3172:3175   */\n  dup5\n    /* \"#utility.yul\":3164:3170   */\n  dup3\n    /* \"#utility.yul\":3157:3161   */\n  0x20\n    /* \"#utility.yul\":3149:3155   */\n  dup7\n    /* \"#utility.yul\":3145:3162   */\n  add\n    /* \"#utility.yul\":3086:3176   */\n  tag_25\n  jump\t// in\ntag_86:\n    /* \"#utility.yul\":3077:3176   */\n  swap2\n  pop\n    /* \"#utility.yul\":2900:3182   */\n  pop\n    /* \"#utility.yul\":2827:3182   */\n  swap3\n  swap2\n  pop\n  pop\n  jump\t// out\n    /* \"#utility.yul\":3188:4668   */\ntag_3:\n    /* \"#utility.yul\":3323:3329   */\n  0x00\n    /* \"#utility.yul\":3331:3337   */\n  dup1\n    /* \"#utility.yul\":3339:3345   */\n  0x00\n    /* \"#utility.yul\":3347:3353   */\n  dup1\n    /* \"#utility.yul\":3355:3361   */\n  0x00\n    /* \"#utility.yul\":3363:3369   */\n  dup1\n    /* \"#utility.yul\":3412:3415   */\n  0xc0\n    /* \"#utility.yul\":3400:3409   */\n  dup8\n    /* \"#utility.yul\":3391:3398   */\n  dup10\n    /* \"#utility.yul\":3387:3410   */\n  sub\n    /* \"#utility.yul\":3383:3416   */\n  slt\n    /* \"#utility.yul\":3380:3500   */\n  iszero\n  tag_88\n  jumpi\n    /* \"#utility.yul\":3419:3498   */\n  tag_89\n  tag_11\n  jump\t// in\ntag_89:\n    /* \"#utility.yul\":3380:3500   */\ntag_88:\n    /* \"#utility.yul\":3539:3540   */\n  0x00\n    /* \"#utility.yul\":3564:3628   */\n  tag_90\n    /* \"#utility.yul\":3620:3627   */\n  dup10\n    /* \"#utility.yul\":3611:3617   */\n  dup3\n    /* \"#utility.yul\":3600:3609   */\n  dup11\n    /* \"#utility.yul\":3596:3618   */\n  add\n    /* \"#utility.yul\":3564:3628   */\n  tag_16\n  jump\t// in\ntag_90:\n    /* \"#utility.yul\":3554:3628   */\n  swap7\n  pop\n    /* \"#utility.yul\":3510:3638   */\n  pop\n    /* \"#utility.yul\":3677:3679   */\n  0x20\n    /* \"#utility.yul\":3703:3767   */\n  tag_91\n    /* \"#utility.yul\":3759:3766   */\n  dup10\n    /* \"#utility.yul\":3750:3756   */\n  dup3\n    /* \"#utility.yul\":3739:3748   */\n  dup11\n    /* \"#utility.yul\":3735:3757   */\n  add\n    /* \"#utility.yul\":3703:3767   */\n  tag_16\n  jump\t// in\ntag_91:\n    /* \"#utility.yul\":3693:3767   */\n  swap6\n  pop\n    /* \"#utility.yul\":3648:3777   */\n  pop\n    /* \"#utility.yul\":3816:3818   */\n  0x40\n    /* \"#utility.yul\":3842:3906   */\n  tag_92\n    /* \"#utility.yul\":3898:3905   */\n  dup10\n    /* \"#utility.yul\":3889:3895   */\n  dup3\n    /* \"#utility.yul\":3878:3887   */\n  dup11\n    /* \"#utility.yul\":3874:3896   */\n  add\n    /* \"#utility.yul\":3842:3906   */\n  tag_16\n  jump\t// in\ntag_92:\n    /* \"#utility.yul\":3832:3906   */\n  swap5\n  pop\n    /* \"#utility.yul\":3787:3916   */\n  pop\n    /* \"#utility.yul\":3955:3957   */\n  0x60\n    /* \"#utility.yul\":3981:4045   */\n  tag_93\n    /* \"#utility.yul\":4037:4044   */\n  dup10\n    /* \"#utility.yul\":4028:4034   */\n  dup3\n    /* \"#utility.yul\":4017:4026   */\n  dup11\n    /* \"#utility.yul\":4013:4035   */\n  add\n    /* \"#utility.yul\":3981:4045   */\n  tag_16\n  jump\t// in\ntag_93:\n    /* \"#utility.yul\":3971:4045   */\n  swap4\n  pop\n    /* \"#utility.yul\":3926:4055   */\n  pop\n    /* \"#utility.yul\":4115:4118   */\n  0x80\n    /* \"#utility.yul\":4104:4113   */\n  dup8\n    /* \"#utility.yul\":4100:4119   */\n  add\n    /* \"#utility.yul\":4094:4120   */\n  mload\n    /* \"#utility.yul\":4147:4165   */\n  0xffffffffffffffff\n    /* \"#utility.yul\":4139:4145   */\n  dup2\n    /* \"#utility.yul\":4136:4166   */\n  gt\n    /* \"#utility.yul\":4133:4250   */\n  iszero\n  tag_94\n  jumpi\n    /* \"#utility.yul\":4169:4248   */\n  tag_95\n  tag_12\n  jump\t// in\ntag_95:\n    /* \"#utility.yul\":4133:4250   */\ntag_94:\n    /* \"#utility.yul\":4274:4348   */\n  tag_96\n    /* \"#utility.yul\":4340:4347   */\n  dup10\n    /* \"#utility.yul\":4331:4337   */\n  dup3\n    /* \"#utility.yul\":4320:4329   */\n  dup11\n    /* \"#utility.yul\":4316:4338   */\n  add\n    /* \"#utility.yul\":4274:4348   */\n  tag_26\n  jump\t// in\ntag_96:\n    /* \"#utility.yul\":4264:4348   */\n  swap3\n  pop\n    /* \"#utility.yul\":4065:4358   */\n  pop\n    /* \"#utility.yul\":4418:4421   */\n  0xa0\n    /* \"#utility.yul\":4407:4416   */\n  dup8\n    /* \"#utility.yul\":4403:4422   */\n  add\n    /* \"#utility.yul\":4397:4423   */\n  mload\n    /* \"#utility.yul\":4450:4468   */\n  0xffffffffffffffff\n    /* \"#utility.yul\":4442:4448   */\n  dup2\n    /* \"#utility.yul\":4439:4469   */\n  gt\n    /* \"#utility.yul\":4436:4553   */\n  iszero\n  tag_97\n  jumpi\n    /* \"#utility.yul\":4472:4551   */\n  tag_98\n  tag_12\n  jump\t// in\ntag_98:\n    /* \"#utility.yul\":4436:4553   */\ntag_97:\n    /* \"#utility.yul\":4577:4651   */\n  tag_99\n    /* \"#utility.yul\":4643:4650   */\n  dup10\n    /* \"#utility.yul\":4634:4640   */\n  dup3\n    /* \"#utility.yul\":4623:4632   */\n  dup11\n    /* \"#utility.yul\":4619:4641   */\n  add\n    /* \"#utility.yul\":4577:4651   */\n  tag_26\n  jump\t// in\ntag_99:\n    /* \"#utility.yul\":4567:4651   */\n  swap2\n  pop\n    /* \"#utility.yul\":4368:4661   */\n  pop\n    /* \"#utility.yul\":3188:4668   */\n  swap3\n  swap6\n  pop\n  swap3\n  swap6\n  pop\n  swap3\n  swap6\n  jump\t// out\n    /* \"#utility.yul\":4674:4773   */\ntag_27:\n    /* \"#utility.yul\":4726:4732   */\n  0x00\n    /* \"#utility.yul\":4760:4765   */\n  dup2\n    /* \"#utility.yul\":4754:4766   */\n  mload\n    /* \"#utility.yul\":4744:4766   */\n  swap1\n  pop\n    /* \"#utility.yul\":4674:4773   */\n  swap2\n  swap1\n  pop\n  jump\t// out\n    /* \"#utility.yul\":4779:4959   */\ntag_28:\n    /* \"#utility.yul\":4827:4904   */\n  0x4e487b7100000000000000000000000000000000000000000000000000000000\n    /* \"#utility.yul\":4824:4825   */\n  0x00\n    /* \"#utility.yul\":4817:4905   */\n  mstore\n    /* \"#utility.yul\":4924:4928   */\n  0x22\n    /* \"#utility.yul\":4921:4922   */\n  0x04\n    /* \"#utility.yul\":4914:4929   */\n  mstore\n    /* \"#utility.yul\":4948:4952   */\n  0x24\n    /* \"#utility.yul\":4945:4946   */\n  0x00\n    /* \"#utility.yul\":4938:4953   */\n  revert\n    /* \"#utility.yul\":4965:5285   */\ntag_29:\n    /* \"#utility.yul\":5009:5015   */\n  0x00\n    /* \"#utility.yul\":5046:5047   */\n  0x02\n    /* \"#utility.yul\":5040:5044   */\n  dup3\n    /* \"#utility.yul\":5036:5048   */\n  div\n    /* \"#utility.yul\":5026:5048   */\n  swap1\n  pop\n    /* \"#utility.yul\":5093:5094   */\n  0x01\n    /* \"#utility.yul\":5087:5091   */\n  dup3\n    /* \"#utility.yul\":5083:5095   */\n  and\n    /* \"#utility.yul\":5114:5132   */\n  dup1\n    /* \"#utility.yul\":5104:5185   */\n  tag_103\n  jumpi\n    /* \"#utility.yul\":5170:5174   */\n  0x7f\n    /* \"#utility.yul\":5162:5168   */\n  dup3\n    /* \"#utility.yul\":5158:5175   */\n  and\n    /* \"#utility.yul\":5148:5175   */\n  swap2\n  pop\n    /* \"#utility.yul\":5104:5185   */\ntag_103:\n    /* \"#utility.yul\":5232:5234   */\n  0x20\n    /* \"#utility.yul\":5224:5230   */\n  dup3\n    /* \"#utility.yul\":5221:5235   */\n  lt\n    /* \"#utility.yul\":5201:5219   */\n  dup2\n    /* \"#utility.yul\":5198:5236   */\n  sub\n    /* \"#utility.yul\":5195:5279   */\n  tag_104\n  jumpi\n    /* \"#utility.yul\":5251:5269   */\n  tag_105\n  tag_28\n  jump\t// in\ntag_105:\n    /* \"#utility.yul\":5195:5279   */\ntag_104:\n    /* \"#utility.yul\":5016:5285   */\n  pop\n    /* \"#utility.yul\":4965:5285   */\n  swap2\n  swap1\n  pop\n  jump\t// out\n    /* \"#utility.yul\":5291:5432   */\ntag_30:\n    /* \"#utility.yul\":5340:5344   */\n  0x00\n    /* \"#utility.yul\":5363:5366   */\n  dup2\n    /* \"#utility.yul\":5355:5366   */\n  swap1\n  pop\n    /* \"#utility.yul\":5386:5389   */\n  dup2\n    /* \"#utility.yul\":5383:5384   */\n  0x00\n    /* \"#utility.yul\":5376:5390   */\n  mstore\n    /* \"#utility.yul\":5420:5424   */\n  0x20\n    /* \"#utility.yul\":5417:5418   */\n  0x00\n    /* \"#utility.yul\":5407:5425   */\n  keccak256\n    /* \"#utility.yul\":5399:5425   */\n  swap1\n  pop\n    /* \"#utility.yul\":5291:5432   */\n  swap2\n  swap1\n  pop\n  jump\t// out\n    /* \"#utility.yul\":5438:5531   */\ntag_31:\n    /* \"#utility.yul\":5475:5481   */\n  0x00\n    /* \"#utility.yul\":5522:5524   */\n  0x20\n    /* \"#utility.yul\":5517:5519   */\n  0x1f\n    /* \"#utility.yul\":5510:5515   */\n  dup4\n    /* \"#utility.yul\":5506:5520   */\n  add\n    /* \"#utility.yul\":5502:5525   */\n  div\n    /* \"#utility.yul\":5492:5525   */\n  swap1\n  pop\n    /* \"#utility.yul\":5438:5531   */\n  swap2\n  swap1\n  pop\n  jump\t// out\n    /* \"#utility.yul\":5537:5644   */\ntag_32:\n    /* \"#utility.yul\":5581:5589   */\n  0x00\n    /* \"#utility.yul\":5631:5636   */\n  dup3\n    /* \"#utility.yul\":5625:5629   */\n  dup3\n    /* \"#utility.yul\":5621:5637   */\n  shl\n    /* \"#utility.yul\":5600:5637   */\n  swap1\n  pop\n    /* \"#utility.yul\":5537:5644   */\n  swap3\n  swap2\n  pop\n  pop\n  jump\t// out\n    /* \"#utility.yul\":5650:6043   */\ntag_33:\n    /* \"#utility.yul\":5719:5725   */\n  0x00\n    /* \"#utility.yul\":5769:5770   */\n  0x08\n    /* \"#utility.yul\":5757:5767   */\n  dup4\n    /* \"#utility.yul\":5753:5771   */\n  mul\n    /* \"#utility.yul\":5792:5889   */\n  tag_110\n    /* \"#utility.yul\":5822:5888   */\n  0xffffffffffffffffffffffffffffffffffffffffffffffffffffffffffffffff\n    /* \"#utility.yul\":5811:5820   */\n  dup3\n    /* \"#utility.yul\":5792:5889   */\n  tag_32\n  jump\t// in\ntag_110:\n    /* \"#utility.yul\":5910:5949   */\n  tag_111\n    /* \"#utility.yul\":5940:5948   */\n  dup7\n    /* \"#utility.yul\":5929:5938   */\n  dup4\n    /* \"#utility.yul\":5910:5949   */\n  tag_32\n  jump\t// in\ntag_111:\n    /* \"#utility.yul\":5898:5949   */\n  swap6\n  pop\n    /* \"#utility.yul\":5982:5986   */\n  dup1\n    /* \"#utility.yul\":5978:5987   */\n  not\n    /* \"#utility.yul\":5971:5976   */\n  dup5\n    /* \"#utility.yul\":5967:5988   */\n  and\n    /* \"#utility.yul\":5958:5988   */\n  swap4\n  pop\n    /* \"#utility.yul\":6031:6035   */\n  dup1\n    /* \"#utility.yul\":6021:6029   */\n  dup7\n    /* \"#utility.yul\":6017:6036   */\n  and\n    /* \"#utility.yul\":6010:6015   */\n  dup5\n    /* \"#utility.yul\":6007:6037   */\n  or\n    /* \"#utility.yul\":5997:6037   */\n  swap3\n  pop\n    /* \"#utility.yul\":5726:6043   */\n  pop\n  pop\n    /* \"#utility.yul\":5650:6043   */\n  swap4\n  swap3\n  pop\n  pop\n  pop\n  jump\t// out\n    /* \"#utility.yul\":6049:6126   */\ntag_34:\n    /* \"#utility.yul\":6086:6093   */\n  0x00\n    /* \"#utility.yul\":6115:6120   */\n  dup2\n    /* \"#utility.yul\":6104:6120   */\n  swap1\n  pop\n    /* \"#utility.yul\":6049:6126   */\n  swap2\n  swap1\n  pop\n  jump\t// out\n    /* \"#utility.yul\":6132:6192   */\ntag_35:\n    /* \"#utility.yul\":6160:6163   */\n  0x00\n    /* \"#utility.yul\":6181:6186   */\n  dup2\n    /* \"#utility.yul\":6174:6186   */\n  swap1\n  pop\n    /* \"#utility.yul\":6132:6192   */\n  swap2\n  swap1\n  pop\n  jump\t// out\n    /* \"#utility.yul\":6198:6340   */\ntag_36:\n    /* \"#utility.yul\":6248:6257   */\n  0x00\n    /* \"#utility.yul\":6281:6334   */\n  tag_115\n    /* \"#utility.yul\":6299:6333   */\n  tag_116\n    /* \"#utility.yul\":6308:6332   */\n  tag_117\n    /* \"#utility.yul\":6326:6331   */\n  dup5\n    /* \"#utility.yul\":6308:6332   */\n  tag_34\n  jump\t// in\ntag_117:\n    /* \"#utility.yul\":6299:6333   */\n  tag_35\n  jump\t// in\ntag_116:\n    /* \"#utility.yul\":6281:6334   */\n  tag_34\n  jump\t// in\ntag_115:\n    /* \"#utility.yul\":6268:6334   */\n  swap1\n  pop\n    /* \"#utility.yul\":6198:6340   */\n  swap2\n  swap1\n  pop\n  jump\t// out\n    /* \"#utility.yul\":6346:6421   */\ntag_37:\n    /* \"#utility.yul\":6389:6392   */\n  0x00\n    /* \"#utility.yul\":6410:6415   */\n  dup2\n    /* \"#utility.yul\":6403:6415   */\n  swap1\n  pop\n    /* \"#utility.yul\":6346:6421   */\n  swap2\n  swap1\n  pop\n  jump\t// out\n    /* \"#utility.yul\":6427:6696   */\ntag_38:\n    /* \"#utility.yul\":6537:6576   */\n  tag_120\n    /* \"#utility.yul\":6568:6575   */\n  dup4\n    /* \"#utility.yul\":6537:6576   */\n  tag_36\n  jump\t// in\ntag_120:\n    /* \"#utility.yul\":6598:6689   */\n  tag_121\n    /* \"#utility.yul\":6647:6688   */\n  tag_122\n    /* \"#utility.yul\":6671:6687   */\n  dup3\n    /* \"#utility.yul\":6647:6688   */\n  tag_37\n  jump\t// in\ntag_122:\n    /* \"#utility.yul\":6639:6645   */\n  dup5\n    /* \"#utility.yul\":6632:6636   */\n  dup5\n    /* \"#utility.yul\":6626:6637   */\n  sload\n    /* \"#utility.yul\":6598:6689   */\n  tag_33\n  jump\t// in\ntag_121:\n    /* \"#utility.yul\":6592:6596   */\n  dup3\n    /* \"#utility.yul\":6585:6690   */\n  sstore\n    /* \"#utility.yul\":6503:6696   */\n  pop\n    /* \"#utility.yul\":6427:6696   */\n  pop\n  pop\n  pop\n  jump\t// out\n    /* \"#utility.yul\":6702:6775   */\ntag_39:\n    /* \"#utility.yul\":6747:6750   */\n  0x00\n    /* \"#utility.yul\":6702:6775   */\n  swap1\n  jump\t// out\n    /* \"#utility.yul\":6781:6970   */\ntag_40:\n    /* \"#utility.yul\":6858:6890   */\n  tag_125\n  tag_39\n  jump\t// in\ntag_125:\n    /* \"#utility.yul\":6899:6964   */\n  tag_126\n    /* \"#utility.yul\":6957:6963   */\n  dup2\n    /* \"#utility.yul\":6949:6955   */\n  dup5\n    /* \"#utility.yul\":6943:6947   */\n  dup5\n    /* \"#utility.yul\":6899:6964   */\n  tag_38\n  jump\t// in\ntag_126:\n    /* \"#utility.yul\":6834:6970   */\n  pop\n    /* \"#utility.yul\":6781:6970   */\n  pop\n  pop\n  jump\t// out\n    /* \"#utility.yul\":6976:7162   */\ntag_41:\n    /* \"#utility.yul\":7036:7156   */\ntag_128:\n    /* \"#utility.yul\":7053:7056   */\n  dup2\n    /* \"#utility.yul\":7046:7051   */\n  dup2\n    /* \"#utility.yul\":7043:7057   */\n  lt\n    /* \"#utility.yul\":7036:7156   */\n  iszero\n  tag_130\n  jumpi\n    /* \"#utility.yul\":7107:7146   */\n  tag_131\n    /* \"#utility.yul\":7144:7145   */\n  0x00\n    /* \"#utility.yul\":7137:7142   */\n  dup3\n    /* \"#utility.yul\":7107:7146   */\n  tag_40\n  jump\t// in\ntag_131:\n    /* \"#utility.yul\":7080:7081   */\n  0x01\n    /* \"#utility.yul\":7073:7078   */\n  dup2\n    /* \"#utility.yul\":7069:7082   */\n  add\n    /* \"#utility.yul\":7060:7082   */\n  swap1\n  pop\n    /* \"#utility.yul\":7036:7156   */\n  jump(tag_128)\ntag_130:\n    /* \"#utility.yul\":6976:7162   */\n  pop\n  pop\n  jump\t// out\n    /* \"#utility.yul\":7168:7711   */\ntag_42:\n    /* \"#utility.yul\":7269:7271   */\n  0x1f\n    /* \"#utility.yul\":7264:7267   */\n  dup3\n    /* \"#utility.yul\":7261:7272   */\n  gt\n    /* \"#utility.yul\":7258:7704   */\n  iszero\n  tag_133\n  jumpi\n    /* \"#utility.yul\":7303:7341   */\n  tag_134\n    /* \"#utility.yul\":7335:7340   */\n  dup2\n    /* \"#utility.yul\":7303:7341   */\n  tag_30\n  jump\t// in\ntag_134:\n    /* \"#utility.yul\":7387:7416   */\n  tag_135\n    /* \"#utility.yul\":7405:7415   */\n  dup5\n    /* \"#utility.yul\":7387:7416   */\n  tag_31\n  jump\t// in\ntag_135:\n    /* \"#utility.yul\":7377:7385   */\n  dup2\n    /* \"#utility.yul\":7373:7417   */\n  add\n    /* \"#utility.yul\":7570:7572   */\n  0x20\n    /* \"#utility.yul\":7558:7568   */\n  dup6\n    /* \"#utility.yul\":7555:7573   */\n  lt\n    /* \"#utility.yul\":7552:7601   */\n  iszero\n  tag_136\n  jumpi\n    /* \"#utility.yul\":7591:7599   */\n  dup2\n    /* \"#utility.yul\":7576:7599   */\n  swap1\n  pop\n    /* \"#utility.yul\":7552:7601   */\ntag_136:\n    /* \"#utility.yul\":7614:7694   */\n  tag_137\n    /* \"#utility.yul\":7670:7692   */\n  tag_138\n    /* \"#utility.yul\":7688:7691   */\n  dup6\n    /* \"#utility.yul\":7670:7692   */\n  tag_31\n  jump\t// in\ntag_138:\n    /* \"#utility.yul\":7660:7668   */\n  dup4\n    /* \"#utility.yul\":7656:7693   */\n  add\n    /* \"#utility.yul\":7643:7654   */\n  dup3\n    /* \"#utility.yul\":7614:7694   */\n  tag_41\n  jump\t// in\ntag_137:\n    /* \"#utility.yul\":7273:7704   */\n  pop\n  pop\n    /* \"#utility.yul\":7258:7704   */\ntag_133:\n    /* \"#utility.yul\":7168:7711   */\n  pop\n  pop\n  pop\n  jump\t// out\n    /* \"#utility.yul\":7717:7834   */\ntag_43:\n    /* \"#utility.yul\":7771:7779   */\n  0x00\n    /* \"#utility.yul\":7821:7826   */\n  dup3\n    /* \"#utility.yul\":7815:7819   */\n  dup3\n    /* \"#utility.yul\":7811:7827   */\n  shr\n    /* \"#utility.yul\":7790:7827   */\n  swap1\n  pop\n    /* \"#utility.yul\":7717:7834   */\n  swap3\n  swap2\n  pop\n  pop\n  jump\t// out\n    /* \"#utility.yul\":7840:8009   */\ntag_44:\n    /* \"#utility.yul\":7884:7890   */\n  0x00\n    /* \"#utility.yul\":7917:7968   */\n  tag_141\n    /* \"#utility.yul\":7965:7966   */\n  0x00\n    /* \"#utility.yul\":7961:7967   */\n  not\n    /* \"#utility.yul\":7953:7958   */\n  dup5\n    /* \"#utility.yul\":7950:7951   */\n  0x08\n    /* \"#utility.yul\":7946:7959   */\n  mul\n    /* \"#utility.yul\":7917:7968   */\n  tag_43\n  jump\t// in\ntag_141:\n    /* \"#utility.yul\":7913:7969   */\n  not\n    /* \"#utility.yul\":7998:8002   */\n  dup1\n    /* \"#utility.yul\":7992:7996   */\n  dup4\n    /* \"#utility.yul\":7988:8003   */\n  and\n    /* \"#utility.yul\":7978:8003   */\n  swap2\n  pop\n    /* \"#utility.yul\":7891:8009   */\n  pop\n    /* \"#utility.yul\":7840:8009   */\n  swap3\n  swap2\n  pop\n  pop\n  jump\t// out\n    /* \"#utility.yul\":8014:8309   */\ntag_45:\n    /* \"#utility.yul\":8090:8094   */\n  0x00\n    /* \"#utility.yul\":8236:8265   */\n  tag_143\n    /* \"#utility.yul\":8261:8264   */\n  dup4\n    /* \"#utility.yul\":8255:8259   */\n  dup4\n    /* \"#utility.yul\":8236:8265   */\n  tag_44\n  jump\t// in\ntag_143:\n    /* \"#utility.yul\":8228:8265   */\n  swap2\n  pop\n    /* \"#utility.yul\":8298:8301   */\n  dup3\n    /* \"#utility.yul\":8295:8296   */\n  0x02\n    /* \"#utility.yul\":8291:8302   */\n  mul\n    /* \"#utility.yul\":8285:8289   */\n  dup3\n    /* \"#utility.yul\":8282:8303   */\n  or\n    /* \"#utility.yul\":8274:8303   */\n  swap1\n  pop\n    /* \"#utility.yul\":8014:8309   */\n  swap3\n  swap2\n  pop\n  pop\n  jump\t// out\n    /* \"#utility.yul\":8314:9709   */\ntag_7:\n    /* \"#utility.yul\":8431:8468   */\n  tag_145\n    /* \"#utility.yul\":8464:8467   */\n  dup3\n    /* \"#utility.yul\":8431:8468   */\n  tag_27\n  jump\t// in\ntag_145:\n    /* \"#utility.yul\":8533:8551   */\n  0xffffffffffffffff\n    /* \"#utility.yul\":8525:8531   */\n  dup2\n    /* \"#utility.yul\":8522:8552   */\n  gt\n    /* \"#utility.yul\":8519:8575   */\n  iszero\n  tag_146\n  jumpi\n    /* \"#utility.yul\":8555:8573   */\n  tag_147\n  tag_20\n  jump\t// in\ntag_147:\n    /* \"#utility.yul\":8519:8575   */\ntag_146:\n    /* \"#utility.yul\":8599:8637   */\n  tag_148\n    /* \"#utility.yul\":8631:8635   */\n  dup3\n    /* \"#utility.yul\":8625:8636   */\n  sload\n    /* \"#utility.yul\":8599:8637   */\n  tag_29\n  jump\t// in\ntag_148:\n    /* \"#utility.yul\":8684:8751   */\n  tag_149\n    /* \"#utility.yul\":8744:8750   */\n  dup3\n    /* \"#utility.yul\":8736:8742   */\n  dup3\n    /* \"#utility.yul\":8730:8734   */\n  dup6\n    /* \"#utility.yul\":8684:8751   */\n  tag_42\n  jump\t// in\ntag_149:\n    /* \"#utility.yul\":8778:8779   */\n  0x00\n    /* \"#utility.yul\":8802:8806   */\n  0x20\n    /* \"#utility.yul\":8789:8806   */\n  swap1\n  pop\n    /* \"#utility.yul\":8834:8836   */\n  0x1f\n    /* \"#utility.yul\":8826:8832   */\n  dup4\n    /* \"#utility.yul\":8823:8837   */\n  gt\n    /* \"#utility.yul\":8851:8852   */\n  0x01\n    /* \"#utility.yul\":8846:9464   */\n  dup2\n  eq\n  tag_151\n  jumpi\n    /* \"#utility.yul\":9508:9509   */\n  0x00\n    /* \"#utility.yul\":9525:9531   */\n  dup5\n    /* \"#utility.yul\":9522:9599   */\n  iszero\n  tag_152\n  jumpi\n    /* \"#utility.yul\":9574:9583   */\n  dup3\n    /* \"#utility.yul\":9569:9572   */\n  dup8\n    /* \"#utility.yul\":9565:9584   */\n  add\n    /* \"#utility.yul\":9559:9585   */\n  mload\n    /* \"#utility.yul\":9550:9585   */\n  swap1\n  pop\n    /* \"#utility.yul\":9522:9599   */\ntag_152:\n    /* \"#utility.yul\":9625:9692   */\n  tag_153\n    /* \"#utility.yul\":9685:9691   */\n  dup6\n    /* \"#utility.yul\":9678:9683   */\n  dup3\n    /* \"#utility.yul\":9625:9692   */\n  tag_45\n  jump\t// in\ntag_153:\n    /* \"#utility.yul\":9619:9623   */\n  dup7\n    /* \"#utility.yul\":9612:9693   */\n  sstore\n    /* \"#utility.yul\":9481:9703   */\n  pop\n    /* \"#utility.yul\":8816:9703   */\n  jump(tag_150)\n    /* \"#utility.yul\":8846:9464   */\ntag_151:\n    /* \"#utility.yul\":8898:8902   */\n  0x1f\n    /* \"#utility.yul\":8894:8903   */\n  not\n    /* \"#utility.yul\":8886:8892   */\n  dup5\n    /* \"#utility.yul\":8882:8904   */\n  and\n    /* \"#utility.yul\":8932:8969   */\n  tag_154\n    /* \"#utility.yul\":8964:8968   */\n  dup7\n    /* \"#utility.yul\":8932:8969   */\n  tag_30\n  jump\t// in\ntag_154:\n    /* \"#utility.yul\":8991:8992   */\n  0x00\n    /* \"#utility.yul\":9005:9213   */\ntag_155:\n    /* \"#utility.yul\":9019:9026   */\n  dup3\n    /* \"#utility.yul\":9016:9017   */\n  dup2\n    /* \"#utility.yul\":9013:9027   */\n  lt\n    /* \"#utility.yul\":9005:9213   */\n  iszero\n  tag_157\n  jumpi\n    /* \"#utility.yul\":9098:9107   */\n  dup5\n    /* \"#utility.yul\":9093:9096   */\n  dup10\n    /* \"#utility.yul\":9089:9108   */\n  add\n    /* \"#utility.yul\":9083:9109   */\n  mload\n    /* \"#utility.yul\":9075:9081   */\n  dup3\n    /* \"#utility.yul\":9068:9110   */\n  sstore\n    /* \"#utility.yul\":9149:9150   */\n  0x01\n    /* \"#utility.yul\":9141:9147   */\n  dup3\n    /* \"#utility.yul\":9137:9151   */\n  add\n    /* \"#utility.yul\":9127:9151   */\n  swap2\n  pop\n    /* \"#utility.yul\":9196:9198   */\n  0x20\n    /* \"#utility.yul\":9185:9194   */\n  dup6\n    /* \"#utility.yul\":9181:9199   */\n  add\n    /* \"#utility.yul\":9168:9199   */\n  swap5\n  pop\n    /* \"#utility.yul\":9042:9046   */\n  0x20\n    /* \"#utility.yul\":9039:9040   */\n  dup2\n    /* \"#utility.yul\":9035:9047   */\n  add\n    /* \"#utility.yul\":9030:9047   */\n  swap1\n  pop\n    /* \"#utility.yul\":9005:9213   */\n  jump(tag_155)\ntag_157:\n    /* \"#utility.yul\":9241:9247   */\n  dup7\n    /* \"#utility.yul\":9232:9239   */\n  dup4\n    /* \"#utility.yul\":9229:9248   */\n  lt\n    /* \"#utility.yul\":9226:9405   */\n  iszero\n  tag_158\n  jumpi\n    /* \"#utility.yul\":9299:9308   */\n  dup5\n    /* \"#utility.yul\":9294:9297   */\n  dup10\n    /* \"#utility.yul\":9290:9309   */\n  add\n    /* \"#utility.yul\":9284:9310   */\n  mload\n    /* \"#utility.yul\":9342:9390   */\n  tag_159\n    /* \"#utility.yul\":9384:9388   */\n  0x1f\n    /* \"#utility.yul\":9376:9382   */\n  dup10\n    /* \"#utility.yul\":9372:9389   */\n  and\n    /* \"#utility.yul\":9361:9370   */\n  dup3\n    /* \"#utility.yul\":9342:9390   */\n  tag_44\n  jump\t// in\ntag_159:\n    /* \"#utility.yul\":9334:9340   */\n  dup4\n    /* \"#utility.yul\":9327:9391   */\n  sstore\n    /* \"#utility.yul\":9249:9405   */\n  pop\n    /* \"#utility.yul\":9226:9405   */\ntag_158:\n    /* \"#utility.yul\":9451:9452   */\n  0x01\n    /* \"#utility.yul\":9447:9448   */\n  0x02\n    /* \"#utility.yul\":9439:9445   */\n  dup9\n    /* \"#utility.yul\":9435:9449   */\n  mul\n    /* \"#utility.yul\":9431:9453   */\n  add\n    /* \"#utility.yul\":9425:9429   */\n  dup9\n    /* \"#utility.yul\":9418:9454   */\n  sstore\n    /* \"#utility.yul\":8853:9464   */\n  pop\n  pop\n  pop\n    /* \"#utility.yul\":8816:9703   */\ntag_150:\n  pop\n    /* \"#utility.yul\":8406:9709   */\n  pop\n  pop\n  pop\n    /* \"#utility.yul\":8314:9709   */\n  pop\n  pop\n  jump\t// out\n    /* \"hardhat/contracts/VersatilToken.sol\":958:5481  contract VersatilToken is Context, IERC20, IERC20Metadata {... */\ntag_9:\n  mload(0x80)\n  mload(0xa0)\n  mload(0xc0)\n  mload(0xe0)\n  codecopy(0x00, dataOffset(sub_0), dataSize(sub_0))\n  0x00\n  assignImmutable(\"0xcd12d024c534d7b48c6ae66ced407348a5d6b7187ee786c4ee3ec079dee7aa20\")\n  0x00\n  assignImmutable(\"0xe5dc5b472d77ffeb68b1bb241b2a30a23da4805b6fe423e8c4bcb52699f7038d\")\n  0x00\n  assignImmutable(\"0x84b3f9c1584778fd0609bd44bae524185bcc8a7d9057a78c14d22945c29b7555\")\n  0x00\n  assignImmutable(\"0xd6a6ef89368ff1a2b8692ca514a2b91ca903bdef4de73d135978769728b3bf57\")\n  return(0x00, dataSize(sub_0))\nstop\n\nsub_0: assembly {\n        /* \"hardhat/contracts/VersatilToken.sol\":958:5481  contract VersatilToken is Context, IERC20, IERC20Metadata {... */\n      mstore(0x40, 0x80)\n      callvalue\n      dup1\n      iszero\n      tag_1\n      jumpi\n      0x00\n      dup1\n      revert\n    tag_1:\n      pop\n      jumpi(tag_2, lt(calldatasize, 0x04))\n      shr(0xe0, calldataload(0x00))\n      dup1\n      0x5ee04d78\n      gt\n      tag_17\n      jumpi\n      dup1\n      0xa9059cbb\n      gt\n      tag_18\n      jumpi\n      dup1\n      0xa9059cbb\n      eq\n      tag_13\n      jumpi\n      dup1\n      0xc57981b5\n      eq\n      tag_14\n      jumpi\n      dup1\n      0xd8264920\n      eq\n      tag_15\n      jumpi\n      dup1\n      0xdd62ed3e\n      eq\n      tag_16\n      jumpi\n      jump(tag_2)\n    tag_18:\n      dup1\n      0x5ee04d78\n      eq\n      tag_10\n      jumpi\n      dup1\n      0x70a08231\n      eq\n      tag_11\n      jumpi\n      dup1\n      0x95d89b41\n      eq\n      tag_12\n      jumpi\n      jump(tag_2)\n    tag_17:\n      dup1\n      0x1d610577\n      gt\n      tag_19\n      jumpi\n      dup1\n      0x1d610577\n      eq\n      tag_6\n      jumpi\n      dup1\n      0x23b872dd\n      eq\n      tag_7\n      jumpi\n      dup1\n      0x313ce567\n      eq\n      tag_8\n      jumpi\n      dup1\n      0x443ec74d\n      eq\n      tag_9\n      jumpi\n      jump(tag_2)\n    tag_19:\n      dup1\n      0x06fdde03\n      eq\n      tag_3\n      jumpi\n      dup1\n      0x095ea7b3\n      eq\n      tag_4\n      jumpi\n      dup1\n      0x18160ddd\n      eq\n      tag_5\n      jumpi\n    tag_2:\n      0x00\n      dup1\n      revert\n        /* \"hardhat/contracts/VersatilToken.sol\":1752:1842  function name() public view override returns (string memory) {... */\n    tag_3:\n      tag_20\n      tag_21\n      jump\t// in\n    tag_20:\n      mload(0x40)\n      tag_22\n      swap2\n      swap1\n      tag_23\n      jump\t// in\n    tag_22:\n      mload(0x40)\n      dup1\n      swap2\n      sub\n      swap1\n      return\n        /* \"hardhat/contracts/VersatilToken.sol\":4021:4261  function approve(address spender, uint256 amount) public override returns (bool) {... */\n    tag_4:\n      tag_24\n      0x04\n      dup1\n      calldatasize\n      sub\n      dup2\n      add\n      swap1\n      tag_25\n      swap2\n      swap1\n      tag_26\n      jump\t// in\n    tag_25:\n      tag_27\n      jump\t// in\n    tag_24:\n      mload(0x40)\n      tag_28\n      swap2\n      swap1\n      tag_29\n      jump\t// in\n    tag_28:\n      mload(0x40)\n      dup1\n      swap2\n      sub\n      swap1\n      return\n        /* \"hardhat/contracts/VersatilToken.sol\":2044:2169  function totalSupply() public pure override returns (uint256) {... */\n    tag_5:\n      tag_30\n      tag_31\n      jump\t// in\n    tag_30:\n      mload(0x40)\n      tag_32\n      swap2\n      swap1\n      tag_33\n      jump\t// in\n    tag_32:\n      mload(0x40)\n      dup1\n      swap2\n      sub\n      swap1\n      return\n        /* \"hardhat/contracts/VersatilToken.sol\":1230:1267  address public immutable UNISWAP_POOL */\n    tag_6:\n      tag_34\n      tag_35\n      jump\t// in\n    tag_34:\n      mload(0x40)\n      tag_36\n      swap2\n      swap1\n      tag_37\n      jump\t// in\n    tag_36:\n      mload(0x40)\n      dup1\n      swap2\n      sub\n      swap1\n      return\n        /* \"hardhat/contracts/VersatilToken.sol\":4267:4914  function transferFrom(address sender, address recipient, uint256 amount) public override returns (bool) {... */\n    tag_7:\n      tag_38\n      0x04\n      dup1\n      calldatasize\n      sub\n      dup2\n      add\n      swap1\n      tag_39\n      swap2\n      swap1\n      tag_40\n      jump\t// in\n    tag_39:\n      tag_41\n      jump\t// in\n    tag_38:\n      mload(0x40)\n      tag_42\n      swap2\n      swap1\n      tag_29\n      jump\t// in\n    tag_42:\n      mload(0x40)\n      dup1\n      swap2\n      sub\n      swap1\n      return\n        /* \"hardhat/contracts/VersatilToken.sol\":1948:2038  function decimals() public view override returns (uint8) {... */\n    tag_8:\n      tag_43\n      tag_44\n      jump\t// in\n    tag_43:\n      mload(0x40)\n      tag_45\n      swap2\n      swap1\n      tag_46\n      jump\t// in\n    tag_45:\n      mload(0x40)\n      dup1\n      swap2\n      sub\n      swap1\n      return\n        /* \"hardhat/contracts/VersatilToken.sol\":1111:1142  address public immutable TOKEN0 */\n    tag_9:\n      tag_47\n      tag_48\n      jump\t// in\n    tag_47:\n      mload(0x40)\n      tag_49\n      swap2\n      swap1\n      tag_37\n      jump\t// in\n    tag_49:\n      mload(0x40)\n      dup1\n      swap2\n      sub\n      swap1\n      return\n        /* \"hardhat/contracts/VersatilToken.sol\":1148:1179  address public immutable TOKEN1 */\n    tag_10:\n      tag_50\n      tag_51\n      jump\t// in\n    tag_50:\n      mload(0x40)\n      tag_52\n      swap2\n      swap1\n      tag_37\n      jump\t// in\n    tag_52:\n      mload(0x40)\n      dup1\n      swap2\n      sub\n      swap1\n      return\n        /* \"hardhat/contracts/VersatilToken.sol\":2175:3383  function balanceOf(address account) public view override returns (uint256) {... */\n    tag_11:\n      tag_53\n      0x04\n      dup1\n      calldatasize\n      sub\n      dup2\n      add\n      swap1\n      tag_54\n      swap2\n      swap1\n      tag_55\n      jump\t// in\n    tag_54:\n      tag_56\n      jump\t// in\n    tag_53:\n      mload(0x40)\n      tag_57\n      swap2\n      swap1\n      tag_33\n      jump\t// in\n    tag_57:\n      mload(0x40)\n      dup1\n      swap2\n      sub\n      swap1\n      return\n        /* \"hardhat/contracts/VersatilToken.sol\":1848:1942  function symbol() public view override returns (string memory) {... */\n    tag_12:\n      tag_58\n      tag_59\n      jump\t// in\n    tag_58:\n      mload(0x40)\n      tag_60\n      swap2\n      swap1\n      tag_23\n      jump\t// in\n    tag_60:\n      mload(0x40)\n      dup1\n      swap2\n      sub\n      swap1\n      return\n        /* \"hardhat/contracts/VersatilToken.sol\":3441:3868  function transfer(address recipient, uint256 amount) public override returns (bool) {... */\n    tag_13:\n      tag_61\n      0x04\n      dup1\n      calldatasize\n      sub\n      dup2\n      add\n      swap1\n      tag_62\n      swap2\n      swap1\n      tag_26\n      jump\t// in\n    tag_62:\n      tag_63\n      jump\t// in\n    tag_61:\n      mload(0x40)\n      tag_64\n      swap2\n      swap1\n      tag_29\n      jump\t// in\n    tag_64:\n      mload(0x40)\n      dup1\n      swap2\n      sub\n      swap1\n      return\n        /* \"hardhat/contracts/VersatilToken.sol\":1273:1306  uint24 public constant FEE = 3000 */\n    tag_14:\n      tag_65\n      tag_66\n      jump\t// in\n    tag_65:\n      mload(0x40)\n      tag_67\n      swap2\n      swap1\n      tag_68\n      jump\t// in\n    tag_67:\n      mload(0x40)\n      dup1\n      swap2\n      sub\n      swap1\n      return\n        /* \"hardhat/contracts/VersatilToken.sol\":1185:1224  address public immutable UNISWAP_ROUTER */\n    tag_15:\n      tag_69\n      tag_70\n      jump\t// in\n    tag_69:\n      mload(0x40)\n      tag_71\n      swap2\n      swap1\n      tag_37\n      jump\t// in\n    tag_71:\n      mload(0x40)\n      dup1\n      swap2\n      sub\n      swap1\n      return\n        /* \"hardhat/contracts/VersatilToken.sol\":3874:4015  function allowance(address owner, address spender) public view override returns (uint256) {... */\n    tag_16:\n      tag_72\n      0x04\n      dup1\n      calldatasize\n      sub\n      dup2\n      add\n      swap1\n      tag_73\n      swap2\n      swap1\n      tag_74\n      jump\t// in\n    tag_73:\n      tag_75\n      jump\t// in\n    tag_72:\n      mload(0x40)\n      tag_76\n      swap2\n      swap1\n      tag_33\n      jump\t// in\n    tag_76:\n      mload(0x40)\n      dup1\n      swap2\n      sub\n      swap1\n      return\n        /* \"hardhat/contracts/VersatilToken.sol\":1752:1842  function name() public view override returns (string memory) {... */\n    tag_21:\n        /* \"hardhat/contracts/VersatilToken.sol\":1798:1811  string memory */\n      0x60\n        /* \"hardhat/contracts/VersatilToken.sol\":1830:1835  _name */\n      0x00\n        /* \"hardhat/contracts/VersatilToken.sol\":1823:1835  return _name */\n      dup1\n      sload\n      tag_78\n      swap1\n      tag_79\n      jump\t// in\n    tag_78:\n      dup1\n      0x1f\n      add\n      0x20\n      dup1\n      swap2\n      div\n      mul\n      0x20\n      add\n      mload(0x40)\n      swap1\n      dup2\n      add\n      0x40\n      mstore\n      dup1\n      swap3\n      swap2\n      swap1\n      dup2\n      dup2\n      mstore\n      0x20\n      add\n      dup3\n      dup1\n      sload\n      tag_80\n      swap1\n      tag_79\n      jump\t// in\n    tag_80:\n      dup1\n      iszero\n      tag_81\n      jumpi\n      dup1\n      0x1f\n      lt\n      tag_82\n      jumpi\n      0x0100\n      dup1\n      dup4\n      sload\n      div\n      mul\n      dup4\n      mstore\n      swap2\n      0x20\n      add\n      swap2\n      jump(tag_81)\n    tag_82:\n      dup3\n      add\n      swap2\n      swap1\n      0x00\n      mstore\n      keccak256(0x00, 0x20)\n      swap1\n    tag_83:\n      dup2\n      sload\n      dup2\n      mstore\n      swap1\n      0x01\n      add\n      swap1\n      0x20\n      add\n      dup1\n      dup4\n      gt\n      tag_83\n      jumpi\n      dup3\n      swap1\n      sub\n      0x1f\n      and\n      dup3\n      add\n      swap2\n    tag_81:\n      pop\n      pop\n      pop\n      pop\n      pop\n      swap1\n      pop\n        /* \"hardhat/contracts/VersatilToken.sol\":1752:1842  function name() public view override returns (string memory) {... */\n      swap1\n      jump\t// out\n        /* \"hardhat/contracts/VersatilToken.sol\":4021:4261  function approve(address spender, uint256 amount) public override returns (bool) {... */\n    tag_27:\n        /* \"hardhat/contracts/VersatilToken.sol\":4096:4100  bool */\n      0x00\n        /* \"hardhat/contracts/VersatilToken.sol\":4112:4125  address owner */\n      dup1\n        /* \"hardhat/contracts/VersatilToken.sol\":4128:4140  _msgSender() */\n      tag_85\n        /* \"hardhat/contracts/VersatilToken.sol\":4128:4138  _msgSender */\n      tag_86\n        /* \"hardhat/contracts/VersatilToken.sol\":4128:4140  _msgSender() */\n      jump\t// in\n    tag_85:\n        /* \"hardhat/contracts/VersatilToken.sol\":4112:4140  address owner = _msgSender() */\n      swap1\n      pop\n        /* \"hardhat/contracts/VersatilToken.sol\":4180:4186  amount */\n      dup3\n        /* \"hardhat/contracts/VersatilToken.sol\":4150:4161  _allowances */\n      0x03\n        /* \"hardhat/contracts/VersatilToken.sol\":4150:4168  _allowances[owner] */\n      0x00\n        /* \"hardhat/contracts/VersatilToken.sol\":4162:4167  owner */\n      dup4\n        /* \"hardhat/contracts/VersatilToken.sol\":4150:4168  _allowances[owner] */\n      0xffffffffffffffffffffffffffffffffffffffff\n      and\n      0xffffffffffffffffffffffffffffffffffffffff\n      and\n      dup2\n      mstore\n      0x20\n      add\n      swap1\n      dup2\n      mstore\n      0x20\n      add\n      0x00\n      keccak256\n        /* \"hardhat/contracts/VersatilToken.sol\":4150:4177  _allowances[owner][spender] */\n      0x00\n        /* \"hardhat/contracts/VersatilToken.sol\":4169:4176  spender */\n      dup7\n        /* \"hardhat/contracts/VersatilToken.sol\":4150:4177  _allowances[owner][spender] */\n      0xffffffffffffffffffffffffffffffffffffffff\n      and\n      0xffffffffffffffffffffffffffffffffffffffff\n      and\n      dup2\n      mstore\n      0x20\n      add\n      swap1\n      dup2\n      mstore\n      0x20\n      add\n      0x00\n      keccak256\n        /* \"hardhat/contracts/VersatilToken.sol\":4150:4186  _allowances[owner][spender] = amount */\n      dup2\n      swap1\n      sstore\n      pop\n        /* \"hardhat/contracts/VersatilToken.sol\":4217:4224  spender */\n      dup4\n        /* \"hardhat/contracts/VersatilToken.sol\":4201:4233  Approval(owner, spender, amount) */\n      0xffffffffffffffffffffffffffffffffffffffff\n      and\n        /* \"hardhat/contracts/VersatilToken.sol\":4210:4215  owner */\n      dup2\n        /* \"hardhat/contracts/VersatilToken.sol\":4201:4233  Approval(owner, spender, amount) */\n      0xffffffffffffffffffffffffffffffffffffffff\n      and\n      0x8c5be1e5ebec7d5bd14f71427d1e84f3dd0314c0f7b2291e5b200ac8c7c3b925\n        /* \"hardhat/contracts/VersatilToken.sol\":4226:4232  amount */\n      dup6\n        /* \"hardhat/contracts/VersatilToken.sol\":4201:4233  Approval(owner, spender, amount) */\n      mload(0x40)\n      tag_87\n      swap2\n      swap1\n      tag_33\n      jump\t// in\n    tag_87:\n      mload(0x40)\n      dup1\n      swap2\n      sub\n      swap1\n      log3\n        /* \"hardhat/contracts/VersatilToken.sol\":4250:4254  true */\n      0x01\n        /* \"hardhat/contracts/VersatilToken.sol\":4243:4254  return true */\n      swap2\n      pop\n      pop\n        /* \"hardhat/contracts/VersatilToken.sol\":4021:4261  function approve(address spender, uint256 amount) public override returns (bool) {... */\n      swap3\n      swap2\n      pop\n      pop\n      jump\t// out\n        /* \"hardhat/contracts/VersatilToken.sol\":2044:2169  function totalSupply() public pure override returns (uint256) {... */\n    tag_31:\n        /* \"hardhat/contracts/VersatilToken.sol\":2097:2104  uint256 */\n      0x00\n        /* \"hardhat/contracts/VersatilToken.sol\":2044:2169  function totalSupply() public pure override returns (uint256) {... */\n      swap1\n      jump\t// out\n        /* \"hardhat/contracts/VersatilToken.sol\":1230:1267  address public immutable UNISWAP_POOL */\n    tag_35:\n      immutable(\"0xcd12d024c534d7b48c6ae66ced407348a5d6b7187ee786c4ee3ec079dee7aa20\")\n      dup2\n      jump\t// out\n        /* \"hardhat/contracts/VersatilToken.sol\":4267:4914  function transferFrom(address sender, address recipient, uint256 amount) public override returns (bool) {... */\n    tag_41:\n        /* \"hardhat/contracts/VersatilToken.sol\":4365:4369  bool */\n      0x00\n        /* \"hardhat/contracts/VersatilToken.sol\":4664:4670  amount */\n      dup2\n        /* \"hardhat/contracts/VersatilToken.sol\":4635:4641  TOKEN1 */\n      immutable(\"0x84b3f9c1584778fd0609bd44bae524185bcc8a7d9057a78c14d22945c29b7555\")\n        /* \"hardhat/contracts/VersatilToken.sol\":4628:4652  IERC20(TOKEN1).balanceOf */\n      0xffffffffffffffffffffffffffffffffffffffff\n      and\n      0x70a08231\n        /* \"hardhat/contracts/VersatilToken.sol\":4653:4659  sender */\n      dup7\n        /* \"hardhat/contracts/VersatilToken.sol\":4628:4660  IERC20(TOKEN1).balanceOf(sender) */\n      mload(0x40)\n      dup3\n      0xffffffff\n      and\n      0xe0\n      shl\n      dup2\n      mstore\n      0x04\n      add\n      tag_90\n      swap2\n      swap1\n      tag_37\n      jump\t// in\n    tag_90:\n      0x20\n      mload(0x40)\n      dup1\n      dup4\n      sub\n      dup2\n      dup7\n      gas\n      staticcall\n      iszero\n      dup1\n      iszero\n      tag_92\n      jumpi\n      returndatasize\n      0x00\n      dup1\n      returndatacopy\n      revert(0x00, returndatasize)\n    tag_92:\n      pop\n      pop\n      pop\n      pop\n      mload(0x40)\n      returndatasize\n      not(0x1f)\n      0x1f\n      dup3\n      add\n      and\n      dup3\n      add\n      dup1\n      0x40\n      mstore\n      pop\n      dup2\n      add\n      swap1\n      tag_93\n      swap2\n      swap1\n      tag_94\n      jump\t// in\n    tag_93:\n        /* \"hardhat/contracts/VersatilToken.sol\":4628:4670  IERC20(TOKEN1).balanceOf(sender) >= amount */\n      lt\n      iszero\n        /* \"hardhat/contracts/VersatilToken.sol\":4620:4695  require(IERC20(TOKEN1).balanceOf(sender) >= amount, \"Insufficient balance\") */\n      tag_95\n      jumpi\n      mload(0x40)\n      0x08c379a000000000000000000000000000000000000000000000000000000000\n      dup2\n      mstore\n      0x04\n      add\n      tag_96\n      swap1\n      tag_97\n      jump\t// in\n    tag_96:\n      mload(0x40)\n      dup1\n      swap2\n      sub\n      swap1\n      revert\n    tag_95:\n        /* \"hardhat/contracts/VersatilToken.sol\":4720:4726  TOKEN1 */\n      immutable(\"0x84b3f9c1584778fd0609bd44bae524185bcc8a7d9057a78c14d22945c29b7555\")\n        /* \"hardhat/contracts/VersatilToken.sol\":4713:4740  IERC20(TOKEN1).transferFrom */\n      0xffffffffffffffffffffffffffffffffffffffff\n      and\n      0x23b872dd\n        /* \"hardhat/contracts/VersatilToken.sol\":4741:4747  sender */\n      dup6\n        /* \"hardhat/contracts/VersatilToken.sol\":4757:4761  this */\n      address\n        /* \"hardhat/contracts/VersatilToken.sol\":4764:4770  amount */\n      dup6\n        /* \"hardhat/contracts/VersatilToken.sol\":4713:4771  IERC20(TOKEN1).transferFrom(sender, address(this), amount) */\n      mload(0x40)\n      dup5\n      0xffffffff\n      and\n      0xe0\n      shl\n      dup2\n      mstore\n      0x04\n      add\n      tag_98\n      swap4\n      swap3\n      swap2\n      swap1\n      tag_99\n      jump\t// in\n    tag_98:\n      0x20\n      mload(0x40)\n      dup1\n      dup4\n      sub\n      dup2\n      0x00\n      dup8\n      gas\n      call\n      iszero\n      dup1\n      iszero\n      tag_101\n      jumpi\n      returndatasize\n      0x00\n      dup1\n      returndatacopy\n      revert(0x00, returndatasize)\n    tag_101:\n      pop\n      pop\n      pop\n      pop\n      mload(0x40)\n      returndatasize\n      not(0x1f)\n      0x1f\n      dup3\n      add\n      and\n      dup3\n      add\n      dup1\n      0x40\n      mstore\n      pop\n      dup2\n      add\n      swap1\n      tag_102\n      swap2\n      swap1\n      tag_103\n      jump\t// in\n    tag_102:\n        /* \"hardhat/contracts/VersatilToken.sol\":4705:4791  require(IERC20(TOKEN1).transferFrom(sender, address(this), amount), \"transfer failed\") */\n      tag_104\n      jumpi\n      mload(0x40)\n      0x08c379a000000000000000000000000000000000000000000000000000000000\n      dup2\n      mstore\n      0x04\n      add\n      tag_105\n      swap1\n      tag_106\n      jump\t// in\n    tag_105:\n      mload(0x40)\n      dup1\n      swap2\n      sub\n      swap1\n      revert\n    tag_104:\n        /* \"hardhat/contracts/VersatilToken.sol\":4801:4836  _swapExactOutput(recipient, amount) */\n      tag_107\n        /* \"hardhat/contracts/VersatilToken.sol\":4818:4827  recipient */\n      dup4\n        /* \"hardhat/contracts/VersatilToken.sol\":4829:4835  amount */\n      dup4\n        /* \"hardhat/contracts/VersatilToken.sol\":4801:4817  _swapExactOutput */\n      tag_108\n        /* \"hardhat/contracts/VersatilToken.sol\":4801:4836  _swapExactOutput(recipient, amount) */\n      jump\t// in\n    tag_107:\n        /* \"hardhat/contracts/VersatilToken.sol\":4868:4877  recipient */\n      dup3\n        /* \"hardhat/contracts/VersatilToken.sol\":4851:4886  Transfer(sender, recipient, amount) */\n      0xffffffffffffffffffffffffffffffffffffffff\n      and\n        /* \"hardhat/contracts/VersatilToken.sol\":4860:4866  sender */\n      dup5\n        /* \"hardhat/contracts/VersatilToken.sol\":4851:4886  Transfer(sender, recipient, amount) */\n      0xffffffffffffffffffffffffffffffffffffffff\n      and\n      0xddf252ad1be2c89b69c2b068fc378daa952ba7f163c4a11628f55a4df523b3ef\n        /* \"hardhat/contracts/VersatilToken.sol\":4879:4885  amount */\n      dup5\n        /* \"hardhat/contracts/VersatilToken.sol\":4851:4886  Transfer(sender, recipient, amount) */\n      mload(0x40)\n      tag_109\n      swap2\n      swap1\n      tag_33\n      jump\t// in\n    tag_109:\n      mload(0x40)\n      dup1\n      swap2\n      sub\n      swap1\n      log3\n        /* \"hardhat/contracts/VersatilToken.sol\":4903:4907  true */\n      0x01\n        /* \"hardhat/contracts/VersatilToken.sol\":4896:4907  return true */\n      swap1\n      pop\n        /* \"hardhat/contracts/VersatilToken.sol\":4267:4914  function transferFrom(address sender, address recipient, uint256 amount) public override returns (bool) {... */\n      swap4\n      swap3\n      pop\n      pop\n      pop\n      jump\t// out\n        /* \"hardhat/contracts/VersatilToken.sol\":1948:2038  function decimals() public view override returns (uint8) {... */\n    tag_44:\n        /* \"hardhat/contracts/VersatilToken.sol\":1998:2003  uint8 */\n      0x00\n        /* \"hardhat/contracts/VersatilToken.sol\":2022:2031  _decimals */\n      0x02\n      0x00\n      swap1\n      sload\n      swap1\n      0x0100\n      exp\n      swap1\n      div\n      0xff\n      and\n        /* \"hardhat/contracts/VersatilToken.sol\":2015:2031  return _decimals */\n      swap1\n      pop\n        /* \"hardhat/contracts/VersatilToken.sol\":1948:2038  function decimals() public view override returns (uint8) {... */\n      swap1\n      jump\t// out\n        /* \"hardhat/contracts/VersatilToken.sol\":1111:1142  address public immutable TOKEN0 */\n    tag_48:\n      immutable(\"0xd6a6ef89368ff1a2b8692ca514a2b91ca903bdef4de73d135978769728b3bf57\")\n      dup2\n      jump\t// out\n        /* \"hardhat/contracts/VersatilToken.sol\":1148:1179  address public immutable TOKEN1 */\n    tag_51:\n      immutable(\"0x84b3f9c1584778fd0609bd44bae524185bcc8a7d9057a78c14d22945c29b7555\")\n      dup2\n      jump\t// out\n        /* \"hardhat/contracts/VersatilToken.sol\":2175:3383  function balanceOf(address account) public view override returns (uint256) {... */\n    tag_56:\n        /* \"hardhat/contracts/VersatilToken.sol\":2241:2248  uint256 */\n      0x00\n        /* \"hardhat/contracts/VersatilToken.sol\":2260:2281  uint256 token1Balance */\n      dup1\n        /* \"hardhat/contracts/VersatilToken.sol\":2291:2297  TOKEN1 */\n      immutable(\"0x84b3f9c1584778fd0609bd44bae524185bcc8a7d9057a78c14d22945c29b7555\")\n        /* \"hardhat/contracts/VersatilToken.sol\":2284:2308  IERC20(TOKEN1).balanceOf */\n      0xffffffffffffffffffffffffffffffffffffffff\n      and\n      0x70a08231\n        /* \"hardhat/contracts/VersatilToken.sol\":2309:2316  account */\n      dup5\n        /* \"hardhat/contracts/VersatilToken.sol\":2284:2317  IERC20(TOKEN1).balanceOf(account) */\n      mload(0x40)\n      dup3\n      0xffffffff\n      and\n      0xe0\n      shl\n      dup2\n      mstore\n      0x04\n      add\n      tag_112\n      swap2\n      swap1\n      tag_37\n      jump\t// in\n    tag_112:\n      0x20\n      mload(0x40)\n      dup1\n      dup4\n      sub\n      dup2\n      dup7\n      gas\n      staticcall\n      iszero\n      dup1\n      iszero\n      tag_114\n      jumpi\n      returndatasize\n      0x00\n      dup1\n      returndatacopy\n      revert(0x00, returndatasize)\n    tag_114:\n      pop\n      pop\n      pop\n      pop\n      mload(0x40)\n      returndatasize\n      not(0x1f)\n      0x1f\n      dup3\n      add\n      and\n      dup3\n      add\n      dup1\n      0x40\n      mstore\n      pop\n      dup2\n      add\n      swap1\n      tag_115\n      swap2\n      swap1\n      tag_94\n      jump\t// in\n    tag_115:\n        /* \"hardhat/contracts/VersatilToken.sol\":2260:2317  uint256 token1Balance = IERC20(TOKEN1).balanceOf(account) */\n      swap1\n      pop\n        /* \"hardhat/contracts/VersatilToken.sol\":2348:2349  0 */\n      0x00\n        /* \"hardhat/contracts/VersatilToken.sol\":2331:2344  token1Balance */\n      dup2\n        /* \"hardhat/contracts/VersatilToken.sol\":2331:2349  token1Balance == 0 */\n      sub\n        /* \"hardhat/contracts/VersatilToken.sol\":2327:2359  if (token1Balance == 0) return 0 */\n      tag_116\n      jumpi\n        /* \"hardhat/contracts/VersatilToken.sol\":2358:2359  0 */\n      0x00\n        /* \"hardhat/contracts/VersatilToken.sol\":2351:2359  return 0 */\n      swap2\n      pop\n      pop\n      jump(tag_111)\n        /* \"hardhat/contracts/VersatilToken.sol\":2327:2359  if (token1Balance == 0) return 0 */\n    tag_116:\n        /* \"hardhat/contracts/VersatilToken.sol\":2436:2456  uint160 sqrtPriceX96 */\n      0x00\n        /* \"hardhat/contracts/VersatilToken.sol\":2485:2497  UNISWAP_POOL */\n      immutable(\"0xcd12d024c534d7b48c6ae66ced407348a5d6b7187ee786c4ee3ec079dee7aa20\")\n        /* \"hardhat/contracts/VersatilToken.sol\":2470:2504  IUniswapV3Pool(UNISWAP_POOL).slot0 */\n      0xffffffffffffffffffffffffffffffffffffffff\n      and\n      0x3850c7bd\n        /* \"hardhat/contracts/VersatilToken.sol\":2470:2506  IUniswapV3Pool(UNISWAP_POOL).slot0() */\n      mload(0x40)\n      dup2\n      0xffffffff\n      and\n      0xe0\n      shl\n      dup2\n      mstore\n      0x04\n      add\n      0xe0\n      mload(0x40)\n      dup1\n      dup4\n      sub\n      dup2\n      dup7\n      gas\n      staticcall\n      iszero\n      dup1\n      iszero\n      tag_118\n      jumpi\n      returndatasize\n      0x00\n      dup1\n      returndatacopy\n      revert(0x00, returndatasize)\n    tag_118:\n      pop\n      pop\n      pop\n      pop\n      mload(0x40)\n      returndatasize\n      not(0x1f)\n      0x1f\n      dup3\n      add\n      and\n      dup3\n      add\n      dup1\n      0x40\n      mstore\n      pop\n      dup2\n      add\n      swap1\n      tag_119\n      swap2\n      swap1\n      tag_120\n      jump\t// in\n    tag_119:\n        /* \"hardhat/contracts/VersatilToken.sol\":2435:2506  (uint160 sqrtPriceX96,, , , , ,) = IUniswapV3Pool(UNISWAP_POOL).slot0() */\n      pop\n      pop\n      pop\n      pop\n      pop\n      pop\n      swap1\n      pop\n        /* \"hardhat/contracts/VersatilToken.sol\":2571:2585  address token0 */\n      0x00\n        /* \"hardhat/contracts/VersatilToken.sol\":2603:2615  UNISWAP_POOL */\n      immutable(\"0xcd12d024c534d7b48c6ae66ced407348a5d6b7187ee786c4ee3ec079dee7aa20\")\n        /* \"hardhat/contracts/VersatilToken.sol\":2588:2623  IUniswapV3Pool(UNISWAP_POOL).token0 */\n      0xffffffffffffffffffffffffffffffffffffffff\n      and\n      0x0dfe1681\n        /* \"hardhat/contracts/VersatilToken.sol\":2588:2625  IUniswapV3Pool(UNISWAP_POOL).token0() */\n      mload(0x40)\n      dup2\n      0xffffffff\n      and\n      0xe0\n      shl\n      dup2\n      mstore\n      0x04\n      add\n      0x20\n      mload(0x40)\n      dup1\n      dup4\n      sub\n      dup2\n      dup7\n      gas\n      staticcall\n      iszero\n      dup1\n      iszero\n      tag_122\n      jumpi\n      returndatasize\n      0x00\n      dup1\n      returndatacopy\n      revert(0x00, returndatasize)\n    tag_122:\n      pop\n      pop\n      pop\n      pop\n      mload(0x40)\n      returndatasize\n      not(0x1f)\n      0x1f\n      dup3\n      add\n      and\n      dup3\n      add\n      dup1\n      0x40\n      mstore\n      pop\n      dup2\n      add\n      swap1\n      tag_123\n      swap2\n      swap1\n      tag_124\n      jump\t// in\n    tag_123:\n        /* \"hardhat/contracts/VersatilToken.sol\":2571:2625  address token0 = IUniswapV3Pool(UNISWAP_POOL).token0() */\n      swap1\n      pop\n        /* \"hardhat/contracts/VersatilToken.sol\":2635:2649  address token1 */\n      0x00\n        /* \"hardhat/contracts/VersatilToken.sol\":2667:2679  UNISWAP_POOL */\n      immutable(\"0xcd12d024c534d7b48c6ae66ced407348a5d6b7187ee786c4ee3ec079dee7aa20\")\n        /* \"hardhat/contracts/VersatilToken.sol\":2652:2687  IUniswapV3Pool(UNISWAP_POOL).token1 */\n      0xffffffffffffffffffffffffffffffffffffffff\n      and\n      0xd21220a7\n        /* \"hardhat/contracts/VersatilToken.sol\":2652:2689  IUniswapV3Pool(UNISWAP_POOL).token1() */\n      mload(0x40)\n      dup2\n      0xffffffff\n      and\n      0xe0\n      shl\n      dup2\n      mstore\n      0x04\n      add\n      0x20\n      mload(0x40)\n      dup1\n      dup4\n      sub\n      dup2\n      dup7\n      gas\n      staticcall\n      iszero\n      dup1\n      iszero\n      tag_126\n      jumpi\n      returndatasize\n      0x00\n      dup1\n      returndatacopy\n      revert(0x00, returndatasize)\n    tag_126:\n      pop\n      pop\n      pop\n      pop\n      mload(0x40)\n      returndatasize\n      not(0x1f)\n      0x1f\n      dup3\n      add\n      and\n      dup3\n      add\n      dup1\n      0x40\n      mstore\n      pop\n      dup2\n      add\n      swap1\n      tag_127\n      swap2\n      swap1\n      tag_124\n      jump\t// in\n    tag_127:\n        /* \"hardhat/contracts/VersatilToken.sol\":2635:2689  address token1 = IUniswapV3Pool(UNISWAP_POOL).token1() */\n      swap1\n      pop\n        /* \"hardhat/contracts/VersatilToken.sol\":2699:2715  uint256 priceX96 */\n      0x00\n        /* \"hardhat/contracts/VersatilToken.sol\":2739:2745  TOKEN1 */\n      immutable(\"0x84b3f9c1584778fd0609bd44bae524185bcc8a7d9057a78c14d22945c29b7555\")\n        /* \"hardhat/contracts/VersatilToken.sol\":2729:2745  token0 == TOKEN1 */\n      0xffffffffffffffffffffffffffffffffffffffff\n      and\n        /* \"hardhat/contracts/VersatilToken.sol\":2729:2735  token0 */\n      dup4\n        /* \"hardhat/contracts/VersatilToken.sol\":2729:2745  token0 == TOKEN1 */\n      0xffffffffffffffffffffffffffffffffffffffff\n      and\n      eq\n        /* \"hardhat/contracts/VersatilToken.sol\":2729:2765  token0 == TOKEN1 && token1 == TOKEN0 */\n      dup1\n      iszero\n      tag_128\n      jumpi\n      pop\n        /* \"hardhat/contracts/VersatilToken.sol\":2759:2765  TOKEN0 */\n      immutable(\"0xd6a6ef89368ff1a2b8692ca514a2b91ca903bdef4de73d135978769728b3bf57\")\n        /* \"hardhat/contracts/VersatilToken.sol\":2749:2765  token1 == TOKEN0 */\n      0xffffffffffffffffffffffffffffffffffffffff\n      and\n        /* \"hardhat/contracts/VersatilToken.sol\":2749:2755  token1 */\n      dup3\n        /* \"hardhat/contracts/VersatilToken.sol\":2749:2765  token1 == TOKEN0 */\n      0xffffffffffffffffffffffffffffffffffffffff\n      and\n      eq\n        /* \"hardhat/contracts/VersatilToken.sol\":2729:2765  token0 == TOKEN1 && token1 == TOKEN0 */\n    tag_128:\n        /* \"hardhat/contracts/VersatilToken.sol\":2725:3377  if (token0 == TOKEN1 && token1 == TOKEN0) {... */\n      iszero\n      tag_129\n      jumpi\n        /* \"hardhat/contracts/VersatilToken.sol\":2888:2894  2**192 */\n      0x01000000000000000000000000000000000000000000000000\n        /* \"hardhat/contracts/VersatilToken.sol\":2871:2883  sqrtPriceX96 */\n      dup5\n        /* \"hardhat/contracts/VersatilToken.sol\":2863:2884  uint256(sqrtPriceX96) */\n      0xffffffffffffffffffffffffffffffffffffffff\n      and\n        /* \"hardhat/contracts/VersatilToken.sol\":2847:2859  sqrtPriceX96 */\n      dup6\n        /* \"hardhat/contracts/VersatilToken.sol\":2839:2860  uint256(sqrtPriceX96) */\n      0xffffffffffffffffffffffffffffffffffffffff\n      and\n        /* \"hardhat/contracts/VersatilToken.sol\":2839:2884  uint256(sqrtPriceX96) * uint256(sqrtPriceX96) */\n      tag_130\n      swap2\n      swap1\n      tag_131\n      jump\t// in\n    tag_130:\n        /* \"hardhat/contracts/VersatilToken.sol\":2839:2895  uint256(sqrtPriceX96) * uint256(sqrtPriceX96) / (2**192) */\n      tag_132\n      swap2\n      swap1\n      tag_133\n      jump\t// in\n    tag_132:\n        /* \"hardhat/contracts/VersatilToken.sol\":2828:2895  priceX96 = uint256(sqrtPriceX96) * uint256(sqrtPriceX96) / (2**192) */\n      swap1\n      pop\n        /* \"hardhat/contracts/VersatilToken.sol\":3044:3050  10**18 */\n      0x0de0b6b3a7640000\n        /* \"hardhat/contracts/VersatilToken.sol\":3032:3040  priceX96 */\n      dup2\n        /* \"hardhat/contracts/VersatilToken.sol\":3016:3029  token1Balance */\n      dup7\n        /* \"hardhat/contracts/VersatilToken.sol\":3016:3040  token1Balance * priceX96 */\n      tag_134\n      swap2\n      swap1\n      tag_131\n      jump\t// in\n    tag_134:\n        /* \"hardhat/contracts/VersatilToken.sol\":3016:3051  token1Balance * priceX96 / (10**18) */\n      tag_135\n      swap2\n      swap1\n      tag_133\n      jump\t// in\n    tag_135:\n        /* \"hardhat/contracts/VersatilToken.sol\":3009:3051  return token1Balance * priceX96 / (10**18) */\n      swap6\n      pop\n      pop\n      pop\n      pop\n      pop\n      pop\n      jump(tag_111)\n        /* \"hardhat/contracts/VersatilToken.sol\":2725:3377  if (token0 == TOKEN1 && token1 == TOKEN0) {... */\n    tag_129:\n        /* \"hardhat/contracts/VersatilToken.sol\":3082:3088  TOKEN0 */\n      immutable(\"0xd6a6ef89368ff1a2b8692ca514a2b91ca903bdef4de73d135978769728b3bf57\")\n        /* \"hardhat/contracts/VersatilToken.sol\":3072:3088  token0 == TOKEN0 */\n      0xffffffffffffffffffffffffffffffffffffffff\n      and\n        /* \"hardhat/contracts/VersatilToken.sol\":3072:3078  token0 */\n      dup4\n        /* \"hardhat/contracts/VersatilToken.sol\":3072:3088  token0 == TOKEN0 */\n      0xffffffffffffffffffffffffffffffffffffffff\n      and\n      eq\n        /* \"hardhat/contracts/VersatilToken.sol\":3072:3108  token0 == TOKEN0 && token1 == TOKEN1 */\n      dup1\n      iszero\n      tag_137\n      jumpi\n      pop\n        /* \"hardhat/contracts/VersatilToken.sol\":3102:3108  TOKEN1 */\n      immutable(\"0x84b3f9c1584778fd0609bd44bae524185bcc8a7d9057a78c14d22945c29b7555\")\n        /* \"hardhat/contracts/VersatilToken.sol\":3092:3108  token1 == TOKEN1 */\n      0xffffffffffffffffffffffffffffffffffffffff\n      and\n        /* \"hardhat/contracts/VersatilToken.sol\":3092:3098  token1 */\n      dup3\n        /* \"hardhat/contracts/VersatilToken.sol\":3092:3108  token1 == TOKEN1 */\n      0xffffffffffffffffffffffffffffffffffffffff\n      and\n      eq\n        /* \"hardhat/contracts/VersatilToken.sol\":3072:3108  token0 == TOKEN0 && token1 == TOKEN1 */\n    tag_137:\n        /* \"hardhat/contracts/VersatilToken.sol\":3068:3377  if (token0 == TOKEN0 && token1 == TOKEN1) {... */\n      iszero\n      tag_138\n      jumpi\n        /* \"hardhat/contracts/VersatilToken.sol\":3228:3240  sqrtPriceX96 */\n      dup4\n        /* \"hardhat/contracts/VersatilToken.sol\":3220:3241  uint256(sqrtPriceX96) */\n      0xffffffffffffffffffffffffffffffffffffffff\n      and\n        /* \"hardhat/contracts/VersatilToken.sol\":3204:3216  sqrtPriceX96 */\n      dup5\n        /* \"hardhat/contracts/VersatilToken.sol\":3196:3217  uint256(sqrtPriceX96) */\n      0xffffffffffffffffffffffffffffffffffffffff\n      and\n        /* \"hardhat/contracts/VersatilToken.sol\":3196:3241  uint256(sqrtPriceX96) * uint256(sqrtPriceX96) */\n      tag_139\n      swap2\n      swap1\n      tag_131\n      jump\t// in\n    tag_139:\n        /* \"hardhat/contracts/VersatilToken.sol\":3185:3191  2**192 */\n      0x01000000000000000000000000000000000000000000000000\n        /* \"hardhat/contracts/VersatilToken.sol\":3184:3242  (2**192) / (uint256(sqrtPriceX96) * uint256(sqrtPriceX96)) */\n      tag_140\n      swap2\n      swap1\n      tag_133\n      jump\t// in\n    tag_140:\n        /* \"hardhat/contracts/VersatilToken.sol\":3173:3242  priceX96 = (2**192) / (uint256(sqrtPriceX96) * uint256(sqrtPriceX96)) */\n      swap1\n      pop\n        /* \"hardhat/contracts/VersatilToken.sol\":3320:3326  10**18 */\n      0x0de0b6b3a7640000\n        /* \"hardhat/contracts/VersatilToken.sol\":3308:3316  priceX96 */\n      dup2\n        /* \"hardhat/contracts/VersatilToken.sol\":3292:3305  token1Balance */\n      dup7\n        /* \"hardhat/contracts/VersatilToken.sol\":3292:3316  token1Balance * priceX96 */\n      tag_141\n      swap2\n      swap1\n      tag_131\n      jump\t// in\n    tag_141:\n        /* \"hardhat/contracts/VersatilToken.sol\":3292:3327  token1Balance * priceX96 / (10**18) */\n      tag_142\n      swap2\n      swap1\n      tag_133\n      jump\t// in\n    tag_142:\n        /* \"hardhat/contracts/VersatilToken.sol\":3285:3327  return token1Balance * priceX96 / (10**18) */\n      swap6\n      pop\n      pop\n      pop\n      pop\n      pop\n      pop\n      jump(tag_111)\n        /* \"hardhat/contracts/VersatilToken.sol\":3068:3377  if (token0 == TOKEN0 && token1 == TOKEN1) {... */\n    tag_138:\n        /* \"hardhat/contracts/VersatilToken.sol\":3365:3366  0 */\n      0x00\n        /* \"hardhat/contracts/VersatilToken.sol\":3358:3366  return 0 */\n      swap6\n      pop\n      pop\n      pop\n      pop\n      pop\n      pop\n        /* \"hardhat/contracts/VersatilToken.sol\":2175:3383  function balanceOf(address account) public view override returns (uint256) {... */\n    tag_111:\n      swap2\n      swap1\n      pop\n      jump\t// out\n        /* \"hardhat/contracts/VersatilToken.sol\":1848:1942  function symbol() public view override returns (string memory) {... */\n    tag_59:\n        /* \"hardhat/contracts/VersatilToken.sol\":1896:1909  string memory */\n      0x60\n        /* \"hardhat/contracts/VersatilToken.sol\":1928:1935  _symbol */\n      0x01\n        /* \"hardhat/contracts/VersatilToken.sol\":1921:1935  return _symbol */\n      dup1\n      sload\n      tag_145\n      swap1\n      tag_79\n      jump\t// in\n    tag_145:\n      dup1\n      0x1f\n      add\n      0x20\n      dup1\n      swap2\n      div\n      mul\n      0x20\n      add\n      mload(0x40)\n      swap1\n      dup2\n      add\n      0x40\n      mstore\n      dup1\n      swap3\n      swap2\n      swap1\n      dup2\n      dup2\n      mstore\n      0x20\n      add\n      dup3\n      dup1\n      sload\n      tag_146\n      swap1\n      tag_79\n      jump\t// in\n    tag_146:\n      dup1\n      iszero\n      tag_147\n      jumpi\n      dup1\n      0x1f\n      lt\n      tag_148\n      jumpi\n      0x0100\n      dup1\n      dup4\n      sload\n      div\n      mul\n      dup4\n      mstore\n      swap2\n      0x20\n      add\n      swap2\n      jump(tag_147)\n    tag_148:\n      dup3\n      add\n      swap2\n      swap1\n      0x00\n      mstore\n      keccak256(0x00, 0x20)\n      swap1\n    tag_149:\n      dup2\n      sload\n      dup2\n      mstore\n      swap1\n      0x01\n      add\n      swap1\n      0x20\n      add\n      dup1\n      dup4\n      gt\n      tag_149\n      jumpi\n      dup3\n      swap1\n      sub\n      0x1f\n      and\n      dup3\n      add\n      swap2\n    tag_147:\n      pop\n      pop\n      pop\n      pop\n      pop\n      swap1\n      pop\n        /* \"hardhat/contracts/VersatilToken.sol\":1848:1942  function symbol() public view override returns (string memory) {... */\n      swap1\n      jump\t// out\n        /* \"hardhat/contracts/VersatilToken.sol\":3441:3868  function transfer(address recipient, uint256 amount) public override returns (bool) {... */\n    tag_63:\n        /* \"hardhat/contracts/VersatilToken.sol\":3519:3523  bool */\n      0x00\n        /* \"hardhat/contracts/VersatilToken.sol\":3535:3549  address sender */\n      dup1\n        /* \"hardhat/contracts/VersatilToken.sol\":3552:3564  _msgSender() */\n      tag_151\n        /* \"hardhat/contracts/VersatilToken.sol\":3552:3562  _msgSender */\n      tag_86\n        /* \"hardhat/contracts/VersatilToken.sol\":3552:3564  _msgSender() */\n      jump\t// in\n    tag_151:\n        /* \"hardhat/contracts/VersatilToken.sol\":3535:3564  address sender = _msgSender() */\n      swap1\n      pop\n        /* \"hardhat/contracts/VersatilToken.sol\":3618:3624  amount */\n      dup3\n        /* \"hardhat/contracts/VersatilToken.sol\":3589:3595  TOKEN1 */\n      immutable(\"0x84b3f9c1584778fd0609bd44bae524185bcc8a7d9057a78c14d22945c29b7555\")\n        /* \"hardhat/contracts/VersatilToken.sol\":3582:3606  IERC20(TOKEN1).balanceOf */\n      0xffffffffffffffffffffffffffffffffffffffff\n      and\n      0x70a08231\n        /* \"hardhat/contracts/VersatilToken.sol\":3607:3613  sender */\n      dup4\n        /* \"hardhat/contracts/VersatilToken.sol\":3582:3614  IERC20(TOKEN1).balanceOf(sender) */\n      mload(0x40)\n      dup3\n      0xffffffff\n      and\n      0xe0\n      shl\n      dup2\n      mstore\n      0x04\n      add\n      tag_152\n      swap2\n      swap1\n      tag_37\n      jump\t// in\n    tag_152:\n      0x20\n      mload(0x40)\n      dup1\n      dup4\n      sub\n      dup2\n      dup7\n      gas\n      staticcall\n      iszero\n      dup1\n      iszero\n      tag_154\n      jumpi\n      returndatasize\n      0x00\n      dup1\n      returndatacopy\n      revert(0x00, returndatasize)\n    tag_154:\n      pop\n      pop\n      pop\n      pop\n      mload(0x40)\n      returndatasize\n      not(0x1f)\n      0x1f\n      dup3\n      add\n      and\n      dup3\n      add\n      dup1\n      0x40\n      mstore\n      pop\n      dup2\n      add\n      swap1\n      tag_155\n      swap2\n      swap1\n      tag_94\n      jump\t// in\n    tag_155:\n        /* \"hardhat/contracts/VersatilToken.sol\":3582:3624  IERC20(TOKEN1).balanceOf(sender) >= amount */\n      lt\n      iszero\n        /* \"hardhat/contracts/VersatilToken.sol\":3574:3649  require(IERC20(TOKEN1).balanceOf(sender) >= amount, \"Insufficient balance\") */\n      tag_156\n      jumpi\n      mload(0x40)\n      0x08c379a000000000000000000000000000000000000000000000000000000000\n      dup2\n      mstore\n      0x04\n      add\n      tag_157\n      swap1\n      tag_97\n      jump\t// in\n    tag_157:\n      mload(0x40)\n      dup1\n      swap2\n      sub\n      swap1\n      revert\n    tag_156:\n        /* \"hardhat/contracts/VersatilToken.sol\":3674:3680  TOKEN1 */\n      immutable(\"0x84b3f9c1584778fd0609bd44bae524185bcc8a7d9057a78c14d22945c29b7555\")\n        /* \"hardhat/contracts/VersatilToken.sol\":3667:3694  IERC20(TOKEN1).transferFrom */\n      0xffffffffffffffffffffffffffffffffffffffff\n      and\n      0x23b872dd\n        /* \"hardhat/contracts/VersatilToken.sol\":3695:3701  sender */\n      dup3\n        /* \"hardhat/contracts/VersatilToken.sol\":3711:3715  this */\n      address\n        /* \"hardhat/contracts/VersatilToken.sol\":3718:3724  amount */\n      dup7\n        /* \"hardhat/contracts/VersatilToken.sol\":3667:3725  IERC20(TOKEN1).transferFrom(sender, address(this), amount) */\n      mload(0x40)\n      dup5\n      0xffffffff\n      and\n      0xe0\n      shl\n      dup2\n      mstore\n      0x04\n      add\n      tag_158\n      swap4\n      swap3\n      swap2\n      swap1\n      tag_99\n      jump\t// in\n    tag_158:\n      0x20\n      mload(0x40)\n      dup1\n      dup4\n      sub\n      dup2\n      0x00\n      dup8\n      gas\n      call\n      iszero\n      dup1\n      iszero\n      tag_160\n      jumpi\n      returndatasize\n      0x00\n      dup1\n      returndatacopy\n      revert(0x00, returndatasize)\n    tag_160:\n      pop\n      pop\n      pop\n      pop\n      mload(0x40)\n      returndatasize\n      not(0x1f)\n      0x1f\n      dup3\n      add\n      and\n      dup3\n      add\n      dup1\n      0x40\n      mstore\n      pop\n      dup2\n      add\n      swap1\n      tag_161\n      swap2\n      swap1\n      tag_103\n      jump\t// in\n    tag_161:\n        /* \"hardhat/contracts/VersatilToken.sol\":3659:3745  require(IERC20(TOKEN1).transferFrom(sender, address(this), amount), \"transfer failed\") */\n      tag_162\n      jumpi\n      mload(0x40)\n      0x08c379a000000000000000000000000000000000000000000000000000000000\n      dup2\n      mstore\n      0x04\n      add\n      tag_163\n      swap1\n      tag_106\n      jump\t// in\n    tag_163:\n      mload(0x40)\n      dup1\n      swap2\n      sub\n      swap1\n      revert\n    tag_162:\n        /* \"hardhat/contracts/VersatilToken.sol\":3755:3790  _swapExactOutput(recipient, amount) */\n      tag_164\n        /* \"hardhat/contracts/VersatilToken.sol\":3772:3781  recipient */\n      dup5\n        /* \"hardhat/contracts/VersatilToken.sol\":3783:3789  amount */\n      dup5\n        /* \"hardhat/contracts/VersatilToken.sol\":3755:3771  _swapExactOutput */\n      tag_108\n        /* \"hardhat/contracts/VersatilToken.sol\":3755:3790  _swapExactOutput(recipient, amount) */\n      jump\t// in\n    tag_164:\n        /* \"hardhat/contracts/VersatilToken.sol\":3822:3831  recipient */\n      dup4\n        /* \"hardhat/contracts/VersatilToken.sol\":3805:3840  Transfer(sender, recipient, amount) */\n      0xffffffffffffffffffffffffffffffffffffffff\n      and\n        /* \"hardhat/contracts/VersatilToken.sol\":3814:3820  sender */\n      dup2\n        /* \"hardhat/contracts/VersatilToken.sol\":3805:3840  Transfer(sender, recipient, amount) */\n      0xffffffffffffffffffffffffffffffffffffffff\n      and\n      0xddf252ad1be2c89b69c2b068fc378daa952ba7f163c4a11628f55a4df523b3ef\n        /* \"hardhat/contracts/VersatilToken.sol\":3833:3839  amount */\n      dup6\n        /* \"hardhat/contracts/VersatilToken.sol\":3805:3840  Transfer(sender, recipient, amount) */\n      mload(0x40)\n      tag_165\n      swap2\n      swap1\n      tag_33\n      jump\t// in\n    tag_165:\n      mload(0x40)\n      dup1\n      swap2\n      sub\n      swap1\n      log3\n        /* \"hardhat/contracts/VersatilToken.sol\":3857:3861  true */\n      0x01\n        /* \"hardhat/contracts/VersatilToken.sol\":3850:3861  return true */\n      swap2\n      pop\n      pop\n        /* \"hardhat/contracts/VersatilToken.sol\":3441:3868  function transfer(address recipient, uint256 amount) public override returns (bool) {... */\n      swap3\n      swap2\n      pop\n      pop\n      jump\t// out\n        /* \"hardhat/contracts/VersatilToken.sol\":1273:1306  uint24 public constant FEE = 3000 */\n    tag_66:\n        /* \"hardhat/contracts/VersatilToken.sol\":1302:1306  3000 */\n      0x0bb8\n        /* \"hardhat/contracts/VersatilToken.sol\":1273:1306  uint24 public constant FEE = 3000 */\n      dup2\n      jump\t// out\n        /* \"hardhat/contracts/VersatilToken.sol\":1185:1224  address public immutable UNISWAP_ROUTER */\n    tag_70:\n      immutable(\"0xe5dc5b472d77ffeb68b1bb241b2a30a23da4805b6fe423e8c4bcb52699f7038d\")\n      dup2\n      jump\t// out\n        /* \"hardhat/contracts/VersatilToken.sol\":3874:4015  function allowance(address owner, address spender) public view override returns (uint256) {... */\n    tag_75:\n        /* \"hardhat/contracts/VersatilToken.sol\":3955:3962  uint256 */\n      0x00\n        /* \"hardhat/contracts/VersatilToken.sol\":3981:3992  _allowances */\n      0x03\n        /* \"hardhat/contracts/VersatilToken.sol\":3981:3999  _allowances[owner] */\n      0x00\n        /* \"hardhat/contracts/VersatilToken.sol\":3993:3998  owner */\n      dup5\n        /* \"hardhat/contracts/VersatilToken.sol\":3981:3999  _allowances[owner] */\n      0xffffffffffffffffffffffffffffffffffffffff\n      and\n      0xffffffffffffffffffffffffffffffffffffffff\n      and\n      dup2\n      mstore\n      0x20\n      add\n      swap1\n      dup2\n      mstore\n      0x20\n      add\n      0x00\n      keccak256\n        /* \"hardhat/contracts/VersatilToken.sol\":3981:4008  _allowances[owner][spender] */\n      0x00\n        /* \"hardhat/contracts/VersatilToken.sol\":4000:4007  spender */\n      dup4\n        /* \"hardhat/contracts/VersatilToken.sol\":3981:4008  _allowances[owner][spender] */\n      0xffffffffffffffffffffffffffffffffffffffff\n      and\n      0xffffffffffffffffffffffffffffffffffffffff\n      and\n      dup2\n      mstore\n      0x20\n      add\n      swap1\n      dup2\n      mstore\n      0x20\n      add\n      0x00\n      keccak256\n      sload\n        /* \"hardhat/contracts/VersatilToken.sol\":3974:4008  return _allowances[owner][spender] */\n      swap1\n      pop\n        /* \"hardhat/contracts/VersatilToken.sol\":3874:4015  function allowance(address owner, address spender) public view override returns (uint256) {... */\n      swap3\n      swap2\n      pop\n      pop\n      jump\t// out\n        /* \"@openzeppelin/contracts/utils/Context.sol\":656:752  function _msgSender() internal view virtual returns (address) {... */\n    tag_86:\n        /* \"@openzeppelin/contracts/utils/Context.sol\":709:716  address */\n      0x00\n        /* \"@openzeppelin/contracts/utils/Context.sol\":735:745  msg.sender */\n      caller\n        /* \"@openzeppelin/contracts/utils/Context.sol\":728:745  return msg.sender */\n      swap1\n      pop\n        /* \"@openzeppelin/contracts/utils/Context.sol\":656:752  function _msgSender() internal view virtual returns (address) {... */\n      swap1\n      jump\t// out\n        /* \"hardhat/contracts/VersatilToken.sol\":4920:5440  function _swapExactOutput(address to, uint256 amount) internal {... */\n    tag_108:\n        /* \"hardhat/contracts/VersatilToken.sol\":5000:5006  TOKEN1 */\n      immutable(\"0x84b3f9c1584778fd0609bd44bae524185bcc8a7d9057a78c14d22945c29b7555\")\n        /* \"hardhat/contracts/VersatilToken.sol\":4993:5015  IERC20(TOKEN1).approve */\n      0xffffffffffffffffffffffffffffffffffffffff\n      and\n      0x095ea7b3\n        /* \"hardhat/contracts/VersatilToken.sol\":5016:5030  UNISWAP_ROUTER */\n      immutable(\"0xe5dc5b472d77ffeb68b1bb241b2a30a23da4805b6fe423e8c4bcb52699f7038d\")\n        /* \"hardhat/contracts/VersatilToken.sol\":5032:5038  amount */\n      dup4\n        /* \"hardhat/contracts/VersatilToken.sol\":4993:5039  IERC20(TOKEN1).approve(UNISWAP_ROUTER, amount) */\n      mload(0x40)\n      dup4\n      0xffffffff\n      and\n      0xe0\n      shl\n      dup2\n      mstore\n      0x04\n      add\n      tag_169\n      swap3\n      swap2\n      swap1\n      tag_170\n      jump\t// in\n    tag_169:\n      0x20\n      mload(0x40)\n      dup1\n      dup4\n      sub\n      dup2\n      0x00\n      dup8\n      gas\n      call\n      iszero\n      dup1\n      iszero\n      tag_172\n      jumpi\n      returndatasize\n      0x00\n      dup1\n      returndatacopy\n      revert(0x00, returndatasize)\n    tag_172:\n      pop\n      pop\n      pop\n      pop\n      mload(0x40)\n      returndatasize\n      not(0x1f)\n      0x1f\n      dup3\n      add\n      and\n      dup3\n      add\n      dup1\n      0x40\n      mstore\n      pop\n      dup2\n      add\n      swap1\n      tag_173\n      swap2\n      swap1\n      tag_103\n      jump\t// in\n    tag_173:\n      pop\n        /* \"hardhat/contracts/VersatilToken.sol\":5049:5085  ExactInputSingleParams memory params */\n      0x00\n        /* \"hardhat/contracts/VersatilToken.sol\":5088:5366  ExactInputSingleParams({... */\n      mload(0x40)\n      dup1\n      0x0100\n      add\n      0x40\n      mstore\n      dup1\n        /* \"hardhat/contracts/VersatilToken.sol\":5134:5140  TOKEN1 */\n      immutable(\"0x84b3f9c1584778fd0609bd44bae524185bcc8a7d9057a78c14d22945c29b7555\")\n        /* \"hardhat/contracts/VersatilToken.sol\":5088:5366  ExactInputSingleParams({... */\n      0xffffffffffffffffffffffffffffffffffffffff\n      and\n      dup2\n      mstore\n      0x20\n      add\n        /* \"hardhat/contracts/VersatilToken.sol\":5164:5170  TOKEN0 */\n      immutable(\"0xd6a6ef89368ff1a2b8692ca514a2b91ca903bdef4de73d135978769728b3bf57\")\n        /* \"hardhat/contracts/VersatilToken.sol\":5088:5366  ExactInputSingleParams({... */\n      0xffffffffffffffffffffffffffffffffffffffff\n      and\n      dup2\n      mstore\n      0x20\n      add\n        /* \"hardhat/contracts/VersatilToken.sol\":1302:1306  3000 */\n      0x0bb8\n        /* \"hardhat/contracts/VersatilToken.sol\":5088:5366  ExactInputSingleParams({... */\n      0xffffff\n      and\n      dup2\n      mstore\n      0x20\n      add\n        /* \"hardhat/contracts/VersatilToken.sol\":5217:5219  to */\n      dup5\n        /* \"hardhat/contracts/VersatilToken.sol\":5088:5366  ExactInputSingleParams({... */\n      0xffffffffffffffffffffffffffffffffffffffff\n      and\n      dup2\n      mstore\n      0x20\n      add\n        /* \"hardhat/contracts/VersatilToken.sol\":5243:5258  block.timestamp */\n      timestamp\n        /* \"hardhat/contracts/VersatilToken.sol\":5088:5366  ExactInputSingleParams({... */\n      dup2\n      mstore\n      0x20\n      add\n        /* \"hardhat/contracts/VersatilToken.sol\":5282:5288  amount */\n      dup4\n        /* \"hardhat/contracts/VersatilToken.sol\":5088:5366  ExactInputSingleParams({... */\n      dup2\n      mstore\n      0x20\n      add\n        /* \"hardhat/contracts/VersatilToken.sol\":5320:5321  0 */\n      0x00\n        /* \"hardhat/contracts/VersatilToken.sol\":5088:5366  ExactInputSingleParams({... */\n      dup2\n      mstore\n      0x20\n      add\n        /* \"hardhat/contracts/VersatilToken.sol\":5354:5355  0 */\n      0x00\n        /* \"hardhat/contracts/VersatilToken.sol\":5088:5366  ExactInputSingleParams({... */\n      0xffffffffffffffffffffffffffffffffffffffff\n      and\n      dup2\n      mstore\n      pop\n        /* \"hardhat/contracts/VersatilToken.sol\":5049:5366  ExactInputSingleParams memory params = ExactInputSingleParams({... */\n      swap1\n      pop\n        /* \"hardhat/contracts/VersatilToken.sol\":5393:5407  UNISWAP_ROUTER */\n      immutable(\"0xe5dc5b472d77ffeb68b1bb241b2a30a23da4805b6fe423e8c4bcb52699f7038d\")\n        /* \"hardhat/contracts/VersatilToken.sol\":5376:5425  IUniswapV3Router(UNISWAP_ROUTER).exactInputSingle */\n      0xffffffffffffffffffffffffffffffffffffffff\n      and\n      0x414bf389\n        /* \"hardhat/contracts/VersatilToken.sol\":5426:5432  params */\n      dup3\n        /* \"hardhat/contracts/VersatilToken.sol\":5376:5433  IUniswapV3Router(UNISWAP_ROUTER).exactInputSingle(params) */\n      mload(0x40)\n      dup3\n      0xffffffff\n      and\n      0xe0\n      shl\n      dup2\n      mstore\n      0x04\n      add\n      tag_174\n      swap2\n      swap1\n      tag_175\n      jump\t// in\n    tag_174:\n      0x20\n      mload(0x40)\n      dup1\n      dup4\n      sub\n      dup2\n      0x00\n      dup8\n      gas\n      call\n      iszero\n      dup1\n      iszero\n      tag_177\n      jumpi\n      returndatasize\n      0x00\n      dup1\n      returndatacopy\n      revert(0x00, returndatasize)\n    tag_177:\n      pop\n      pop\n      pop\n      pop\n      mload(0x40)\n      returndatasize\n      not(0x1f)\n      0x1f\n      dup3\n      add\n      and\n      dup3\n      add\n      dup1\n      0x40\n      mstore\n      pop\n      dup2\n      add\n      swap1\n      tag_178\n      swap2\n      swap1\n      tag_94\n      jump\t// in\n    tag_178:\n      pop\n        /* \"hardhat/contracts/VersatilToken.sol\":4983:5440  {... */\n      pop\n        /* \"hardhat/contracts/VersatilToken.sol\":4920:5440  function _swapExactOutput(address to, uint256 amount) internal {... */\n      pop\n      pop\n      jump\t// out\n        /* \"#utility.yul\":7:106   */\n    tag_179:\n        /* \"#utility.yul\":59:65   */\n      0x00\n        /* \"#utility.yul\":93:98   */\n      dup2\n        /* \"#utility.yul\":87:99   */\n      mload\n        /* \"#utility.yul\":77:99   */\n      swap1\n      pop\n        /* \"#utility.yul\":7:106   */\n      swap2\n      swap1\n      pop\n      jump\t// out\n        /* \"#utility.yul\":112:281   */\n    tag_180:\n        /* \"#utility.yul\":196:207   */\n      0x00\n        /* \"#utility.yul\":230:236   */\n      dup3\n        /* \"#utility.yul\":225:228   */\n      dup3\n        /* \"#utility.yul\":218:237   */\n      mstore\n        /* \"#utility.yul\":270:274   */\n      0x20\n        /* \"#utility.yul\":265:268   */\n      dup3\n        /* \"#utility.yul\":261:275   */\n      add\n        /* \"#utility.yul\":246:275   */\n      swap1\n      pop\n        /* \"#utility.yul\":112:281   */\n      swap3\n      swap2\n      pop\n      pop\n      jump\t// out\n        /* \"#utility.yul\":287:533   */\n    tag_181:\n        /* \"#utility.yul\":368:369   */\n      0x00\n        /* \"#utility.yul\":378:491   */\n    tag_232:\n        /* \"#utility.yul\":392:398   */\n      dup4\n        /* \"#utility.yul\":389:390   */\n      dup2\n        /* \"#utility.yul\":386:399   */\n      lt\n        /* \"#utility.yul\":378:491   */\n      iszero\n      tag_234\n      jumpi\n        /* \"#utility.yul\":477:478   */\n      dup1\n        /* \"#utility.yul\":472:475   */\n      dup3\n        /* \"#utility.yul\":468:479   */\n      add\n        /* \"#utility.yul\":462:480   */\n      mload\n        /* \"#utility.yul\":458:459   */\n      dup2\n        /* \"#utility.yul\":453:456   */\n      dup5\n        /* \"#utility.yul\":449:460   */\n      add\n        /* \"#utility.yul\":442:481   */\n      mstore\n        /* \"#utility.yul\":414:416   */\n      0x20\n        /* \"#utility.yul\":411:412   */\n      dup2\n        /* \"#utility.yul\":407:417   */\n      add\n        /* \"#utility.yul\":402:417   */\n      swap1\n      pop\n        /* \"#utility.yul\":378:491   */\n      jump(tag_232)\n    tag_234:\n        /* \"#utility.yul\":525:526   */\n      0x00\n        /* \"#utility.yul\":516:522   */\n      dup5\n        /* \"#utility.yul\":511:514   */\n      dup5\n        /* \"#utility.yul\":507:523   */\n      add\n        /* \"#utility.yul\":500:527   */\n      mstore\n        /* \"#utility.yul\":349:533   */\n      pop\n        /* \"#utility.yul\":287:533   */\n      pop\n      pop\n      pop\n      jump\t// out\n        /* \"#utility.yul\":539:641   */\n    tag_182:\n        /* \"#utility.yul\":580:586   */\n      0x00\n        /* \"#utility.yul\":631:633   */\n      0x1f\n        /* \"#utility.yul\":627:634   */\n      not\n        /* \"#utility.yul\":622:624   */\n      0x1f\n        /* \"#utility.yul\":615:620   */\n      dup4\n        /* \"#utility.yul\":611:625   */\n      add\n        /* \"#utility.yul\":607:635   */\n      and\n        /* \"#utility.yul\":597:635   */\n      swap1\n      pop\n        /* \"#utility.yul\":539:641   */\n      swap2\n      swap1\n      pop\n      jump\t// out\n        /* \"#utility.yul\":647:1024   */\n    tag_183:\n        /* \"#utility.yul\":735:738   */\n      0x00\n        /* \"#utility.yul\":763:802   */\n      tag_237\n        /* \"#utility.yul\":796:801   */\n      dup3\n        /* \"#utility.yul\":763:802   */\n      tag_179\n      jump\t// in\n    tag_237:\n        /* \"#utility.yul\":818:889   */\n      tag_238\n        /* \"#utility.yul\":882:888   */\n      dup2\n        /* \"#utility.yul\":877:880   */\n      dup6\n        /* \"#utility.yul\":818:889   */\n      tag_180\n      jump\t// in\n    tag_238:\n        /* \"#utility.yul\":811:889   */\n      swap4\n      pop\n        /* \"#utility.yul\":898:963   */\n      tag_239\n        /* \"#utility.yul\":956:962   */\n      dup2\n        /* \"#utility.yul\":951:954   */\n      dup6\n        /* \"#utility.yul\":944:948   */\n      0x20\n        /* \"#utility.yul\":937:942   */\n      dup7\n        /* \"#utility.yul\":933:949   */\n      add\n        /* \"#utility.yul\":898:963   */\n      tag_181\n      jump\t// in\n    tag_239:\n        /* \"#utility.yul\":988:1017   */\n      tag_240\n        /* \"#utility.yul\":1010:1016   */\n      dup2\n        /* \"#utility.yul\":988:1017   */\n      tag_182\n      jump\t// in\n    tag_240:\n        /* \"#utility.yul\":983:986   */\n      dup5\n        /* \"#utility.yul\":979:1018   */\n      add\n        /* \"#utility.yul\":972:1018   */\n      swap2\n      pop\n        /* \"#utility.yul\":739:1024   */\n      pop\n        /* \"#utility.yul\":647:1024   */\n      swap3\n      swap2\n      pop\n      pop\n      jump\t// out\n        /* \"#utility.yul\":1030:1343   */\n    tag_23:\n        /* \"#utility.yul\":1143:1147   */\n      0x00\n        /* \"#utility.yul\":1181:1183   */\n      0x20\n        /* \"#utility.yul\":1170:1179   */\n      dup3\n        /* \"#utility.yul\":1166:1184   */\n      add\n        /* \"#utility.yul\":1158:1184   */\n      swap1\n      pop\n        /* \"#utility.yul\":1230:1239   */\n      dup2\n        /* \"#utility.yul\":1224:1228   */\n      dup2\n        /* \"#utility.yul\":1220:1240   */\n      sub\n        /* \"#utility.yul\":1216:1217   */\n      0x00\n        /* \"#utility.yul\":1205:1214   */\n      dup4\n        /* \"#utility.yul\":1201:1218   */\n      add\n        /* \"#utility.yul\":1194:1241   */\n      mstore\n        /* \"#utility.yul\":1258:1336   */\n      tag_242\n        /* \"#utility.yul\":1331:1335   */\n      dup2\n        /* \"#utility.yul\":1322:1328   */\n      dup5\n        /* \"#utility.yul\":1258:1336   */\n      tag_183\n      jump\t// in\n    tag_242:\n        /* \"#utility.yul\":1250:1336   */\n      swap1\n      pop\n        /* \"#utility.yul\":1030:1343   */\n      swap3\n      swap2\n      pop\n      pop\n      jump\t// out\n        /* \"#utility.yul\":1430:1547   */\n    tag_185:\n        /* \"#utility.yul\":1539:1540   */\n      0x00\n        /* \"#utility.yul\":1536:1537   */\n      dup1\n        /* \"#utility.yul\":1529:1541   */\n      revert\n        /* \"#utility.yul\":1676:1802   */\n    tag_187:\n        /* \"#utility.yul\":1713:1720   */\n      0x00\n        /* \"#utility.yul\":1753:1795   */\n      0xffffffffffffffffffffffffffffffffffffffff\n        /* \"#utility.yul\":1746:1751   */\n      dup3\n        /* \"#utility.yul\":1742:1796   */\n      and\n        /* \"#utility.yul\":1731:1796   */\n      swap1\n      pop\n        /* \"#utility.yul\":1676:1802   */\n      swap2\n      swap1\n      pop\n      jump\t// out\n        /* \"#utility.yul\":1808:1904   */\n    tag_188:\n        /* \"#utility.yul\":1845:1852   */\n      0x00\n        /* \"#utility.yul\":1874:1898   */\n      tag_248\n        /* \"#utility.yul\":1892:1897   */\n      dup3\n        /* \"#utility.yul\":1874:1898   */\n      tag_187\n      jump\t// in\n    tag_248:\n        /* \"#utility.yul\":1863:1898   */\n      swap1\n      pop\n        /* \"#utility.yul\":1808:1904   */\n      swap2\n      swap1\n      pop\n      jump\t// out\n        /* \"#utility.yul\":1910:2032   */\n    tag_189:\n        /* \"#utility.yul\":1983:2007   */\n      tag_250\n        /* \"#utility.yul\":2001:2006   */\n      dup2\n        /* \"#utility.yul\":1983:2007   */\n      tag_188\n      jump\t// in\n    tag_250:\n        /* \"#utility.yul\":1976:1981   */\n      dup2\n        /* \"#utility.yul\":1973:2008   */\n      eq\n        /* \"#utility.yul\":1963:2026   */\n      tag_251\n      jumpi\n        /* \"#utility.yul\":2022:2023   */\n      0x00\n        /* \"#utility.yul\":2019:2020   */\n      dup1\n        /* \"#utility.yul\":2012:2024   */\n      revert\n        /* \"#utility.yul\":1963:2026   */\n    tag_251:\n        /* \"#utility.yul\":1910:2032   */\n      pop\n      jump\t// out\n        /* \"#utility.yul\":2038:2177   */\n    tag_190:\n        /* \"#utility.yul\":2084:2089   */\n      0x00\n        /* \"#utility.yul\":2122:2128   */\n      dup2\n        /* \"#utility.yul\":2109:2129   */\n      calldataload\n        /* \"#utility.yul\":2100:2129   */\n      swap1\n      pop\n        /* \"#utility.yul\":2138:2171   */\n      tag_253\n        /* \"#utility.yul\":2165:2170   */\n      dup2\n        /* \"#utility.yul\":2138:2171   */\n      tag_189\n      jump\t// in\n    tag_253:\n        /* \"#utility.yul\":2038:2177   */\n      swap3\n      swap2\n      pop\n      pop\n      jump\t// out\n        /* \"#utility.yul\":2183:2260   */\n    tag_191:\n        /* \"#utility.yul\":2220:2227   */\n      0x00\n        /* \"#utility.yul\":2249:2254   */\n      dup2\n        /* \"#utility.yul\":2238:2254   */\n      swap1\n      pop\n        /* \"#utility.yul\":2183:2260   */\n      swap2\n      swap1\n      pop\n      jump\t// out\n        /* \"#utility.yul\":2266:2388   */\n    tag_192:\n        /* \"#utility.yul\":2339:2363   */\n      tag_256\n        /* \"#utility.yul\":2357:2362   */\n      dup2\n        /* \"#utility.yul\":2339:2363   */\n      tag_191\n      jump\t// in\n    tag_256:\n        /* \"#utility.yul\":2332:2337   */\n      dup2\n        /* \"#utility.yul\":2329:2364   */\n      eq\n        /* \"#utility.yul\":2319:2382   */\n      tag_257\n      jumpi\n        /* \"#utility.yul\":2378:2379   */\n      0x00\n        /* \"#utility.yul\":2375:2376   */\n      dup1\n        /* \"#utility.yul\":2368:2380   */\n      revert\n        /* \"#utility.yul\":2319:2382   */\n    tag_257:\n        /* \"#utility.yul\":2266:2388   */\n      pop\n      jump\t// out\n        /* \"#utility.yul\":2394:2533   */\n    tag_193:\n        /* \"#utility.yul\":2440:2445   */\n      0x00\n        /* \"#utility.yul\":2478:2484   */\n      dup2\n        /* \"#utility.yul\":2465:2485   */\n      calldataload\n        /* \"#utility.yul\":2456:2485   */\n      swap1\n      pop\n        /* \"#utility.yul\":2494:2527   */\n      tag_259\n        /* \"#utility.yul\":2521:2526   */\n      dup2\n        /* \"#utility.yul\":2494:2527   */\n      tag_192\n      jump\t// in\n    tag_259:\n        /* \"#utility.yul\":2394:2533   */\n      swap3\n      swap2\n      pop\n      pop\n      jump\t// out\n        /* \"#utility.yul\":2539:3013   */\n    tag_26:\n        /* \"#utility.yul\":2607:2613   */\n      0x00\n        /* \"#utility.yul\":2615:2621   */\n      dup1\n        /* \"#utility.yul\":2664:2666   */\n      0x40\n        /* \"#utility.yul\":2652:2661   */\n      dup4\n        /* \"#utility.yul\":2643:2650   */\n      dup6\n        /* \"#utility.yul\":2639:2662   */\n      sub\n        /* \"#utility.yul\":2635:2667   */\n      slt\n        /* \"#utility.yul\":2632:2751   */\n      iszero\n      tag_261\n      jumpi\n        /* \"#utility.yul\":2670:2749   */\n      tag_262\n      tag_185\n      jump\t// in\n    tag_262:\n        /* \"#utility.yul\":2632:2751   */\n    tag_261:\n        /* \"#utility.yul\":2790:2791   */\n      0x00\n        /* \"#utility.yul\":2815:2868   */\n      tag_263\n        /* \"#utility.yul\":2860:2867   */\n      dup6\n        /* \"#utility.yul\":2851:2857   */\n      dup3\n        /* \"#utility.yul\":2840:2849   */\n      dup7\n        /* \"#utility.yul\":2836:2858   */\n      add\n        /* \"#utility.yul\":2815:2868   */\n      tag_190\n      jump\t// in\n    tag_263:\n        /* \"#utility.yul\":2805:2868   */\n      swap3\n      pop\n        /* \"#utility.yul\":2761:2878   */\n      pop\n        /* \"#utility.yul\":2917:2919   */\n      0x20\n        /* \"#utility.yul\":2943:2996   */\n      tag_264\n        /* \"#utility.yul\":2988:2995   */\n      dup6\n        /* \"#utility.yul\":2979:2985   */\n      dup3\n        /* \"#utility.yul\":2968:2977   */\n      dup7\n        /* \"#utility.yul\":2964:2986   */\n      add\n        /* \"#utility.yul\":2943:2996   */\n      tag_193\n      jump\t// in\n    tag_264:\n        /* \"#utility.yul\":2933:2996   */\n      swap2\n      pop\n        /* \"#utility.yul\":2888:3006   */\n      pop\n        /* \"#utility.yul\":2539:3013   */\n      swap3\n      pop\n      swap3\n      swap1\n      pop\n      jump\t// out\n        /* \"#utility.yul\":3019:3109   */\n    tag_194:\n        /* \"#utility.yul\":3053:3060   */\n      0x00\n        /* \"#utility.yul\":3096:3101   */\n      dup2\n        /* \"#utility.yul\":3089:3102   */\n      iszero\n        /* \"#utility.yul\":3082:3103   */\n      iszero\n        /* \"#utility.yul\":3071:3103   */\n      swap1\n      pop\n        /* \"#utility.yul\":3019:3109   */\n      swap2\n      swap1\n      pop\n      jump\t// out\n        /* \"#utility.yul\":3115:3224   */\n    tag_195:\n        /* \"#utility.yul\":3196:3217   */\n      tag_267\n        /* \"#utility.yul\":3211:3216   */\n      dup2\n        /* \"#utility.yul\":3196:3217   */\n      tag_194\n      jump\t// in\n    tag_267:\n        /* \"#utility.yul\":3191:3194   */\n      dup3\n        /* \"#utility.yul\":3184:3218   */\n      mstore\n        /* \"#utility.yul\":3115:3224   */\n      pop\n      pop\n      jump\t// out\n        /* \"#utility.yul\":3230:3440   */\n    tag_29:\n        /* \"#utility.yul\":3317:3321   */\n      0x00\n        /* \"#utility.yul\":3355:3357   */\n      0x20\n        /* \"#utility.yul\":3344:3353   */\n      dup3\n        /* \"#utility.yul\":3340:3358   */\n      add\n        /* \"#utility.yul\":3332:3358   */\n      swap1\n      pop\n        /* \"#utility.yul\":3368:3433   */\n      tag_269\n        /* \"#utility.yul\":3430:3431   */\n      0x00\n        /* \"#utility.yul\":3419:3428   */\n      dup4\n        /* \"#utility.yul\":3415:3432   */\n      add\n        /* \"#utility.yul\":3406:3412   */\n      dup5\n        /* \"#utility.yul\":3368:3433   */\n      tag_195\n      jump\t// in\n    tag_269:\n        /* \"#utility.yul\":3230:3440   */\n      swap3\n      swap2\n      pop\n      pop\n      jump\t// out\n        /* \"#utility.yul\":3446:3564   */\n    tag_196:\n        /* \"#utility.yul\":3533:3557   */\n      tag_271\n        /* \"#utility.yul\":3551:3556   */\n      dup2\n        /* \"#utility.yul\":3533:3557   */\n      tag_191\n      jump\t// in\n    tag_271:\n        /* \"#utility.yul\":3528:3531   */\n      dup3\n        /* \"#utility.yul\":3521:3558   */\n      mstore\n        /* \"#utility.yul\":3446:3564   */\n      pop\n      pop\n      jump\t// out\n        /* \"#utility.yul\":3570:3792   */\n    tag_33:\n        /* \"#utility.yul\":3663:3667   */\n      0x00\n        /* \"#utility.yul\":3701:3703   */\n      0x20\n        /* \"#utility.yul\":3690:3699   */\n      dup3\n        /* \"#utility.yul\":3686:3704   */\n      add\n        /* \"#utility.yul\":3678:3704   */\n      swap1\n      pop\n        /* \"#utility.yul\":3714:3785   */\n      tag_273\n        /* \"#utility.yul\":3782:3783   */\n      0x00\n        /* \"#utility.yul\":3771:3780   */\n      dup4\n        /* \"#utility.yul\":3767:3784   */\n      add\n        /* \"#utility.yul\":3758:3764   */\n      dup5\n        /* \"#utility.yul\":3714:3785   */\n      tag_196\n      jump\t// in\n    tag_273:\n        /* \"#utility.yul\":3570:3792   */\n      swap3\n      swap2\n      pop\n      pop\n      jump\t// out\n        /* \"#utility.yul\":3798:3916   */\n    tag_197:\n        /* \"#utility.yul\":3885:3909   */\n      tag_275\n        /* \"#utility.yul\":3903:3908   */\n      dup2\n        /* \"#utility.yul\":3885:3909   */\n      tag_188\n      jump\t// in\n    tag_275:\n        /* \"#utility.yul\":3880:3883   */\n      dup3\n        /* \"#utility.yul\":3873:3910   */\n      mstore\n        /* \"#utility.yul\":3798:3916   */\n      pop\n      pop\n      jump\t// out\n        /* \"#utility.yul\":3922:4144   */\n    tag_37:\n        /* \"#utility.yul\":4015:4019   */\n      0x00\n        /* \"#utility.yul\":4053:4055   */\n      0x20\n        /* \"#utility.yul\":4042:4051   */\n      dup3\n        /* \"#utility.yul\":4038:4056   */\n      add\n        /* \"#utility.yul\":4030:4056   */\n      swap1\n      pop\n        /* \"#utility.yul\":4066:4137   */\n      tag_277\n        /* \"#utility.yul\":4134:4135   */\n      0x00\n        /* \"#utility.yul\":4123:4132   */\n      dup4\n        /* \"#utility.yul\":4119:4136   */\n      add\n        /* \"#utility.yul\":4110:4116   */\n      dup5\n        /* \"#utility.yul\":4066:4137   */\n      tag_197\n      jump\t// in\n    tag_277:\n        /* \"#utility.yul\":3922:4144   */\n      swap3\n      swap2\n      pop\n      pop\n      jump\t// out\n        /* \"#utility.yul\":4150:4769   */\n    tag_40:\n        /* \"#utility.yul\":4227:4233   */\n      0x00\n        /* \"#utility.yul\":4235:4241   */\n      dup1\n        /* \"#utility.yul\":4243:4249   */\n      0x00\n        /* \"#utility.yul\":4292:4294   */\n      0x60\n        /* \"#utility.yul\":4280:4289   */\n      dup5\n        /* \"#utility.yul\":4271:4278   */\n      dup7\n        /* \"#utility.yul\":4267:4290   */\n      sub\n        /* \"#utility.yul\":4263:4295   */\n      slt\n        /* \"#utility.yul\":4260:4379   */\n      iszero\n      tag_279\n      jumpi\n        /* \"#utility.yul\":4298:4377   */\n      tag_280\n      tag_185\n      jump\t// in\n    tag_280:\n        /* \"#utility.yul\":4260:4379   */\n    tag_279:\n        /* \"#utility.yul\":4418:4419   */\n      0x00\n        /* \"#utility.yul\":4443:4496   */\n      tag_281\n        /* \"#utility.yul\":4488:4495   */\n      dup7\n        /* \"#utility.yul\":4479:4485   */\n      dup3\n        /* \"#utility.yul\":4468:4477   */\n      dup8\n        /* \"#utility.yul\":4464:4486   */\n      add\n        /* \"#utility.yul\":4443:4496   */\n      tag_190\n      jump\t// in\n    tag_281:\n        /* \"#utility.yul\":4433:4496   */\n      swap4\n      pop\n        /* \"#utility.yul\":4389:4506   */\n      pop\n        /* \"#utility.yul\":4545:4547   */\n      0x20\n        /* \"#utility.yul\":4571:4624   */\n      tag_282\n        /* \"#utility.yul\":4616:4623   */\n      dup7\n        /* \"#utility.yul\":4607:4613   */\n      dup3\n        /* \"#utility.yul\":4596:4605   */\n      dup8\n        /* \"#utility.yul\":4592:4614   */\n      add\n        /* \"#utility.yul\":4571:4624   */\n      tag_190\n      jump\t// in\n    tag_282:\n        /* \"#utility.yul\":4561:4624   */\n      swap3\n      pop\n        /* \"#utility.yul\":4516:4634   */\n      pop\n        /* \"#utility.yul\":4673:4675   */\n      0x40\n        /* \"#utility.yul\":4699:4752   */\n      tag_283\n        /* \"#utility.yul\":4744:4751   */\n      dup7\n        /* \"#utility.yul\":4735:4741   */\n      dup3\n        /* \"#utility.yul\":4724:4733   */\n      dup8\n        /* \"#utility.yul\":4720:4742   */\n      add\n        /* \"#utility.yul\":4699:4752   */\n      tag_193\n      jump\t// in\n    tag_283:\n        /* \"#utility.yul\":4689:4752   */\n      swap2\n      pop\n        /* \"#utility.yul\":4644:4762   */\n      pop\n        /* \"#utility.yul\":4150:4769   */\n      swap3\n      pop\n      swap3\n      pop\n      swap3\n      jump\t// out\n        /* \"#utility.yul\":4775:4861   */\n    tag_198:\n        /* \"#utility.yul\":4810:4817   */\n      0x00\n        /* \"#utility.yul\":4850:4854   */\n      0xff\n        /* \"#utility.yul\":4843:4848   */\n      dup3\n        /* \"#utility.yul\":4839:4855   */\n      and\n        /* \"#utility.yul\":4828:4855   */\n      swap1\n      pop\n        /* \"#utility.yul\":4775:4861   */\n      swap2\n      swap1\n      pop\n      jump\t// out\n        /* \"#utility.yul\":4867:4979   */\n    tag_199:\n        /* \"#utility.yul\":4950:4972   */\n      tag_286\n        /* \"#utility.yul\":4966:4971   */\n      dup2\n        /* \"#utility.yul\":4950:4972   */\n      tag_198\n      jump\t// in\n    tag_286:\n        /* \"#utility.yul\":4945:4948   */\n      dup3\n        /* \"#utility.yul\":4938:4973   */\n      mstore\n        /* \"#utility.yul\":4867:4979   */\n      pop\n      pop\n      jump\t// out\n        /* \"#utility.yul\":4985:5199   */\n    tag_46:\n        /* \"#utility.yul\":5074:5078   */\n      0x00\n        /* \"#utility.yul\":5112:5114   */\n      0x20\n        /* \"#utility.yul\":5101:5110   */\n      dup3\n        /* \"#utility.yul\":5097:5115   */\n      add\n        /* \"#utility.yul\":5089:5115   */\n      swap1\n      pop\n        /* \"#utility.yul\":5125:5192   */\n      tag_288\n        /* \"#utility.yul\":5189:5190   */\n      0x00\n        /* \"#utility.yul\":5178:5187   */\n      dup4\n        /* \"#utility.yul\":5174:5191   */\n      add\n        /* \"#utility.yul\":5165:5171   */\n      dup5\n        /* \"#utility.yul\":5125:5192   */\n      tag_199\n      jump\t// in\n    tag_288:\n        /* \"#utility.yul\":4985:5199   */\n      swap3\n      swap2\n      pop\n      pop\n      jump\t// out\n        /* \"#utility.yul\":5205:5534   */\n    tag_55:\n        /* \"#utility.yul\":5264:5270   */\n      0x00\n        /* \"#utility.yul\":5313:5315   */\n      0x20\n        /* \"#utility.yul\":5301:5310   */\n      dup3\n        /* \"#utility.yul\":5292:5299   */\n      dup5\n        /* \"#utility.yul\":5288:5311   */\n      sub\n        /* \"#utility.yul\":5284:5316   */\n      slt\n        /* \"#utility.yul\":5281:5400   */\n      iszero\n      tag_290\n      jumpi\n        /* \"#utility.yul\":5319:5398   */\n      tag_291\n      tag_185\n      jump\t// in\n    tag_291:\n        /* \"#utility.yul\":5281:5400   */\n    tag_290:\n        /* \"#utility.yul\":5439:5440   */\n      0x00\n        /* \"#utility.yul\":5464:5517   */\n      tag_292\n        /* \"#utility.yul\":5509:5516   */\n      dup5\n        /* \"#utility.yul\":5500:5506   */\n      dup3\n        /* \"#utility.yul\":5489:5498   */\n      dup6\n        /* \"#utility.yul\":5485:5507   */\n      add\n        /* \"#utility.yul\":5464:5517   */\n      tag_190\n      jump\t// in\n    tag_292:\n        /* \"#utility.yul\":5454:5517   */\n      swap2\n      pop\n        /* \"#utility.yul\":5410:5527   */\n      pop\n        /* \"#utility.yul\":5205:5534   */\n      swap3\n      swap2\n      pop\n      pop\n      jump\t// out\n        /* \"#utility.yul\":5540:5631   */\n    tag_200:\n        /* \"#utility.yul\":5576:5583   */\n      0x00\n        /* \"#utility.yul\":5616:5624   */\n      0xffffff\n        /* \"#utility.yul\":5609:5614   */\n      dup3\n        /* \"#utility.yul\":5605:5625   */\n      and\n        /* \"#utility.yul\":5594:5625   */\n      swap1\n      pop\n        /* \"#utility.yul\":5540:5631   */\n      swap2\n      swap1\n      pop\n      jump\t// out\n        /* \"#utility.yul\":5637:5752   */\n    tag_201:\n        /* \"#utility.yul\":5722:5745   */\n      tag_295\n        /* \"#utility.yul\":5739:5744   */\n      dup2\n        /* \"#utility.yul\":5722:5745   */\n      tag_200\n      jump\t// in\n    tag_295:\n        /* \"#utility.yul\":5717:5720   */\n      dup3\n        /* \"#utility.yul\":5710:5746   */\n      mstore\n        /* \"#utility.yul\":5637:5752   */\n      pop\n      pop\n      jump\t// out\n        /* \"#utility.yul\":5758:5976   */\n    tag_68:\n        /* \"#utility.yul\":5849:5853   */\n      0x00\n        /* \"#utility.yul\":5887:5889   */\n      0x20\n        /* \"#utility.yul\":5876:5885   */\n      dup3\n        /* \"#utility.yul\":5872:5890   */\n      add\n        /* \"#utility.yul\":5864:5890   */\n      swap1\n      pop\n        /* \"#utility.yul\":5900:5969   */\n      tag_297\n        /* \"#utility.yul\":5966:5967   */\n      0x00\n        /* \"#utility.yul\":5955:5964   */\n      dup4\n        /* \"#utility.yul\":5951:5968   */\n      add\n        /* \"#utility.yul\":5942:5948   */\n      dup5\n        /* \"#utility.yul\":5900:5969   */\n      tag_201\n      jump\t// in\n    tag_297:\n        /* \"#utility.yul\":5758:5976   */\n      swap3\n      swap2\n      pop\n      pop\n      jump\t// out\n        /* \"#utility.yul\":5982:6456   */\n    tag_74:\n        /* \"#utility.yul\":6050:6056   */\n      0x00\n        /* \"#utility.yul\":6058:6064   */\n      dup1\n        /* \"#utility.yul\":6107:6109   */\n      0x40\n        /* \"#utility.yul\":6095:6104   */\n      dup4\n        /* \"#utility.yul\":6086:6093   */\n      dup6\n        /* \"#utility.yul\":6082:6105   */\n      sub\n        /* \"#utility.yul\":6078:6110   */\n      slt\n        /* \"#utility.yul\":6075:6194   */\n      iszero\n      tag_299\n      jumpi\n        /* \"#utility.yul\":6113:6192   */\n      tag_300\n      tag_185\n      jump\t// in\n    tag_300:\n        /* \"#utility.yul\":6075:6194   */\n    tag_299:\n        /* \"#utility.yul\":6233:6234   */\n      0x00\n        /* \"#utility.yul\":6258:6311   */\n      tag_301\n        /* \"#utility.yul\":6303:6310   */\n      dup6\n        /* \"#utility.yul\":6294:6300   */\n      dup3\n        /* \"#utility.yul\":6283:6292   */\n      dup7\n        /* \"#utility.yul\":6279:6301   */\n      add\n        /* \"#utility.yul\":6258:6311   */\n      tag_190\n      jump\t// in\n    tag_301:\n        /* \"#utility.yul\":6248:6311   */\n      swap3\n      pop\n        /* \"#utility.yul\":6204:6321   */\n      pop\n        /* \"#utility.yul\":6360:6362   */\n      0x20\n        /* \"#utility.yul\":6386:6439   */\n      tag_302\n        /* \"#utility.yul\":6431:6438   */\n      dup6\n        /* \"#utility.yul\":6422:6428   */\n      dup3\n        /* \"#utility.yul\":6411:6420   */\n      dup7\n        /* \"#utility.yul\":6407:6429   */\n      add\n        /* \"#utility.yul\":6386:6439   */\n      tag_190\n      jump\t// in\n    tag_302:\n        /* \"#utility.yul\":6376:6439   */\n      swap2\n      pop\n        /* \"#utility.yul\":6331:6449   */\n      pop\n        /* \"#utility.yul\":5982:6456   */\n      swap3\n      pop\n      swap3\n      swap1\n      pop\n      jump\t// out\n        /* \"#utility.yul\":6462:6642   */\n    tag_202:\n        /* \"#utility.yul\":6510:6587   */\n      0x4e487b7100000000000000000000000000000000000000000000000000000000\n        /* \"#utility.yul\":6507:6508   */\n      0x00\n        /* \"#utility.yul\":6500:6588   */\n      mstore\n        /* \"#utility.yul\":6607:6611   */\n      0x22\n        /* \"#utility.yul\":6604:6605   */\n      0x04\n        /* \"#utility.yul\":6597:6612   */\n      mstore\n        /* \"#utility.yul\":6631:6635   */\n      0x24\n        /* \"#utility.yul\":6628:6629   */\n      0x00\n        /* \"#utility.yul\":6621:6636   */\n      revert\n        /* \"#utility.yul\":6648:6968   */\n    tag_79:\n        /* \"#utility.yul\":6692:6698   */\n      0x00\n        /* \"#utility.yul\":6729:6730   */\n      0x02\n        /* \"#utility.yul\":6723:6727   */\n      dup3\n        /* \"#utility.yul\":6719:6731   */\n      div\n        /* \"#utility.yul\":6709:6731   */\n      swap1\n      pop\n        /* \"#utility.yul\":6776:6777   */\n      0x01\n        /* \"#utility.yul\":6770:6774   */\n      dup3\n        /* \"#utility.yul\":6766:6778   */\n      and\n        /* \"#utility.yul\":6797:6815   */\n      dup1\n        /* \"#utility.yul\":6787:6868   */\n      tag_305\n      jumpi\n        /* \"#utility.yul\":6853:6857   */\n      0x7f\n        /* \"#utility.yul\":6845:6851   */\n      dup3\n        /* \"#utility.yul\":6841:6858   */\n      and\n        /* \"#utility.yul\":6831:6858   */\n      swap2\n      pop\n        /* \"#utility.yul\":6787:6868   */\n    tag_305:\n        /* \"#utility.yul\":6915:6917   */\n      0x20\n        /* \"#utility.yul\":6907:6913   */\n      dup3\n        /* \"#utility.yul\":6904:6918   */\n      lt\n        /* \"#utility.yul\":6884:6902   */\n      dup2\n        /* \"#utility.yul\":6881:6919   */\n      sub\n        /* \"#utility.yul\":6878:6962   */\n      tag_306\n      jumpi\n        /* \"#utility.yul\":6934:6952   */\n      tag_307\n      tag_202\n      jump\t// in\n    tag_307:\n        /* \"#utility.yul\":6878:6962   */\n    tag_306:\n        /* \"#utility.yul\":6699:6968   */\n      pop\n        /* \"#utility.yul\":6648:6968   */\n      swap2\n      swap1\n      pop\n      jump\t// out\n        /* \"#utility.yul\":6974:7117   */\n    tag_203:\n        /* \"#utility.yul\":7031:7036   */\n      0x00\n        /* \"#utility.yul\":7062:7068   */\n      dup2\n        /* \"#utility.yul\":7056:7069   */\n      mload\n        /* \"#utility.yul\":7047:7069   */\n      swap1\n      pop\n        /* \"#utility.yul\":7078:7111   */\n      tag_309\n        /* \"#utility.yul\":7105:7110   */\n      dup2\n        /* \"#utility.yul\":7078:7111   */\n      tag_192\n      jump\t// in\n    tag_309:\n        /* \"#utility.yul\":6974:7117   */\n      swap3\n      swap2\n      pop\n      pop\n      jump\t// out\n        /* \"#utility.yul\":7123:7474   */\n    tag_94:\n        /* \"#utility.yul\":7193:7199   */\n      0x00\n        /* \"#utility.yul\":7242:7244   */\n      0x20\n        /* \"#utility.yul\":7230:7239   */\n      dup3\n        /* \"#utility.yul\":7221:7228   */\n      dup5\n        /* \"#utility.yul\":7217:7240   */\n      sub\n        /* \"#utility.yul\":7213:7245   */\n      slt\n        /* \"#utility.yul\":7210:7329   */\n      iszero\n      tag_311\n      jumpi\n        /* \"#utility.yul\":7248:7327   */\n      tag_312\n      tag_185\n      jump\t// in\n    tag_312:\n        /* \"#utility.yul\":7210:7329   */\n    tag_311:\n        /* \"#utility.yul\":7368:7369   */\n      0x00\n        /* \"#utility.yul\":7393:7457   */\n      tag_313\n        /* \"#utility.yul\":7449:7456   */\n      dup5\n        /* \"#utility.yul\":7440:7446   */\n      dup3\n        /* \"#utility.yul\":7429:7438   */\n      dup6\n        /* \"#utility.yul\":7425:7447   */\n      add\n        /* \"#utility.yul\":7393:7457   */\n      tag_203\n      jump\t// in\n    tag_313:\n        /* \"#utility.yul\":7383:7457   */\n      swap2\n      pop\n        /* \"#utility.yul\":7339:7467   */\n      pop\n        /* \"#utility.yul\":7123:7474   */\n      swap3\n      swap2\n      pop\n      pop\n      jump\t// out\n        /* \"#utility.yul\":7480:7650   */\n    tag_204:\n        /* \"#utility.yul\":7620:7642   */\n      0x496e73756666696369656e742062616c616e6365000000000000000000000000\n        /* \"#utility.yul\":7616:7617   */\n      0x00\n        /* \"#utility.yul\":7608:7614   */\n      dup3\n        /* \"#utility.yul\":7604:7618   */\n      add\n        /* \"#utility.yul\":7597:7643   */\n      mstore\n        /* \"#utility.yul\":7480:7650   */\n      pop\n      jump\t// out\n        /* \"#utility.yul\":7656:8022   */\n    tag_205:\n        /* \"#utility.yul\":7798:7801   */\n      0x00\n        /* \"#utility.yul\":7819:7886   */\n      tag_316\n        /* \"#utility.yul\":7883:7885   */\n      0x14\n        /* \"#utility.yul\":7878:7881   */\n      dup4\n        /* \"#utility.yul\":7819:7886   */\n      tag_180\n      jump\t// in\n    tag_316:\n        /* \"#utility.yul\":7812:7886   */\n      swap2\n      pop\n        /* \"#utility.yul\":7895:7988   */\n      tag_317\n        /* \"#utility.yul\":7984:7987   */\n      dup3\n        /* \"#utility.yul\":7895:7988   */\n      tag_204\n      jump\t// in\n    tag_317:\n        /* \"#utility.yul\":8013:8015   */\n      0x20\n        /* \"#utility.yul\":8008:8011   */\n      dup3\n        /* \"#utility.yul\":8004:8016   */\n      add\n        /* \"#utility.yul\":7997:8016   */\n      swap1\n      pop\n        /* \"#utility.yul\":7656:8022   */\n      swap2\n      swap1\n      pop\n      jump\t// out\n        /* \"#utility.yul\":8028:8447   */\n    tag_97:\n        /* \"#utility.yul\":8194:8198   */\n      0x00\n        /* \"#utility.yul\":8232:8234   */\n      0x20\n        /* \"#utility.yul\":8221:8230   */\n      dup3\n        /* \"#utility.yul\":8217:8235   */\n      add\n        /* \"#utility.yul\":8209:8235   */\n      swap1\n      pop\n        /* \"#utility.yul\":8281:8290   */\n      dup2\n        /* \"#utility.yul\":8275:8279   */\n      dup2\n        /* \"#utility.yul\":8271:8291   */\n      sub\n        /* \"#utility.yul\":8267:8268   */\n      0x00\n        /* \"#utility.yul\":8256:8265   */\n      dup4\n        /* \"#utility.yul\":8252:8269   */\n      add\n        /* \"#utility.yul\":8245:8292   */\n      mstore\n        /* \"#utility.yul\":8309:8440   */\n      tag_319\n        /* \"#utility.yul\":8435:8439   */\n      dup2\n        /* \"#utility.yul\":8309:8440   */\n      tag_205\n      jump\t// in\n    tag_319:\n        /* \"#utility.yul\":8301:8440   */\n      swap1\n      pop\n        /* \"#utility.yul\":8028:8447   */\n      swap2\n      swap1\n      pop\n      jump\t// out\n        /* \"#utility.yul\":8453:8895   */\n    tag_99:\n        /* \"#utility.yul\":8602:8606   */\n      0x00\n        /* \"#utility.yul\":8640:8642   */\n      0x60\n        /* \"#utility.yul\":8629:8638   */\n      dup3\n        /* \"#utility.yul\":8625:8643   */\n      add\n        /* \"#utility.yul\":8617:8643   */\n      swap1\n      pop\n        /* \"#utility.yul\":8653:8724   */\n      tag_321\n        /* \"#utility.yul\":8721:8722   */\n      0x00\n        /* \"#utility.yul\":8710:8719   */\n      dup4\n        /* \"#utility.yul\":8706:8723   */\n      add\n        /* \"#utility.yul\":8697:8703   */\n      dup7\n        /* \"#utility.yul\":8653:8724   */\n      tag_197\n      jump\t// in\n    tag_321:\n        /* \"#utility.yul\":8734:8806   */\n      tag_322\n        /* \"#utility.yul\":8802:8804   */\n      0x20\n        /* \"#utility.yul\":8791:8800   */\n      dup4\n        /* \"#utility.yul\":8787:8805   */\n      add\n        /* \"#utility.yul\":8778:8784   */\n      dup6\n        /* \"#utility.yul\":8734:8806   */\n      tag_197\n      jump\t// in\n    tag_322:\n        /* \"#utility.yul\":8816:8888   */\n      tag_323\n        /* \"#utility.yul\":8884:8886   */\n      0x40\n        /* \"#utility.yul\":8873:8882   */\n      dup4\n        /* \"#utility.yul\":8869:8887   */\n      add\n        /* \"#utility.yul\":8860:8866   */\n      dup5\n        /* \"#utility.yul\":8816:8888   */\n      tag_196\n      jump\t// in\n    tag_323:\n        /* \"#utility.yul\":8453:8895   */\n      swap5\n      swap4\n      pop\n      pop\n      pop\n      pop\n      jump\t// out\n        /* \"#utility.yul\":8901:9017   */\n    tag_206:\n        /* \"#utility.yul\":8971:8992   */\n      tag_325\n        /* \"#utility.yul\":8986:8991   */\n      dup2\n        /* \"#utility.yul\":8971:8992   */\n      tag_194\n      jump\t// in\n    tag_325:\n        /* \"#utility.yul\":8964:8969   */\n      dup2\n        /* \"#utility.yul\":8961:8993   */\n      eq\n        /* \"#utility.yul\":8951:9011   */\n      tag_326\n      jumpi\n        /* \"#utility.yul\":9007:9008   */\n      0x00\n        /* \"#utility.yul\":9004:9005   */\n      dup1\n        /* \"#utility.yul\":8997:9009   */\n      revert\n        /* \"#utility.yul\":8951:9011   */\n    tag_326:\n        /* \"#utility.yul\":8901:9017   */\n      pop\n      jump\t// out\n        /* \"#utility.yul\":9023:9160   */\n    tag_207:\n        /* \"#utility.yul\":9077:9082   */\n      0x00\n        /* \"#utility.yul\":9108:9114   */\n      dup2\n        /* \"#utility.yul\":9102:9115   */\n      mload\n        /* \"#utility.yul\":9093:9115   */\n      swap1\n      pop\n        /* \"#utility.yul\":9124:9154   */\n      tag_328\n        /* \"#utility.yul\":9148:9153   */\n      dup2\n        /* \"#utility.yul\":9124:9154   */\n      tag_206\n      jump\t// in\n    tag_328:\n        /* \"#utility.yul\":9023:9160   */\n      swap3\n      swap2\n      pop\n      pop\n      jump\t// out\n        /* \"#utility.yul\":9166:9511   */\n    tag_103:\n        /* \"#utility.yul\":9233:9239   */\n      0x00\n        /* \"#utility.yul\":9282:9284   */\n      0x20\n        /* \"#utility.yul\":9270:9279   */\n      dup3\n        /* \"#utility.yul\":9261:9268   */\n      dup5\n        /* \"#utility.yul\":9257:9280   */\n      sub\n        /* \"#utility.yul\":9253:9285   */\n      slt\n        /* \"#utility.yul\":9250:9369   */\n      iszero\n      tag_330\n      jumpi\n        /* \"#utility.yul\":9288:9367   */\n      tag_331\n      tag_185\n      jump\t// in\n    tag_331:\n        /* \"#utility.yul\":9250:9369   */\n    tag_330:\n        /* \"#utility.yul\":9408:9409   */\n      0x00\n        /* \"#utility.yul\":9433:9494   */\n      tag_332\n        /* \"#utility.yul\":9486:9493   */\n      dup5\n        /* \"#utility.yul\":9477:9483   */\n      dup3\n        /* \"#utility.yul\":9466:9475   */\n      dup6\n        /* \"#utility.yul\":9462:9484   */\n      add\n        /* \"#utility.yul\":9433:9494   */\n      tag_207\n      jump\t// in\n    tag_332:\n        /* \"#utility.yul\":9423:9494   */\n      swap2\n      pop\n        /* \"#utility.yul\":9379:9504   */\n      pop\n        /* \"#utility.yul\":9166:9511   */\n      swap3\n      swap2\n      pop\n      pop\n      jump\t// out\n        /* \"#utility.yul\":9517:9682   */\n    tag_208:\n        /* \"#utility.yul\":9657:9674   */\n      0x7472616e73666572206661696c65640000000000000000000000000000000000\n        /* \"#utility.yul\":9653:9654   */\n      0x00\n        /* \"#utility.yul\":9645:9651   */\n      dup3\n        /* \"#utility.yul\":9641:9655   */\n      add\n        /* \"#utility.yul\":9634:9675   */\n      mstore\n        /* \"#utility.yul\":9517:9682   */\n      pop\n      jump\t// out\n        /* \"#utility.yul\":9688:10054   */\n    tag_209:\n        /* \"#utility.yul\":9830:9833   */\n      0x00\n        /* \"#utility.yul\":9851:9918   */\n      tag_335\n        /* \"#utility.yul\":9915:9917   */\n      0x0f\n        /* \"#utility.yul\":9910:9913   */\n      dup4\n        /* \"#utility.yul\":9851:9918   */\n      tag_180\n      jump\t// in\n    tag_335:\n        /* \"#utility.yul\":9844:9918   */\n      swap2\n      pop\n        /* \"#utility.yul\":9927:10020   */\n      tag_336\n        /* \"#utility.yul\":10016:10019   */\n      dup3\n        /* \"#utility.yul\":9927:10020   */\n      tag_208\n      jump\t// in\n    tag_336:\n        /* \"#utility.yul\":10045:10047   */\n      0x20\n        /* \"#utility.yul\":10040:10043   */\n      dup3\n        /* \"#utility.yul\":10036:10048   */\n      add\n        /* \"#utility.yul\":10029:10048   */\n      swap1\n      pop\n        /* \"#utility.yul\":9688:10054   */\n      swap2\n      swap1\n      pop\n      jump\t// out\n        /* \"#utility.yul\":10060:10479   */\n    tag_106:\n        /* \"#utility.yul\":10226:10230   */\n      0x00\n        /* \"#utility.yul\":10264:10266   */\n      0x20\n        /* \"#utility.yul\":10253:10262   */\n      dup3\n        /* \"#utility.yul\":10249:10267   */\n      add\n        /* \"#utility.yul\":10241:10267   */\n      swap1\n      pop\n        /* \"#utility.yul\":10313:10322   */\n      dup2\n        /* \"#utility.yul\":10307:10311   */\n      dup2\n        /* \"#utility.yul\":10303:10323   */\n      sub\n        /* \"#utility.yul\":10299:10300   */\n      0x00\n        /* \"#utility.yul\":10288:10297   */\n      dup4\n        /* \"#utility.yul\":10284:10301   */\n      add\n        /* \"#utility.yul\":10277:10324   */\n      mstore\n        /* \"#utility.yul\":10341:10472   */\n      tag_338\n        /* \"#utility.yul\":10467:10471   */\n      dup2\n        /* \"#utility.yul\":10341:10472   */\n      tag_209\n      jump\t// in\n    tag_338:\n        /* \"#utility.yul\":10333:10472   */\n      swap1\n      pop\n        /* \"#utility.yul\":10060:10479   */\n      swap2\n      swap1\n      pop\n      jump\t// out\n        /* \"#utility.yul\":10485:10607   */\n    tag_210:\n        /* \"#utility.yul\":10558:10582   */\n      tag_340\n        /* \"#utility.yul\":10576:10581   */\n      dup2\n        /* \"#utility.yul\":10558:10582   */\n      tag_187\n      jump\t// in\n    tag_340:\n        /* \"#utility.yul\":10551:10556   */\n      dup2\n        /* \"#utility.yul\":10548:10583   */\n      eq\n        /* \"#utility.yul\":10538:10601   */\n      tag_341\n      jumpi\n        /* \"#utility.yul\":10597:10598   */\n      0x00\n        /* \"#utility.yul\":10594:10595   */\n      dup1\n        /* \"#utility.yul\":10587:10599   */\n      revert\n        /* \"#utility.yul\":10538:10601   */\n    tag_341:\n        /* \"#utility.yul\":10485:10607   */\n      pop\n      jump\t// out\n        /* \"#utility.yul\":10613:10756   */\n    tag_211:\n        /* \"#utility.yul\":10670:10675   */\n      0x00\n        /* \"#utility.yul\":10701:10707   */\n      dup2\n        /* \"#utility.yul\":10695:10708   */\n      mload\n        /* \"#utility.yul\":10686:10708   */\n      swap1\n      pop\n        /* \"#utility.yul\":10717:10750   */\n      tag_343\n        /* \"#utility.yul\":10744:10749   */\n      dup2\n        /* \"#utility.yul\":10717:10750   */\n      tag_210\n      jump\t// in\n    tag_343:\n        /* \"#utility.yul\":10613:10756   */\n      swap3\n      swap2\n      pop\n      pop\n      jump\t// out\n        /* \"#utility.yul\":10762:10852   */\n    tag_212:\n        /* \"#utility.yul\":10797:10804   */\n      0x00\n        /* \"#utility.yul\":10840:10845   */\n      dup2\n        /* \"#utility.yul\":10837:10838   */\n      0x02\n        /* \"#utility.yul\":10826:10846   */\n      signextend\n        /* \"#utility.yul\":10815:10846   */\n      swap1\n      pop\n        /* \"#utility.yul\":10762:10852   */\n      swap2\n      swap1\n      pop\n      jump\t// out\n        /* \"#utility.yul\":10858:10976   */\n    tag_213:\n        /* \"#utility.yul\":10929:10951   */\n      tag_346\n        /* \"#utility.yul\":10945:10950   */\n      dup2\n        /* \"#utility.yul\":10929:10951   */\n      tag_212\n      jump\t// in\n    tag_346:\n        /* \"#utility.yul\":10922:10927   */\n      dup2\n        /* \"#utility.yul\":10919:10952   */\n      eq\n        /* \"#utility.yul\":10909:10970   */\n      tag_347\n      jumpi\n        /* \"#utility.yul\":10966:10967   */\n      0x00\n        /* \"#utility.yul\":10963:10964   */\n      dup1\n        /* \"#utility.yul\":10956:10968   */\n      revert\n        /* \"#utility.yul\":10909:10970   */\n    tag_347:\n        /* \"#utility.yul\":10858:10976   */\n      pop\n      jump\t// out\n        /* \"#utility.yul\":10982:11121   */\n    tag_214:\n        /* \"#utility.yul\":11037:11042   */\n      0x00\n        /* \"#utility.yul\":11068:11074   */\n      dup2\n        /* \"#utility.yul\":11062:11075   */\n      mload\n        /* \"#utility.yul\":11053:11075   */\n      swap1\n      pop\n        /* \"#utility.yul\":11084:11115   */\n      tag_349\n        /* \"#utility.yul\":11109:11114   */\n      dup2\n        /* \"#utility.yul\":11084:11115   */\n      tag_213\n      jump\t// in\n    tag_349:\n        /* \"#utility.yul\":10982:11121   */\n      swap3\n      swap2\n      pop\n      pop\n      jump\t// out\n        /* \"#utility.yul\":11127:11216   */\n    tag_215:\n        /* \"#utility.yul\":11163:11170   */\n      0x00\n        /* \"#utility.yul\":11203:11209   */\n      0xffff\n        /* \"#utility.yul\":11196:11201   */\n      dup3\n        /* \"#utility.yul\":11192:11210   */\n      and\n        /* \"#utility.yul\":11181:11210   */\n      swap1\n      pop\n        /* \"#utility.yul\":11127:11216   */\n      swap2\n      swap1\n      pop\n      jump\t// out\n        /* \"#utility.yul\":11222:11342   */\n    tag_216:\n        /* \"#utility.yul\":11294:11317   */\n      tag_352\n        /* \"#utility.yul\":11311:11316   */\n      dup2\n        /* \"#utility.yul\":11294:11317   */\n      tag_215\n      jump\t// in\n    tag_352:\n        /* \"#utility.yul\":11287:11292   */\n      dup2\n        /* \"#utility.yul\":11284:11318   */\n      eq\n        /* \"#utility.yul\":11274:11336   */\n      tag_353\n      jumpi\n        /* \"#utility.yul\":11332:11333   */\n      0x00\n        /* \"#utility.yul\":11329:11330   */\n      dup1\n        /* \"#utility.yul\":11322:11334   */\n      revert\n        /* \"#utility.yul\":11274:11336   */\n    tag_353:\n        /* \"#utility.yul\":11222:11342   */\n      pop\n      jump\t// out\n        /* \"#utility.yul\":11348:11489   */\n    tag_217:\n        /* \"#utility.yul\":11404:11409   */\n      0x00\n        /* \"#utility.yul\":11435:11441   */\n      dup2\n        /* \"#utility.yul\":11429:11442   */\n      mload\n        /* \"#utility.yul\":11420:11442   */\n      swap1\n      pop\n        /* \"#utility.yul\":11451:11483   */\n      tag_355\n        /* \"#utility.yul\":11477:11482   */\n      dup2\n        /* \"#utility.yul\":11451:11483   */\n      tag_216\n      jump\t// in\n    tag_355:\n        /* \"#utility.yul\":11348:11489   */\n      swap3\n      swap2\n      pop\n      pop\n      jump\t// out\n        /* \"#utility.yul\":11495:11613   */\n    tag_218:\n        /* \"#utility.yul\":11566:11588   */\n      tag_357\n        /* \"#utility.yul\":11582:11587   */\n      dup2\n        /* \"#utility.yul\":11566:11588   */\n      tag_198\n      jump\t// in\n    tag_357:\n        /* \"#utility.yul\":11559:11564   */\n      dup2\n        /* \"#utility.yul\":11556:11589   */\n      eq\n        /* \"#utility.yul\":11546:11607   */\n      tag_358\n      jumpi\n        /* \"#utility.yul\":11603:11604   */\n      0x00\n        /* \"#utility.yul\":11600:11601   */\n      dup1\n        /* \"#utility.yul\":11593:11605   */\n      revert\n        /* \"#utility.yul\":11546:11607   */\n    tag_358:\n        /* \"#utility.yul\":11495:11613   */\n      pop\n      jump\t// out\n        /* \"#utility.yul\":11619:11758   */\n    tag_219:\n        /* \"#utility.yul\":11674:11679   */\n      0x00\n        /* \"#utility.yul\":11705:11711   */\n      dup2\n        /* \"#utility.yul\":11699:11712   */\n      mload\n        /* \"#utility.yul\":11690:11712   */\n      swap1\n      pop\n        /* \"#utility.yul\":11721:11752   */\n      tag_360\n        /* \"#utility.yul\":11746:11751   */\n      dup2\n        /* \"#utility.yul\":11721:11752   */\n      tag_218\n      jump\t// in\n    tag_360:\n        /* \"#utility.yul\":11619:11758   */\n      swap3\n      swap2\n      pop\n      pop\n      jump\t// out\n        /* \"#utility.yul\":11764:13035   */\n    tag_120:\n        /* \"#utility.yul\":11878:11884   */\n      0x00\n        /* \"#utility.yul\":11886:11892   */\n      dup1\n        /* \"#utility.yul\":11894:11900   */\n      0x00\n        /* \"#utility.yul\":11902:11908   */\n      dup1\n        /* \"#utility.yul\":11910:11916   */\n      0x00\n        /* \"#utility.yul\":11918:11924   */\n      dup1\n        /* \"#utility.yul\":11926:11932   */\n      0x00\n        /* \"#utility.yul\":11975:11978   */\n      0xe0\n        /* \"#utility.yul\":11963:11972   */\n      dup9\n        /* \"#utility.yul\":11954:11961   */\n      dup11\n        /* \"#utility.yul\":11950:11973   */\n      sub\n        /* \"#utility.yul\":11946:11979   */\n      slt\n        /* \"#utility.yul\":11943:12063   */\n      iszero\n      tag_362\n      jumpi\n        /* \"#utility.yul\":11982:12061   */\n      tag_363\n      tag_185\n      jump\t// in\n    tag_363:\n        /* \"#utility.yul\":11943:12063   */\n    tag_362:\n        /* \"#utility.yul\":12102:12103   */\n      0x00\n        /* \"#utility.yul\":12127:12191   */\n      tag_364\n        /* \"#utility.yul\":12183:12190   */\n      dup11\n        /* \"#utility.yul\":12174:12180   */\n      dup3\n        /* \"#utility.yul\":12163:12172   */\n      dup12\n        /* \"#utility.yul\":12159:12181   */\n      add\n        /* \"#utility.yul\":12127:12191   */\n      tag_211\n      jump\t// in\n    tag_364:\n        /* \"#utility.yul\":12117:12191   */\n      swap8\n      pop\n        /* \"#utility.yul\":12073:12201   */\n      pop\n        /* \"#utility.yul\":12240:12242   */\n      0x20\n        /* \"#utility.yul\":12266:12328   */\n      tag_365\n        /* \"#utility.yul\":12320:12327   */\n      dup11\n        /* \"#utility.yul\":12311:12317   */\n      dup3\n        /* \"#utility.yul\":12300:12309   */\n      dup12\n        /* \"#utility.yul\":12296:12318   */\n      add\n        /* \"#utility.yul\":12266:12328   */\n      tag_214\n      jump\t// in\n    tag_365:\n        /* \"#utility.yul\":12256:12328   */\n      swap7\n      pop\n        /* \"#utility.yul\":12211:12338   */\n      pop\n        /* \"#utility.yul\":12377:12379   */\n      0x40\n        /* \"#utility.yul\":12403:12466   */\n      tag_366\n        /* \"#utility.yul\":12458:12465   */\n      dup11\n        /* \"#utility.yul\":12449:12455   */\n      dup3\n        /* \"#utility.yul\":12438:12447   */\n      dup12\n        /* \"#utility.yul\":12434:12456   */\n      add\n        /* \"#utility.yul\":12403:12466   */\n      tag_217\n      jump\t// in\n    tag_366:\n        /* \"#utility.yul\":12393:12466   */\n      swap6\n      pop\n        /* \"#utility.yul\":12348:12476   */\n      pop\n        /* \"#utility.yul\":12515:12517   */\n      0x60\n        /* \"#utility.yul\":12541:12604   */\n      tag_367\n        /* \"#utility.yul\":12596:12603   */\n      dup11\n        /* \"#utility.yul\":12587:12593   */\n      dup3\n        /* \"#utility.yul\":12576:12585   */\n      dup12\n        /* \"#utility.yul\":12572:12594   */\n      add\n        /* \"#utility.yul\":12541:12604   */\n      tag_217\n      jump\t// in\n    tag_367:\n        /* \"#utility.yul\":12531:12604   */\n      swap5\n      pop\n        /* \"#utility.yul\":12486:12614   */\n      pop\n        /* \"#utility.yul\":12653:12656   */\n      0x80\n        /* \"#utility.yul\":12680:12743   */\n      tag_368\n        /* \"#utility.yul\":12735:12742   */\n      dup11\n        /* \"#utility.yul\":12726:12732   */\n      dup3\n        /* \"#utility.yul\":12715:12724   */\n      dup12\n        /* \"#utility.yul\":12711:12733   */\n      add\n        /* \"#utility.yul\":12680:12743   */\n      tag_217\n      jump\t// in\n    tag_368:\n        /* \"#utility.yul\":12670:12743   */\n      swap4\n      pop\n        /* \"#utility.yul\":12624:12753   */\n      pop\n        /* \"#utility.yul\":12792:12795   */\n      0xa0\n        /* \"#utility.yul\":12819:12881   */\n      tag_369\n        /* \"#utility.yul\":12873:12880   */\n      dup11\n        /* \"#utility.yul\":12864:12870   */\n      dup3\n        /* \"#utility.yul\":12853:12862   */\n      dup12\n        /* \"#utility.yul\":12849:12871   */\n      add\n        /* \"#utility.yul\":12819:12881   */\n      tag_219\n      jump\t// in\n    tag_369:\n        /* \"#utility.yul\":12809:12881   */\n      swap3\n      pop\n        /* \"#utility.yul\":12763:12891   */\n      pop\n        /* \"#utility.yul\":12930:12933   */\n      0xc0\n        /* \"#utility.yul\":12957:13018   */\n      tag_370\n        /* \"#utility.yul\":13010:13017   */\n      dup11\n        /* \"#utility.yul\":13001:13007   */\n      dup3\n        /* \"#utility.yul\":12990:12999   */\n      dup12\n        /* \"#utility.yul\":12986:13008   */\n      add\n        /* \"#utility.yul\":12957:13018   */\n      tag_207\n      jump\t// in\n    tag_370:\n        /* \"#utility.yul\":12947:13018   */\n      swap2\n      pop\n        /* \"#utility.yul\":12901:13028   */\n      pop\n        /* \"#utility.yul\":11764:13035   */\n      swap3\n      swap6\n      swap9\n      swap2\n      swap5\n      swap8\n      pop\n      swap3\n      swap6\n      pop\n      jump\t// out\n        /* \"#utility.yul\":13041:13184   */\n    tag_220:\n        /* \"#utility.yul\":13098:13103   */\n      0x00\n        /* \"#utility.yul\":13129:13135   */\n      dup2\n        /* \"#utility.yul\":13123:13136   */\n      mload\n        /* \"#utility.yul\":13114:13136   */\n      swap1\n      pop\n        /* \"#utility.yul\":13145:13178   */\n      tag_372\n        /* \"#utility.yul\":13172:13177   */\n      dup2\n        /* \"#utility.yul\":13145:13178   */\n      tag_189\n      jump\t// in\n    tag_372:\n        /* \"#utility.yul\":13041:13184   */\n      swap3\n      swap2\n      pop\n      pop\n      jump\t// out\n        /* \"#utility.yul\":13190:13541   */\n    tag_124:\n        /* \"#utility.yul\":13260:13266   */\n      0x00\n        /* \"#utility.yul\":13309:13311   */\n      0x20\n        /* \"#utility.yul\":13297:13306   */\n      dup3\n        /* \"#utility.yul\":13288:13295   */\n      dup5\n        /* \"#utility.yul\":13284:13307   */\n      sub\n        /* \"#utility.yul\":13280:13312   */\n      slt\n        /* \"#utility.yul\":13277:13396   */\n      iszero\n      tag_374\n      jumpi\n        /* \"#utility.yul\":13315:13394   */\n      tag_375\n      tag_185\n      jump\t// in\n    tag_375:\n        /* \"#utility.yul\":13277:13396   */\n    tag_374:\n        /* \"#utility.yul\":13435:13436   */\n      0x00\n        /* \"#utility.yul\":13460:13524   */\n      tag_376\n        /* \"#utility.yul\":13516:13523   */\n      dup5\n        /* \"#utility.yul\":13507:13513   */\n      dup3\n        /* \"#utility.yul\":13496:13505   */\n      dup6\n        /* \"#utility.yul\":13492:13514   */\n      add\n        /* \"#utility.yul\":13460:13524   */\n      tag_220\n      jump\t// in\n    tag_376:\n        /* \"#utility.yul\":13450:13524   */\n      swap2\n      pop\n        /* \"#utility.yul\":13406:13534   */\n      pop\n        /* \"#utility.yul\":13190:13541   */\n      swap3\n      swap2\n      pop\n      pop\n      jump\t// out\n        /* \"#utility.yul\":13547:13727   */\n    tag_221:\n        /* \"#utility.yul\":13595:13672   */\n      0x4e487b7100000000000000000000000000000000000000000000000000000000\n        /* \"#utility.yul\":13592:13593   */\n      0x00\n        /* \"#utility.yul\":13585:13673   */\n      mstore\n        /* \"#utility.yul\":13692:13696   */\n      0x11\n        /* \"#utility.yul\":13689:13690   */\n      0x04\n        /* \"#utility.yul\":13682:13697   */\n      mstore\n        /* \"#utility.yul\":13716:13720   */\n      0x24\n        /* \"#utility.yul\":13713:13714   */\n      0x00\n        /* \"#utility.yul\":13706:13721   */\n      revert\n        /* \"#utility.yul\":13733:14143   */\n    tag_131:\n        /* \"#utility.yul\":13773:13780   */\n      0x00\n        /* \"#utility.yul\":13796:13816   */\n      tag_379\n        /* \"#utility.yul\":13814:13815   */\n      dup3\n        /* \"#utility.yul\":13796:13816   */\n      tag_191\n      jump\t// in\n    tag_379:\n        /* \"#utility.yul\":13791:13816   */\n      swap2\n      pop\n        /* \"#utility.yul\":13830:13850   */\n      tag_380\n        /* \"#utility.yul\":13848:13849   */\n      dup4\n        /* \"#utility.yul\":13830:13850   */\n      tag_191\n      jump\t// in\n    tag_380:\n        /* \"#utility.yul\":13825:13850   */\n      swap3\n      pop\n        /* \"#utility.yul\":13885:13886   */\n      dup3\n        /* \"#utility.yul\":13882:13883   */\n      dup3\n        /* \"#utility.yul\":13878:13887   */\n      mul\n        /* \"#utility.yul\":13907:13937   */\n      tag_381\n        /* \"#utility.yul\":13925:13936   */\n      dup2\n        /* \"#utility.yul\":13907:13937   */\n      tag_191\n      jump\t// in\n    tag_381:\n        /* \"#utility.yul\":13896:13937   */\n      swap2\n      pop\n        /* \"#utility.yul\":14086:14087   */\n      dup3\n        /* \"#utility.yul\":14077:14084   */\n      dup3\n        /* \"#utility.yul\":14073:14088   */\n      div\n        /* \"#utility.yul\":14070:14071   */\n      dup5\n        /* \"#utility.yul\":14067:14089   */\n      eq\n        /* \"#utility.yul\":14047:14048   */\n      dup4\n        /* \"#utility.yul\":14040:14049   */\n      iszero\n        /* \"#utility.yul\":14020:14103   */\n      or\n        /* \"#utility.yul\":13997:14136   */\n      tag_382\n      jumpi\n        /* \"#utility.yul\":14116:14134   */\n      tag_383\n      tag_221\n      jump\t// in\n    tag_383:\n        /* \"#utility.yul\":13997:14136   */\n    tag_382:\n        /* \"#utility.yul\":13781:14143   */\n      pop\n        /* \"#utility.yul\":13733:14143   */\n      swap3\n      swap2\n      pop\n      pop\n      jump\t// out\n        /* \"#utility.yul\":14149:14329   */\n    tag_222:\n        /* \"#utility.yul\":14197:14274   */\n      0x4e487b7100000000000000000000000000000000000000000000000000000000\n        /* \"#utility.yul\":14194:14195   */\n      0x00\n        /* \"#utility.yul\":14187:14275   */\n      mstore\n        /* \"#utility.yul\":14294:14298   */\n      0x12\n        /* \"#utility.yul\":14291:14292   */\n      0x04\n        /* \"#utility.yul\":14284:14299   */\n      mstore\n        /* \"#utility.yul\":14318:14322   */\n      0x24\n        /* \"#utility.yul\":14315:14316   */\n      0x00\n        /* \"#utility.yul\":14308:14323   */\n      revert\n        /* \"#utility.yul\":14335:14520   */\n    tag_133:\n        /* \"#utility.yul\":14375:14376   */\n      0x00\n        /* \"#utility.yul\":14392:14412   */\n      tag_386\n        /* \"#utility.yul\":14410:14411   */\n      dup3\n        /* \"#utility.yul\":14392:14412   */\n      tag_191\n      jump\t// in\n    tag_386:\n        /* \"#utility.yul\":14387:14412   */\n      swap2\n      pop\n        /* \"#utility.yul\":14426:14446   */\n      tag_387\n        /* \"#utility.yul\":14444:14445   */\n      dup4\n        /* \"#utility.yul\":14426:14446   */\n      tag_191\n      jump\t// in\n    tag_387:\n        /* \"#utility.yul\":14421:14446   */\n      swap3\n      pop\n        /* \"#utility.yul\":14465:14466   */\n      dup3\n        /* \"#utility.yul\":14455:14490   */\n      tag_388\n      jumpi\n        /* \"#utility.yul\":14470:14488   */\n      tag_389\n      tag_222\n      jump\t// in\n    tag_389:\n        /* \"#utility.yul\":14455:14490   */\n    tag_388:\n        /* \"#utility.yul\":14512:14513   */\n      dup3\n        /* \"#utility.yul\":14509:14510   */\n      dup3\n        /* \"#utility.yul\":14505:14514   */\n      div\n        /* \"#utility.yul\":14500:14514   */\n      swap1\n      pop\n        /* \"#utility.yul\":14335:14520   */\n      swap3\n      swap2\n      pop\n      pop\n      jump\t// out\n        /* \"#utility.yul\":14526:14858   */\n    tag_170:\n        /* \"#utility.yul\":14647:14651   */\n      0x00\n        /* \"#utility.yul\":14685:14687   */\n      0x40\n        /* \"#utility.yul\":14674:14683   */\n      dup3\n        /* \"#utility.yul\":14670:14688   */\n      add\n        /* \"#utility.yul\":14662:14688   */\n      swap1\n      pop\n        /* \"#utility.yul\":14698:14769   */\n      tag_391\n        /* \"#utility.yul\":14766:14767   */\n      0x00\n        /* \"#utility.yul\":14755:14764   */\n      dup4\n        /* \"#utility.yul\":14751:14768   */\n      add\n        /* \"#utility.yul\":14742:14748   */\n      dup6\n        /* \"#utility.yul\":14698:14769   */\n      tag_197\n      jump\t// in\n    tag_391:\n        /* \"#utility.yul\":14779:14851   */\n      tag_392\n        /* \"#utility.yul\":14847:14849   */\n      0x20\n        /* \"#utility.yul\":14836:14845   */\n      dup4\n        /* \"#utility.yul\":14832:14850   */\n      add\n        /* \"#utility.yul\":14823:14829   */\n      dup5\n        /* \"#utility.yul\":14779:14851   */\n      tag_196\n      jump\t// in\n    tag_392:\n        /* \"#utility.yul\":14526:14858   */\n      swap4\n      swap3\n      pop\n      pop\n      pop\n      jump\t// out\n        /* \"#utility.yul\":14864:14972   */\n    tag_223:\n        /* \"#utility.yul\":14941:14965   */\n      tag_394\n        /* \"#utility.yul\":14959:14964   */\n      dup2\n        /* \"#utility.yul\":14941:14965   */\n      tag_188\n      jump\t// in\n    tag_394:\n        /* \"#utility.yul\":14936:14939   */\n      dup3\n        /* \"#utility.yul\":14929:14966   */\n      mstore\n        /* \"#utility.yul\":14864:14972   */\n      pop\n      pop\n      jump\t// out\n        /* \"#utility.yul\":14978:15083   */\n    tag_224:\n        /* \"#utility.yul\":15053:15076   */\n      tag_396\n        /* \"#utility.yul\":15070:15075   */\n      dup2\n        /* \"#utility.yul\":15053:15076   */\n      tag_200\n      jump\t// in\n    tag_396:\n        /* \"#utility.yul\":15048:15051   */\n      dup3\n        /* \"#utility.yul\":15041:15077   */\n      mstore\n        /* \"#utility.yul\":14978:15083   */\n      pop\n      pop\n      jump\t// out\n        /* \"#utility.yul\":15089:15197   */\n    tag_225:\n        /* \"#utility.yul\":15166:15190   */\n      tag_398\n        /* \"#utility.yul\":15184:15189   */\n      dup2\n        /* \"#utility.yul\":15166:15190   */\n      tag_191\n      jump\t// in\n    tag_398:\n        /* \"#utility.yul\":15161:15164   */\n      dup3\n        /* \"#utility.yul\":15154:15191   */\n      mstore\n        /* \"#utility.yul\":15089:15197   */\n      pop\n      pop\n      jump\t// out\n        /* \"#utility.yul\":15203:15311   */\n    tag_226:\n        /* \"#utility.yul\":15280:15304   */\n      tag_400\n        /* \"#utility.yul\":15298:15303   */\n      dup2\n        /* \"#utility.yul\":15280:15304   */\n      tag_187\n      jump\t// in\n    tag_400:\n        /* \"#utility.yul\":15275:15278   */\n      dup3\n        /* \"#utility.yul\":15268:15305   */\n      mstore\n        /* \"#utility.yul\":15203:15311   */\n      pop\n      pop\n      jump\t// out\n        /* \"#utility.yul\":15387:17010   */\n    tag_227:\n        /* \"#utility.yul\":15562:15568   */\n      0x0100\n        /* \"#utility.yul\":15557:15560   */\n      dup3\n        /* \"#utility.yul\":15553:15569   */\n      add\n        /* \"#utility.yul\":15654:15658   */\n      0x00\n        /* \"#utility.yul\":15647:15652   */\n      dup3\n        /* \"#utility.yul\":15643:15659   */\n      add\n        /* \"#utility.yul\":15637:15660   */\n      mload\n        /* \"#utility.yul\":15673:15736   */\n      tag_402\n        /* \"#utility.yul\":15730:15734   */\n      0x00\n        /* \"#utility.yul\":15725:15728   */\n      dup6\n        /* \"#utility.yul\":15721:15735   */\n      add\n        /* \"#utility.yul\":15707:15719   */\n      dup3\n        /* \"#utility.yul\":15673:15736   */\n      tag_223\n      jump\t// in\n    tag_402:\n        /* \"#utility.yul\":15579:15746   */\n      pop\n        /* \"#utility.yul\":15832:15836   */\n      0x20\n        /* \"#utility.yul\":15825:15830   */\n      dup3\n        /* \"#utility.yul\":15821:15837   */\n      add\n        /* \"#utility.yul\":15815:15838   */\n      mload\n        /* \"#utility.yul\":15851:15914   */\n      tag_403\n        /* \"#utility.yul\":15908:15912   */\n      0x20\n        /* \"#utility.yul\":15903:15906   */\n      dup6\n        /* \"#utility.yul\":15899:15913   */\n      add\n        /* \"#utility.yul\":15885:15897   */\n      dup3\n        /* \"#utility.yul\":15851:15914   */\n      tag_223\n      jump\t// in\n    tag_403:\n        /* \"#utility.yul\":15756:15924   */\n      pop\n        /* \"#utility.yul\":16005:16009   */\n      0x40\n        /* \"#utility.yul\":15998:16003   */\n      dup3\n        /* \"#utility.yul\":15994:16010   */\n      add\n        /* \"#utility.yul\":15988:16011   */\n      mload\n        /* \"#utility.yul\":16024:16085   */\n      tag_404\n        /* \"#utility.yul\":16079:16083   */\n      0x40\n        /* \"#utility.yul\":16074:16077   */\n      dup6\n        /* \"#utility.yul\":16070:16084   */\n      add\n        /* \"#utility.yul\":16056:16068   */\n      dup3\n        /* \"#utility.yul\":16024:16085   */\n      tag_224\n      jump\t// in\n    tag_404:\n        /* \"#utility.yul\":15934:16095   */\n      pop\n        /* \"#utility.yul\":16182:16186   */\n      0x60\n        /* \"#utility.yul\":16175:16180   */\n      dup3\n        /* \"#utility.yul\":16171:16187   */\n      add\n        /* \"#utility.yul\":16165:16188   */\n      mload\n        /* \"#utility.yul\":16201:16264   */\n      tag_405\n        /* \"#utility.yul\":16258:16262   */\n      0x60\n        /* \"#utility.yul\":16253:16256   */\n      dup6\n        /* \"#utility.yul\":16249:16263   */\n      add\n        /* \"#utility.yul\":16235:16247   */\n      dup3\n        /* \"#utility.yul\":16201:16264   */\n      tag_223\n      jump\t// in\n    tag_405:\n        /* \"#utility.yul\":16105:16274   */\n      pop\n        /* \"#utility.yul\":16360:16364   */\n      0x80\n        /* \"#utility.yul\":16353:16358   */\n      dup3\n        /* \"#utility.yul\":16349:16365   */\n      add\n        /* \"#utility.yul\":16343:16366   */\n      mload\n        /* \"#utility.yul\":16379:16442   */\n      tag_406\n        /* \"#utility.yul\":16436:16440   */\n      0x80\n        /* \"#utility.yul\":16431:16434   */\n      dup6\n        /* \"#utility.yul\":16427:16441   */\n      add\n        /* \"#utility.yul\":16413:16425   */\n      dup3\n        /* \"#utility.yul\":16379:16442   */\n      tag_225\n      jump\t// in\n    tag_406:\n        /* \"#utility.yul\":16284:16452   */\n      pop\n        /* \"#utility.yul\":16538:16542   */\n      0xa0\n        /* \"#utility.yul\":16531:16536   */\n      dup3\n        /* \"#utility.yul\":16527:16543   */\n      add\n        /* \"#utility.yul\":16521:16544   */\n      mload\n        /* \"#utility.yul\":16557:16620   */\n      tag_407\n        /* \"#utility.yul\":16614:16618   */\n      0xa0\n        /* \"#utility.yul\":16609:16612   */\n      dup6\n        /* \"#utility.yul\":16605:16619   */\n      add\n        /* \"#utility.yul\":16591:16603   */\n      dup3\n        /* \"#utility.yul\":16557:16620   */\n      tag_225\n      jump\t// in\n    tag_407:\n        /* \"#utility.yul\":16462:16630   */\n      pop\n        /* \"#utility.yul\":16724:16728   */\n      0xc0\n        /* \"#utility.yul\":16717:16722   */\n      dup3\n        /* \"#utility.yul\":16713:16729   */\n      add\n        /* \"#utility.yul\":16707:16730   */\n      mload\n        /* \"#utility.yul\":16743:16806   */\n      tag_408\n        /* \"#utility.yul\":16800:16804   */\n      0xc0\n        /* \"#utility.yul\":16795:16798   */\n      dup6\n        /* \"#utility.yul\":16791:16805   */\n      add\n        /* \"#utility.yul\":16777:16789   */\n      dup3\n        /* \"#utility.yul\":16743:16806   */\n      tag_225\n      jump\t// in\n    tag_408:\n        /* \"#utility.yul\":16640:16816   */\n      pop\n        /* \"#utility.yul\":16911:16915   */\n      0xe0\n        /* \"#utility.yul\":16904:16909   */\n      dup3\n        /* \"#utility.yul\":16900:16916   */\n      add\n        /* \"#utility.yul\":16894:16917   */\n      mload\n        /* \"#utility.yul\":16930:16993   */\n      tag_409\n        /* \"#utility.yul\":16987:16991   */\n      0xe0\n        /* \"#utility.yul\":16982:16985   */\n      dup6\n        /* \"#utility.yul\":16978:16992   */\n      add\n        /* \"#utility.yul\":16964:16976   */\n      dup3\n        /* \"#utility.yul\":16930:16993   */\n      tag_226\n      jump\t// in\n    tag_409:\n        /* \"#utility.yul\":16826:17003   */\n      pop\n        /* \"#utility.yul\":15531:17010   */\n      pop\n        /* \"#utility.yul\":15387:17010   */\n      pop\n      pop\n      jump\t// out\n        /* \"#utility.yul\":17016:17395   */\n    tag_175:\n        /* \"#utility.yul\":17187:17191   */\n      0x00\n        /* \"#utility.yul\":17225:17228   */\n      0x0100\n        /* \"#utility.yul\":17214:17223   */\n      dup3\n        /* \"#utility.yul\":17210:17229   */\n      add\n        /* \"#utility.yul\":17202:17229   */\n      swap1\n      pop\n        /* \"#utility.yul\":17239:17388   */\n      tag_411\n        /* \"#utility.yul\":17385:17386   */\n      0x00\n        /* \"#utility.yul\":17374:17383   */\n      dup4\n        /* \"#utility.yul\":17370:17387   */\n      add\n        /* \"#utility.yul\":17361:17367   */\n      dup5\n        /* \"#utility.yul\":17239:17388   */\n      tag_227\n      jump\t// in\n    tag_411:\n        /* \"#utility.yul\":17016:17395   */\n      swap3\n      swap2\n      pop\n      pop\n      jump\t// out\n\n    auxdata: 0xa26469706673582212201617a04665902e419fce999817b3e5cba60f8c1e128eedc4c070a775a6e66e1864736f6c63430008180033\n}\n",
				"bytecode": {
					"linkReferences": {},
					"object": "610100604052601260025f6101000a81548160ff021916908360ff1602179055503480156200002c575f80fd5b506040516200225a3803806200225a833981810160405281019062000052919062000337565b8573ffffffffffffffffffffffffffffffffffffffff1660808173ffffffffffffffffffffffffffffffffffffffff16815250508473ffffffffffffffffffffffffffffffffffffffff1660a08173ffffffffffffffffffffffffffffffffffffffff16815250508373ffffffffffffffffffffffffffffffffffffffff1660c08173ffffffffffffffffffffffffffffffffffffffff16815250508273ffffffffffffffffffffffffffffffffffffffff1660e08173ffffffffffffffffffffffffffffffffffffffff1681525050815f908162000132919062000644565b50806001908162000144919062000644565b5050505050505062000728565b5f604051905090565b5f80fd5b5f80fd5b5f73ffffffffffffffffffffffffffffffffffffffff82169050919050565b5f6200018d8262000162565b9050919050565b6200019f8162000181565b8114620001aa575f80fd5b50565b5f81519050620001bd8162000194565b92915050565b5f80fd5b5f80fd5b5f601f19601f8301169050919050565b7f4e487b71000000000000000000000000000000000000000000000000000000005f52604160045260245ffd5b6200021382620001cb565b810181811067ffffffffffffffff82111715620002355762000234620001db565b5b80604052505050565b5f6200024962000151565b905062000257828262000208565b919050565b5f67ffffffffffffffff821115620002795762000278620001db565b5b6200028482620001cb565b9050602081019050919050565b5f5b83811015620002b057808201518184015260208101905062000293565b5f8484015250505050565b5f620002d1620002cb846200025c565b6200023e565b905082815260208101848484011115620002f057620002ef620001c7565b5b620002fd84828562000291565b509392505050565b5f82601f8301126200031c576200031b620001c3565b5b81516200032e848260208601620002bb565b91505092915050565b5f805f805f8060c087890312156200035457620003536200015a565b5b5f6200036389828a01620001ad565b96505060206200037689828a01620001ad565b95505060406200038989828a01620001ad565b94505060606200039c89828a01620001ad565b935050608087015167ffffffffffffffff811115620003c057620003bf6200015e565b5b620003ce89828a0162000305565b92505060a087015167ffffffffffffffff811115620003f257620003f16200015e565b5b6200040089828a0162000305565b9150509295509295509295565b5f81519050919050565b7f4e487b71000000000000000000000000000000000000000000000000000000005f52602260045260245ffd5b5f60028204905060018216806200045c57607f821691505b60208210810362000472576200047162000417565b5b50919050565b5f819050815f5260205f209050919050565b5f6020601f8301049050919050565b5f82821b905092915050565b5f60088302620004d67fffffffffffffffffffffffffffffffffffffffffffffffffffffffffffffffff8262000499565b620004e2868362000499565b95508019841693508086168417925050509392505050565b5f819050919050565b5f819050919050565b5f6200052c620005266200052084620004fa565b62000503565b620004fa565b9050919050565b5f819050919050565b62000547836200050c565b6200055f620005568262000533565b848454620004a5565b825550505050565b5f90565b6200057562000567565b620005828184846200053c565b505050565b5b81811015620005a9576200059d5f826200056b565b60018101905062000588565b5050565b601f821115620005f857620005c28162000478565b620005cd846200048a565b81016020851015620005dd578190505b620005f5620005ec856200048a565b83018262000587565b50505b505050565b5f82821c905092915050565b5f6200061a5f1984600802620005fd565b1980831691505092915050565b5f62000634838362000609565b9150826002028217905092915050565b6200064f826200040d565b67ffffffffffffffff8111156200066b576200066a620001db565b5b62000677825462000444565b62000684828285620005ad565b5f60209050601f831160018114620006ba575f8415620006a5578287015190505b620006b1858262000627565b86555062000720565b601f198416620006ca8662000478565b5f5b82811015620006f357848901518255600182019150602085019450602081019050620006cc565b868310156200071357848901516200070f601f89168262000609565b8355505b6001600288020188555050505b505050505050565b60805160a05160c05160e051611a87620007d35f395f8181610478015281816107d70152818161086d01526108fd01525f8181610ed501528181610fbe015261111a01525f818161049e01528181610577015281816107060152818161072c0152818161098d01528181610b1701528181610ca001528181610d7901528181610f82015261104b01525f81816106e2015281816109e301528181610ac101526110870152611a875ff3fe608060405234801561000f575f80fd5b50600436106100e8575f3560e01c80635ee04d781161008a578063a9059cbb11610064578063a9059cbb1461024e578063c57981b51461027e578063d82649201461029c578063dd62ed3e146102ba576100e8565b80635ee04d78146101e257806370a082311461020057806395d89b4114610230576100e8565b80631d610577116100c65780631d6105771461015857806323b872dd14610176578063313ce567146101a6578063443ec74d146101c4576100e8565b806306fdde03146100ec578063095ea7b31461010a57806318160ddd1461013a575b5f80fd5b6100f46102ea565b6040516101019190611241565b60405180910390f35b610124600480360381019061011f91906112f2565b610379565b604051610131919061134a565b60405180910390f35b610142610472565b60405161014f9190611372565b60405180910390f35b610160610476565b60405161016d919061139a565b60405180910390f35b610190600480360381019061018b91906113b3565b61049a565b60405161019d919061134a565b60405180910390f35b6101ae6106cb565b6040516101bb919061141e565b60405180910390f35b6101cc6106e0565b6040516101d9919061139a565b60405180910390f35b6101ea610704565b6040516101f7919061139a565b60405180910390f35b61021a60048036038101906102159190611437565b610728565b6040516102279190611372565b60405180910390f35b610238610c01565b6040516102459190611241565b60405180910390f35b610268600480360381019061026391906112f2565b610c91565b604051610275919061134a565b60405180910390f35b610286610ecd565b604051610293919061147f565b60405180910390f35b6102a4610ed3565b6040516102b1919061139a565b60405180910390f35b6102d460048036038101906102cf9190611498565b610ef7565b6040516102e19190611372565b60405180910390f35b60605f80546102f890611503565b80601f016020809104026020016040519081016040528092919081815260200182805461032490611503565b801561036f5780601f106103465761010080835404028352916020019161036f565b820191905f5260205f20905b81548152906001019060200180831161035257829003601f168201915b5050505050905090565b5f80610383610f79565b90508260035f8373ffffffffffffffffffffffffffffffffffffffff1673ffffffffffffffffffffffffffffffffffffffff1681526020019081526020015f205f8673ffffffffffffffffffffffffffffffffffffffff1673ffffffffffffffffffffffffffffffffffffffff1681526020019081526020015f20819055508373ffffffffffffffffffffffffffffffffffffffff168173ffffffffffffffffffffffffffffffffffffffff167f8c5be1e5ebec7d5bd14f71427d1e84f3dd0314c0f7b2291e5b200ac8c7c3b9258560405161045f9190611372565b60405180910390a3600191505092915050565b5f90565b7f000000000000000000000000000000000000000000000000000000000000000081565b5f817f000000000000000000000000000000000000000000000000000000000000000073ffffffffffffffffffffffffffffffffffffffff166370a08231866040518263ffffffff1660e01b81526004016104f5919061139a565b602060405180830381865afa158015610510573d5f803e3d5ffd5b505050506040513d601f19601f820116820180604052508101906105349190611547565b1015610575576040517f08c379a000000000000000000000000000000000000000000000000000000000815260040161056c906115bc565b60405180910390fd5b7f000000000000000000000000000000000000000000000000000000000000000073ffffffffffffffffffffffffffffffffffffffff166323b872dd8530856040518463ffffffff1660e01b81526004016105d2939291906115da565b6020604051808303815f875af11580156105ee573d5f803e3d5ffd5b505050506040513d601f19601f820116820180604052508101906106129190611639565b610651576040517f08c379a0000000000000000000000000000000000000000000000000000000008152600401610648906116ae565b60405180910390fd5b61065b8383610f80565b8273ffffffffffffffffffffffffffffffffffffffff168473ffffffffffffffffffffffffffffffffffffffff167fddf252ad1be2c89b69c2b068fc378daa952ba7f163c4a11628f55a4df523b3ef846040516106b89190611372565b60405180910390a3600190509392505050565b5f60025f9054906101000a900460ff16905090565b7f000000000000000000000000000000000000000000000000000000000000000081565b7f000000000000000000000000000000000000000000000000000000000000000081565b5f807f000000000000000000000000000000000000000000000000000000000000000073ffffffffffffffffffffffffffffffffffffffff166370a08231846040518263ffffffff1660e01b8152600401610783919061139a565b602060405180830381865afa15801561079e573d5f803e3d5ffd5b505050506040513d601f19601f820116820180604052508101906107c29190611547565b90505f81036107d4575f915050610bfc565b5f7f000000000000000000000000000000000000000000000000000000000000000073ffffffffffffffffffffffffffffffffffffffff16633850c7bd6040518163ffffffff1660e01b815260040160e060405180830381865afa15801561083e573d5f803e3d5ffd5b505050506040513d601f19601f82011682018060405250810190610862919061178d565b50505050505090505f7f000000000000000000000000000000000000000000000000000000000000000073ffffffffffffffffffffffffffffffffffffffff16630dfe16816040518163ffffffff1660e01b8152600401602060405180830381865afa1580156108d4573d5f803e3d5ffd5b505050506040513d601f19601f820116820180604052508101906108f8919061183e565b90505f7f000000000000000000000000000000000000000000000000000000000000000073ffffffffffffffffffffffffffffffffffffffff1663d21220a76040518163ffffffff1660e01b8152600401602060405180830381865afa158015610964573d5f803e3d5ffd5b505050506040513d601f19601f82011682018060405250810190610988919061183e565b90505f7f000000000000000000000000000000000000000000000000000000000000000073ffffffffffffffffffffffffffffffffffffffff168373ffffffffffffffffffffffffffffffffffffffff16148015610a3157507f000000000000000000000000000000000000000000000000000000000000000073ffffffffffffffffffffffffffffffffffffffff168273ffffffffffffffffffffffffffffffffffffffff16145b15610abf5778010000000000000000000000000000000000000000000000008473ffffffffffffffffffffffffffffffffffffffff168573ffffffffffffffffffffffffffffffffffffffff16610a889190611896565b610a929190611904565b9050670de0b6b3a76400008186610aa99190611896565b610ab39190611904565b95505050505050610bfc565b7f000000000000000000000000000000000000000000000000000000000000000073ffffffffffffffffffffffffffffffffffffffff168373ffffffffffffffffffffffffffffffffffffffff16148015610b6557507f000000000000000000000000000000000000000000000000000000000000000073ffffffffffffffffffffffffffffffffffffffff168273ffffffffffffffffffffffffffffffffffffffff16145b15610bf3578373ffffffffffffffffffffffffffffffffffffffff168473ffffffffffffffffffffffffffffffffffffffff16610ba29190611896565b7801000000000000000000000000000000000000000000000000610bc69190611904565b9050670de0b6b3a76400008186610bdd9190611896565b610be79190611904565b95505050505050610bfc565b5f955050505050505b919050565b606060018054610c1090611503565b80601f0160208091040260200160405190810160405280929190818152602001828054610c3c90611503565b8015610c875780601f10610c5e57610100808354040283529160200191610c87565b820191905f5260205f20905b815481529060010190602001808311610c6a57829003601f168201915b5050505050905090565b5f80610c9b610f79565b9050827f000000000000000000000000000000000000000000000000000000000000000073ffffffffffffffffffffffffffffffffffffffff166370a08231836040518263ffffffff1660e01b8152600401610cf7919061139a565b602060405180830381865afa158015610d12573d5f803e3d5ffd5b505050506040513d601f19601f82011682018060405250810190610d369190611547565b1015610d77576040517f08c379a0000000000000000000000000000000000000000000000000000000008152600401610d6e906115bc565b60405180910390fd5b7f000000000000000000000000000000000000000000000000000000000000000073ffffffffffffffffffffffffffffffffffffffff166323b872dd8230866040518463ffffffff1660e01b8152600401610dd4939291906115da565b6020604051808303815f875af1158015610df0573d5f803e3d5ffd5b505050506040513d601f19601f82011682018060405250810190610e149190611639565b610e53576040517f08c379a0000000000000000000000000000000000000000000000000000000008152600401610e4a906116ae565b60405180910390fd5b610e5d8484610f80565b8373ffffffffffffffffffffffffffffffffffffffff168173ffffffffffffffffffffffffffffffffffffffff167fddf252ad1be2c89b69c2b068fc378daa952ba7f163c4a11628f55a4df523b3ef85604051610eba9190611372565b60405180910390a3600191505092915050565b610bb881565b7f000000000000000000000000000000000000000000000000000000000000000081565b5f60035f8473ffffffffffffffffffffffffffffffffffffffff1673ffffffffffffffffffffffffffffffffffffffff1681526020019081526020015f205f8373ffffffffffffffffffffffffffffffffffffffff1673ffffffffffffffffffffffffffffffffffffffff1681526020019081526020015f2054905092915050565b5f33905090565b7f000000000000000000000000000000000000000000000000000000000000000073ffffffffffffffffffffffffffffffffffffffff1663095ea7b37f0000000000000000000000000000000000000000000000000000000000000000836040518363ffffffff1660e01b8152600401610ffb929190611934565b6020604051808303815f875af1158015611017573d5f803e3d5ffd5b505050506040513d601f19601f8201168201806040525081019061103b9190611639565b505f6040518061010001604052807f000000000000000000000000000000000000000000000000000000000000000073ffffffffffffffffffffffffffffffffffffffff1681526020017f000000000000000000000000000000000000000000000000000000000000000073ffffffffffffffffffffffffffffffffffffffff168152602001610bb862ffffff1681526020018473ffffffffffffffffffffffffffffffffffffffff1681526020014281526020018381526020015f81526020015f73ffffffffffffffffffffffffffffffffffffffff1681525090507f000000000000000000000000000000000000000000000000000000000000000073ffffffffffffffffffffffffffffffffffffffff1663414bf389826040518263ffffffff1660e01b81526004016111719190611a37565b6020604051808303815f875af115801561118d573d5f803e3d5ffd5b505050506040513d601f19601f820116820180604052508101906111b19190611547565b50505050565b5f81519050919050565b5f82825260208201905092915050565b5f5b838110156111ee5780820151818401526020810190506111d3565b5f8484015250505050565b5f601f19601f8301169050919050565b5f611213826111b7565b61121d81856111c1565b935061122d8185602086016111d1565b611236816111f9565b840191505092915050565b5f6020820190508181035f8301526112598184611209565b905092915050565b5f80fd5b5f73ffffffffffffffffffffffffffffffffffffffff82169050919050565b5f61128e82611265565b9050919050565b61129e81611284565b81146112a8575f80fd5b50565b5f813590506112b981611295565b92915050565b5f819050919050565b6112d1816112bf565b81146112db575f80fd5b50565b5f813590506112ec816112c8565b92915050565b5f806040838503121561130857611307611261565b5b5f611315858286016112ab565b9250506020611326858286016112de565b9150509250929050565b5f8115159050919050565b61134481611330565b82525050565b5f60208201905061135d5f83018461133b565b92915050565b61136c816112bf565b82525050565b5f6020820190506113855f830184611363565b92915050565b61139481611284565b82525050565b5f6020820190506113ad5f83018461138b565b92915050565b5f805f606084860312156113ca576113c9611261565b5b5f6113d7868287016112ab565b93505060206113e8868287016112ab565b92505060406113f9868287016112de565b9150509250925092565b5f60ff82169050919050565b61141881611403565b82525050565b5f6020820190506114315f83018461140f565b92915050565b5f6020828403121561144c5761144b611261565b5b5f611459848285016112ab565b91505092915050565b5f62ffffff82169050919050565b61147981611462565b82525050565b5f6020820190506114925f830184611470565b92915050565b5f80604083850312156114ae576114ad611261565b5b5f6114bb858286016112ab565b92505060206114cc858286016112ab565b9150509250929050565b7f4e487b71000000000000000000000000000000000000000000000000000000005f52602260045260245ffd5b5f600282049050600182168061151a57607f821691505b60208210810361152d5761152c6114d6565b5b50919050565b5f81519050611541816112c8565b92915050565b5f6020828403121561155c5761155b611261565b5b5f61156984828501611533565b91505092915050565b7f496e73756666696369656e742062616c616e63650000000000000000000000005f82015250565b5f6115a66014836111c1565b91506115b182611572565b602082019050919050565b5f6020820190508181035f8301526115d38161159a565b9050919050565b5f6060820190506115ed5f83018661138b565b6115fa602083018561138b565b6116076040830184611363565b949350505050565b61161881611330565b8114611622575f80fd5b50565b5f815190506116338161160f565b92915050565b5f6020828403121561164e5761164d611261565b5b5f61165b84828501611625565b91505092915050565b7f7472616e73666572206661696c656400000000000000000000000000000000005f82015250565b5f611698600f836111c1565b91506116a382611664565b602082019050919050565b5f6020820190508181035f8301526116c58161168c565b9050919050565b6116d581611265565b81146116df575f80fd5b50565b5f815190506116f0816116cc565b92915050565b5f8160020b9050919050565b61170b816116f6565b8114611715575f80fd5b50565b5f8151905061172681611702565b92915050565b5f61ffff82169050919050565b6117428161172c565b811461174c575f80fd5b50565b5f8151905061175d81611739565b92915050565b61176c81611403565b8114611776575f80fd5b50565b5f8151905061178781611763565b92915050565b5f805f805f805f60e0888a0312156117a8576117a7611261565b5b5f6117b58a828b016116e2565b97505060206117c68a828b01611718565b96505060406117d78a828b0161174f565b95505060606117e88a828b0161174f565b94505060806117f98a828b0161174f565b93505060a061180a8a828b01611779565b92505060c061181b8a828b01611625565b91505092959891949750929550565b5f8151905061183881611295565b92915050565b5f6020828403121561185357611852611261565b5b5f6118608482850161182a565b91505092915050565b7f4e487b71000000000000000000000000000000000000000000000000000000005f52601160045260245ffd5b5f6118a0826112bf565b91506118ab836112bf565b92508282026118b9816112bf565b915082820484148315176118d0576118cf611869565b5b5092915050565b7f4e487b71000000000000000000000000000000000000000000000000000000005f52601260045260245ffd5b5f61190e826112bf565b9150611919836112bf565b925082611929576119286118d7565b5b828204905092915050565b5f6040820190506119475f83018561138b565b6119546020830184611363565b9392505050565b61196481611284565b82525050565b61197381611462565b82525050565b611982816112bf565b82525050565b61199181611265565b82525050565b61010082015f8201516119ac5f85018261195b565b5060208201516119bf602085018261195b565b5060408201516119d2604085018261196a565b5060608201516119e5606085018261195b565b5060808201516119f86080850182611979565b5060a0820151611a0b60a0850182611979565b5060c0820151611a1e60c0850182611979565b5060e0820151611a3160e0850182611988565b50505050565b5f61010082019050611a4b5f830184611997565b9291505056fea26469706673582212201617a04665902e419fce999817b3e5cba60f8c1e128eedc4c070a775a6e66e1864736f6c63430008180033",
					"opcodes": "PUSH2 0x100 PUSH1 0x40 MSTORE PUSH1 0x12 PUSH1 0x2 PUSH0 PUSH2 0x100 EXP DUP2 SLOAD DUP2 PUSH1 0xFF MUL NOT AND SWAP1 DUP4 PUSH1 0xFF AND MUL OR SWAP1 SSTORE POP CALLVALUE DUP1 ISZERO PUSH3 0x2C JUMPI PUSH0 DUP1 REVERT JUMPDEST POP PUSH1 0x40 MLOAD PUSH3 0x225A CODESIZE SUB DUP1 PUSH3 0x225A DUP4 CODECOPY DUP2 DUP2 ADD PUSH1 0x40 MSTORE DUP2 ADD SWAP1 PUSH3 0x52 SWAP2 SWAP1 PUSH3 0x337 JUMP JUMPDEST DUP6 PUSH20 0xFFFFFFFFFFFFFFFFFFFFFFFFFFFFFFFFFFFFFFFF AND PUSH1 0x80 DUP2 PUSH20 0xFFFFFFFFFFFFFFFFFFFFFFFFFFFFFFFFFFFFFFFF AND DUP2 MSTORE POP POP DUP5 PUSH20 0xFFFFFFFFFFFFFFFFFFFFFFFFFFFFFFFFFFFFFFFF AND PUSH1 0xA0 DUP2 PUSH20 0xFFFFFFFFFFFFFFFFFFFFFFFFFFFFFFFFFFFFFFFF AND DUP2 MSTORE POP POP DUP4 PUSH20 0xFFFFFFFFFFFFFFFFFFFFFFFFFFFFFFFFFFFFFFFF AND PUSH1 0xC0 DUP2 PUSH20 0xFFFFFFFFFFFFFFFFFFFFFFFFFFFFFFFFFFFFFFFF AND DUP2 MSTORE POP POP DUP3 PUSH20 0xFFFFFFFFFFFFFFFFFFFFFFFFFFFFFFFFFFFFFFFF AND PUSH1 0xE0 DUP2 PUSH20 0xFFFFFFFFFFFFFFFFFFFFFFFFFFFFFFFFFFFFFFFF AND DUP2 MSTORE POP POP DUP2 PUSH0 SWAP1 DUP2 PUSH3 0x132 SWAP2 SWAP1 PUSH3 0x644 JUMP JUMPDEST POP DUP1 PUSH1 0x1 SWAP1 DUP2 PUSH3 0x144 SWAP2 SWAP1 PUSH3 0x644 JUMP JUMPDEST POP POP POP POP POP POP POP PUSH3 0x728 JUMP JUMPDEST PUSH0 PUSH1 0x40 MLOAD SWAP1 POP SWAP1 JUMP JUMPDEST PUSH0 DUP1 REVERT JUMPDEST PUSH0 DUP1 REVERT JUMPDEST PUSH0 PUSH20 0xFFFFFFFFFFFFFFFFFFFFFFFFFFFFFFFFFFFFFFFF DUP3 AND SWAP1 POP SWAP2 SWAP1 POP JUMP JUMPDEST PUSH0 PUSH3 0x18D DUP3 PUSH3 0x162 JUMP JUMPDEST SWAP1 POP SWAP2 SWAP1 POP JUMP JUMPDEST PUSH3 0x19F DUP2 PUSH3 0x181 JUMP JUMPDEST DUP2 EQ PUSH3 0x1AA JUMPI PUSH0 DUP1 REVERT JUMPDEST POP JUMP JUMPDEST PUSH0 DUP2 MLOAD SWAP1 POP PUSH3 0x1BD DUP2 PUSH3 0x194 JUMP JUMPDEST SWAP3 SWAP2 POP POP JUMP JUMPDEST PUSH0 DUP1 REVERT JUMPDEST PUSH0 DUP1 REVERT JUMPDEST PUSH0 PUSH1 0x1F NOT PUSH1 0x1F DUP4 ADD AND SWAP1 POP SWAP2 SWAP1 POP JUMP JUMPDEST PUSH32 0x4E487B7100000000000000000000000000000000000000000000000000000000 PUSH0 MSTORE PUSH1 0x41 PUSH1 0x4 MSTORE PUSH1 0x24 PUSH0 REVERT JUMPDEST PUSH3 0x213 DUP3 PUSH3 0x1CB JUMP JUMPDEST DUP2 ADD DUP2 DUP2 LT PUSH8 0xFFFFFFFFFFFFFFFF DUP3 GT OR ISZERO PUSH3 0x235 JUMPI PUSH3 0x234 PUSH3 0x1DB JUMP JUMPDEST JUMPDEST DUP1 PUSH1 0x40 MSTORE POP POP POP JUMP JUMPDEST PUSH0 PUSH3 0x249 PUSH3 0x151 JUMP JUMPDEST SWAP1 POP PUSH3 0x257 DUP3 DUP3 PUSH3 0x208 JUMP JUMPDEST SWAP2 SWAP1 POP JUMP JUMPDEST PUSH0 PUSH8 0xFFFFFFFFFFFFFFFF DUP3 GT ISZERO PUSH3 0x279 JUMPI PUSH3 0x278 PUSH3 0x1DB JUMP JUMPDEST JUMPDEST PUSH3 0x284 DUP3 PUSH3 0x1CB JUMP JUMPDEST SWAP1 POP PUSH1 0x20 DUP2 ADD SWAP1 POP SWAP2 SWAP1 POP JUMP JUMPDEST PUSH0 JUMPDEST DUP4 DUP2 LT ISZERO PUSH3 0x2B0 JUMPI DUP1 DUP3 ADD MLOAD DUP2 DUP5 ADD MSTORE PUSH1 0x20 DUP2 ADD SWAP1 POP PUSH3 0x293 JUMP JUMPDEST PUSH0 DUP5 DUP5 ADD MSTORE POP POP POP POP JUMP JUMPDEST PUSH0 PUSH3 0x2D1 PUSH3 0x2CB DUP5 PUSH3 0x25C JUMP JUMPDEST PUSH3 0x23E JUMP JUMPDEST SWAP1 POP DUP3 DUP2 MSTORE PUSH1 0x20 DUP2 ADD DUP5 DUP5 DUP5 ADD GT ISZERO PUSH3 0x2F0 JUMPI PUSH3 0x2EF PUSH3 0x1C7 JUMP JUMPDEST JUMPDEST PUSH3 0x2FD DUP5 DUP3 DUP6 PUSH3 0x291 JUMP JUMPDEST POP SWAP4 SWAP3 POP POP POP JUMP JUMPDEST PUSH0 DUP3 PUSH1 0x1F DUP4 ADD SLT PUSH3 0x31C JUMPI PUSH3 0x31B PUSH3 0x1C3 JUMP JUMPDEST JUMPDEST DUP2 MLOAD PUSH3 0x32E DUP5 DUP3 PUSH1 0x20 DUP7 ADD PUSH3 0x2BB JUMP JUMPDEST SWAP2 POP POP SWAP3 SWAP2 POP POP JUMP JUMPDEST PUSH0 DUP1 PUSH0 DUP1 PUSH0 DUP1 PUSH1 0xC0 DUP8 DUP10 SUB SLT ISZERO PUSH3 0x354 JUMPI PUSH3 0x353 PUSH3 0x15A JUMP JUMPDEST JUMPDEST PUSH0 PUSH3 0x363 DUP10 DUP3 DUP11 ADD PUSH3 0x1AD JUMP JUMPDEST SWAP7 POP POP PUSH1 0x20 PUSH3 0x376 DUP10 DUP3 DUP11 ADD PUSH3 0x1AD JUMP JUMPDEST SWAP6 POP POP PUSH1 0x40 PUSH3 0x389 DUP10 DUP3 DUP11 ADD PUSH3 0x1AD JUMP JUMPDEST SWAP5 POP POP PUSH1 0x60 PUSH3 0x39C DUP10 DUP3 DUP11 ADD PUSH3 0x1AD JUMP JUMPDEST SWAP4 POP POP PUSH1 0x80 DUP8 ADD MLOAD PUSH8 0xFFFFFFFFFFFFFFFF DUP2 GT ISZERO PUSH3 0x3C0 JUMPI PUSH3 0x3BF PUSH3 0x15E JUMP JUMPDEST JUMPDEST PUSH3 0x3CE DUP10 DUP3 DUP11 ADD PUSH3 0x305 JUMP JUMPDEST SWAP3 POP POP PUSH1 0xA0 DUP8 ADD MLOAD PUSH8 0xFFFFFFFFFFFFFFFF DUP2 GT ISZERO PUSH3 0x3F2 JUMPI PUSH3 0x3F1 PUSH3 0x15E JUMP JUMPDEST JUMPDEST PUSH3 0x400 DUP10 DUP3 DUP11 ADD PUSH3 0x305 JUMP JUMPDEST SWAP2 POP POP SWAP3 SWAP6 POP SWAP3 SWAP6 POP SWAP3 SWAP6 JUMP JUMPDEST PUSH0 DUP2 MLOAD SWAP1 POP SWAP2 SWAP1 POP JUMP JUMPDEST PUSH32 0x4E487B7100000000000000000000000000000000000000000000000000000000 PUSH0 MSTORE PUSH1 0x22 PUSH1 0x4 MSTORE PUSH1 0x24 PUSH0 REVERT JUMPDEST PUSH0 PUSH1 0x2 DUP3 DIV SWAP1 POP PUSH1 0x1 DUP3 AND DUP1 PUSH3 0x45C JUMPI PUSH1 0x7F DUP3 AND SWAP2 POP JUMPDEST PUSH1 0x20 DUP3 LT DUP2 SUB PUSH3 0x472 JUMPI PUSH3 0x471 PUSH3 0x417 JUMP JUMPDEST JUMPDEST POP SWAP2 SWAP1 POP JUMP JUMPDEST PUSH0 DUP2 SWAP1 POP DUP2 PUSH0 MSTORE PUSH1 0x20 PUSH0 KECCAK256 SWAP1 POP SWAP2 SWAP1 POP JUMP JUMPDEST PUSH0 PUSH1 0x20 PUSH1 0x1F DUP4 ADD DIV SWAP1 POP SWAP2 SWAP1 POP JUMP JUMPDEST PUSH0 DUP3 DUP3 SHL SWAP1 POP SWAP3 SWAP2 POP POP JUMP JUMPDEST PUSH0 PUSH1 0x8 DUP4 MUL PUSH3 0x4D6 PUSH32 0xFFFFFFFFFFFFFFFFFFFFFFFFFFFFFFFFFFFFFFFFFFFFFFFFFFFFFFFFFFFFFFFF DUP3 PUSH3 0x499 JUMP JUMPDEST PUSH3 0x4E2 DUP7 DUP4 PUSH3 0x499 JUMP JUMPDEST SWAP6 POP DUP1 NOT DUP5 AND SWAP4 POP DUP1 DUP7 AND DUP5 OR SWAP3 POP POP POP SWAP4 SWAP3 POP POP POP JUMP JUMPDEST PUSH0 DUP2 SWAP1 POP SWAP2 SWAP1 POP JUMP JUMPDEST PUSH0 DUP2 SWAP1 POP SWAP2 SWAP1 POP JUMP JUMPDEST PUSH0 PUSH3 0x52C PUSH3 0x526 PUSH3 0x520 DUP5 PUSH3 0x4FA JUMP JUMPDEST PUSH3 0x503 JUMP JUMPDEST PUSH3 0x4FA JUMP JUMPDEST SWAP1 POP SWAP2 SWAP1 POP JUMP JUMPDEST PUSH0 DUP2 SWAP1 POP SWAP2 SWAP1 POP JUMP JUMPDEST PUSH3 0x547 DUP4 PUSH3 0x50C JUMP JUMPDEST PUSH3 0x55F PUSH3 0x556 DUP3 PUSH3 0x533 JUMP JUMPDEST DUP5 DUP5 SLOAD PUSH3 0x4A5 JUMP JUMPDEST DUP3 SSTORE POP POP POP POP JUMP JUMPDEST PUSH0 SWAP1 JUMP JUMPDEST PUSH3 0x575 PUSH3 0x567 JUMP JUMPDEST PUSH3 0x582 DUP2 DUP5 DUP5 PUSH3 0x53C JUMP JUMPDEST POP POP POP JUMP JUMPDEST JUMPDEST DUP2 DUP2 LT ISZERO PUSH3 0x5A9 JUMPI PUSH3 0x59D PUSH0 DUP3 PUSH3 0x56B JUMP JUMPDEST PUSH1 0x1 DUP2 ADD SWAP1 POP PUSH3 0x588 JUMP JUMPDEST POP POP JUMP JUMPDEST PUSH1 0x1F DUP3 GT ISZERO PUSH3 0x5F8 JUMPI PUSH3 0x5C2 DUP2 PUSH3 0x478 JUMP JUMPDEST PUSH3 0x5CD DUP5 PUSH3 0x48A JUMP JUMPDEST DUP2 ADD PUSH1 0x20 DUP6 LT ISZERO PUSH3 0x5DD JUMPI DUP2 SWAP1 POP JUMPDEST PUSH3 0x5F5 PUSH3 0x5EC DUP6 PUSH3 0x48A JUMP JUMPDEST DUP4 ADD DUP3 PUSH3 0x587 JUMP JUMPDEST POP POP JUMPDEST POP POP POP JUMP JUMPDEST PUSH0 DUP3 DUP3 SHR SWAP1 POP SWAP3 SWAP2 POP POP JUMP JUMPDEST PUSH0 PUSH3 0x61A PUSH0 NOT DUP5 PUSH1 0x8 MUL PUSH3 0x5FD JUMP JUMPDEST NOT DUP1 DUP4 AND SWAP2 POP POP SWAP3 SWAP2 POP POP JUMP JUMPDEST PUSH0 PUSH3 0x634 DUP4 DUP4 PUSH3 0x609 JUMP JUMPDEST SWAP2 POP DUP3 PUSH1 0x2 MUL DUP3 OR SWAP1 POP SWAP3 SWAP2 POP POP JUMP JUMPDEST PUSH3 0x64F DUP3 PUSH3 0x40D JUMP JUMPDEST PUSH8 0xFFFFFFFFFFFFFFFF DUP2 GT ISZERO PUSH3 0x66B JUMPI PUSH3 0x66A PUSH3 0x1DB JUMP JUMPDEST JUMPDEST PUSH3 0x677 DUP3 SLOAD PUSH3 0x444 JUMP JUMPDEST PUSH3 0x684 DUP3 DUP3 DUP6 PUSH3 0x5AD JUMP JUMPDEST PUSH0 PUSH1 0x20 SWAP1 POP PUSH1 0x1F DUP4 GT PUSH1 0x1 DUP2 EQ PUSH3 0x6BA JUMPI PUSH0 DUP5 ISZERO PUSH3 0x6A5 JUMPI DUP3 DUP8 ADD MLOAD SWAP1 POP JUMPDEST PUSH3 0x6B1 DUP6 DUP3 PUSH3 0x627 JUMP JUMPDEST DUP7 SSTORE POP PUSH3 0x720 JUMP JUMPDEST PUSH1 0x1F NOT DUP5 AND PUSH3 0x6CA DUP7 PUSH3 0x478 JUMP JUMPDEST PUSH0 JUMPDEST DUP3 DUP2 LT ISZERO PUSH3 0x6F3 JUMPI DUP5 DUP10 ADD MLOAD DUP3 SSTORE PUSH1 0x1 DUP3 ADD SWAP2 POP PUSH1 0x20 DUP6 ADD SWAP5 POP PUSH1 0x20 DUP2 ADD SWAP1 POP PUSH3 0x6CC JUMP JUMPDEST DUP7 DUP4 LT ISZERO PUSH3 0x713 JUMPI DUP5 DUP10 ADD MLOAD PUSH3 0x70F PUSH1 0x1F DUP10 AND DUP3 PUSH3 0x609 JUMP JUMPDEST DUP4 SSTORE POP JUMPDEST PUSH1 0x1 PUSH1 0x2 DUP9 MUL ADD DUP9 SSTORE POP POP POP JUMPDEST POP POP POP POP POP POP JUMP JUMPDEST PUSH1 0x80 MLOAD PUSH1 0xA0 MLOAD PUSH1 0xC0 MLOAD PUSH1 0xE0 MLOAD PUSH2 0x1A87 PUSH3 0x7D3 PUSH0 CODECOPY PUSH0 DUP2 DUP2 PUSH2 0x478 ADD MSTORE DUP2 DUP2 PUSH2 0x7D7 ADD MSTORE DUP2 DUP2 PUSH2 0x86D ADD MSTORE PUSH2 0x8FD ADD MSTORE PUSH0 DUP2 DUP2 PUSH2 0xED5 ADD MSTORE DUP2 DUP2 PUSH2 0xFBE ADD MSTORE PUSH2 0x111A ADD MSTORE PUSH0 DUP2 DUP2 PUSH2 0x49E ADD MSTORE DUP2 DUP2 PUSH2 0x577 ADD MSTORE DUP2 DUP2 PUSH2 0x706 ADD MSTORE DUP2 DUP2 PUSH2 0x72C ADD MSTORE DUP2 DUP2 PUSH2 0x98D ADD MSTORE DUP2 DUP2 PUSH2 0xB17 ADD MSTORE DUP2 DUP2 PUSH2 0xCA0 ADD MSTORE DUP2 DUP2 PUSH2 0xD79 ADD MSTORE DUP2 DUP2 PUSH2 0xF82 ADD MSTORE PUSH2 0x104B ADD MSTORE PUSH0 DUP2 DUP2 PUSH2 0x6E2 ADD MSTORE DUP2 DUP2 PUSH2 0x9E3 ADD MSTORE DUP2 DUP2 PUSH2 0xAC1 ADD MSTORE PUSH2 0x1087 ADD MSTORE PUSH2 0x1A87 PUSH0 RETURN INVALID PUSH1 0x80 PUSH1 0x40 MSTORE CALLVALUE DUP1 ISZERO PUSH2 0xF JUMPI PUSH0 DUP1 REVERT JUMPDEST POP PUSH1 0x4 CALLDATASIZE LT PUSH2 0xE8 JUMPI PUSH0 CALLDATALOAD PUSH1 0xE0 SHR DUP1 PUSH4 0x5EE04D78 GT PUSH2 0x8A JUMPI DUP1 PUSH4 0xA9059CBB GT PUSH2 0x64 JUMPI DUP1 PUSH4 0xA9059CBB EQ PUSH2 0x24E JUMPI DUP1 PUSH4 0xC57981B5 EQ PUSH2 0x27E JUMPI DUP1 PUSH4 0xD8264920 EQ PUSH2 0x29C JUMPI DUP1 PUSH4 0xDD62ED3E EQ PUSH2 0x2BA JUMPI PUSH2 0xE8 JUMP JUMPDEST DUP1 PUSH4 0x5EE04D78 EQ PUSH2 0x1E2 JUMPI DUP1 PUSH4 0x70A08231 EQ PUSH2 0x200 JUMPI DUP1 PUSH4 0x95D89B41 EQ PUSH2 0x230 JUMPI PUSH2 0xE8 JUMP JUMPDEST DUP1 PUSH4 0x1D610577 GT PUSH2 0xC6 JUMPI DUP1 PUSH4 0x1D610577 EQ PUSH2 0x158 JUMPI DUP1 PUSH4 0x23B872DD EQ PUSH2 0x176 JUMPI DUP1 PUSH4 0x313CE567 EQ PUSH2 0x1A6 JUMPI DUP1 PUSH4 0x443EC74D EQ PUSH2 0x1C4 JUMPI PUSH2 0xE8 JUMP JUMPDEST DUP1 PUSH4 0x6FDDE03 EQ PUSH2 0xEC JUMPI DUP1 PUSH4 0x95EA7B3 EQ PUSH2 0x10A JUMPI DUP1 PUSH4 0x18160DDD EQ PUSH2 0x13A JUMPI JUMPDEST PUSH0 DUP1 REVERT JUMPDEST PUSH2 0xF4 PUSH2 0x2EA JUMP JUMPDEST PUSH1 0x40 MLOAD PUSH2 0x101 SWAP2 SWAP1 PUSH2 0x1241 JUMP JUMPDEST PUSH1 0x40 MLOAD DUP1 SWAP2 SUB SWAP1 RETURN JUMPDEST PUSH2 0x124 PUSH1 0x4 DUP1 CALLDATASIZE SUB DUP2 ADD SWAP1 PUSH2 0x11F SWAP2 SWAP1 PUSH2 0x12F2 JUMP JUMPDEST PUSH2 0x379 JUMP JUMPDEST PUSH1 0x40 MLOAD PUSH2 0x131 SWAP2 SWAP1 PUSH2 0x134A JUMP JUMPDEST PUSH1 0x40 MLOAD DUP1 SWAP2 SUB SWAP1 RETURN JUMPDEST PUSH2 0x142 PUSH2 0x472 JUMP JUMPDEST PUSH1 0x40 MLOAD PUSH2 0x14F SWAP2 SWAP1 PUSH2 0x1372 JUMP JUMPDEST PUSH1 0x40 MLOAD DUP1 SWAP2 SUB SWAP1 RETURN JUMPDEST PUSH2 0x160 PUSH2 0x476 JUMP JUMPDEST PUSH1 0x40 MLOAD PUSH2 0x16D SWAP2 SWAP1 PUSH2 0x139A JUMP JUMPDEST PUSH1 0x40 MLOAD DUP1 SWAP2 SUB SWAP1 RETURN JUMPDEST PUSH2 0x190 PUSH1 0x4 DUP1 CALLDATASIZE SUB DUP2 ADD SWAP1 PUSH2 0x18B SWAP2 SWAP1 PUSH2 0x13B3 JUMP JUMPDEST PUSH2 0x49A JUMP JUMPDEST PUSH1 0x40 MLOAD PUSH2 0x19D SWAP2 SWAP1 PUSH2 0x134A JUMP JUMPDEST PUSH1 0x40 MLOAD DUP1 SWAP2 SUB SWAP1 RETURN JUMPDEST PUSH2 0x1AE PUSH2 0x6CB JUMP JUMPDEST PUSH1 0x40 MLOAD PUSH2 0x1BB SWAP2 SWAP1 PUSH2 0x141E JUMP JUMPDEST PUSH1 0x40 MLOAD DUP1 SWAP2 SUB SWAP1 RETURN JUMPDEST PUSH2 0x1CC PUSH2 0x6E0 JUMP JUMPDEST PUSH1 0x40 MLOAD PUSH2 0x1D9 SWAP2 SWAP1 PUSH2 0x139A JUMP JUMPDEST PUSH1 0x40 MLOAD DUP1 SWAP2 SUB SWAP1 RETURN JUMPDEST PUSH2 0x1EA PUSH2 0x704 JUMP JUMPDEST PUSH1 0x40 MLOAD PUSH2 0x1F7 SWAP2 SWAP1 PUSH2 0x139A JUMP JUMPDEST PUSH1 0x40 MLOAD DUP1 SWAP2 SUB SWAP1 RETURN JUMPDEST PUSH2 0x21A PUSH1 0x4 DUP1 CALLDATASIZE SUB DUP2 ADD SWAP1 PUSH2 0x215 SWAP2 SWAP1 PUSH2 0x1437 JUMP JUMPDEST PUSH2 0x728 JUMP JUMPDEST PUSH1 0x40 MLOAD PUSH2 0x227 SWAP2 SWAP1 PUSH2 0x1372 JUMP JUMPDEST PUSH1 0x40 MLOAD DUP1 SWAP2 SUB SWAP1 RETURN JUMPDEST PUSH2 0x238 PUSH2 0xC01 JUMP JUMPDEST PUSH1 0x40 MLOAD PUSH2 0x245 SWAP2 SWAP1 PUSH2 0x1241 JUMP JUMPDEST PUSH1 0x40 MLOAD DUP1 SWAP2 SUB SWAP1 RETURN JUMPDEST PUSH2 0x268 PUSH1 0x4 DUP1 CALLDATASIZE SUB DUP2 ADD SWAP1 PUSH2 0x263 SWAP2 SWAP1 PUSH2 0x12F2 JUMP JUMPDEST PUSH2 0xC91 JUMP JUMPDEST PUSH1 0x40 MLOAD PUSH2 0x275 SWAP2 SWAP1 PUSH2 0x134A JUMP JUMPDEST PUSH1 0x40 MLOAD DUP1 SWAP2 SUB SWAP1 RETURN JUMPDEST PUSH2 0x286 PUSH2 0xECD JUMP JUMPDEST PUSH1 0x40 MLOAD PUSH2 0x293 SWAP2 SWAP1 PUSH2 0x147F JUMP JUMPDEST PUSH1 0x40 MLOAD DUP1 SWAP2 SUB SWAP1 RETURN JUMPDEST PUSH2 0x2A4 PUSH2 0xED3 JUMP JUMPDEST PUSH1 0x40 MLOAD PUSH2 0x2B1 SWAP2 SWAP1 PUSH2 0x139A JUMP JUMPDEST PUSH1 0x40 MLOAD DUP1 SWAP2 SUB SWAP1 RETURN JUMPDEST PUSH2 0x2D4 PUSH1 0x4 DUP1 CALLDATASIZE SUB DUP2 ADD SWAP1 PUSH2 0x2CF SWAP2 SWAP1 PUSH2 0x1498 JUMP JUMPDEST PUSH2 0xEF7 JUMP JUMPDEST PUSH1 0x40 MLOAD PUSH2 0x2E1 SWAP2 SWAP1 PUSH2 0x1372 JUMP JUMPDEST PUSH1 0x40 MLOAD DUP1 SWAP2 SUB SWAP1 RETURN JUMPDEST PUSH1 0x60 PUSH0 DUP1 SLOAD PUSH2 0x2F8 SWAP1 PUSH2 0x1503 JUMP JUMPDEST DUP1 PUSH1 0x1F ADD PUSH1 0x20 DUP1 SWAP2 DIV MUL PUSH1 0x20 ADD PUSH1 0x40 MLOAD SWAP1 DUP2 ADD PUSH1 0x40 MSTORE DUP1 SWAP3 SWAP2 SWAP1 DUP2 DUP2 MSTORE PUSH1 0x20 ADD DUP3 DUP1 SLOAD PUSH2 0x324 SWAP1 PUSH2 0x1503 JUMP JUMPDEST DUP1 ISZERO PUSH2 0x36F JUMPI DUP1 PUSH1 0x1F LT PUSH2 0x346 JUMPI PUSH2 0x100 DUP1 DUP4 SLOAD DIV MUL DUP4 MSTORE SWAP2 PUSH1 0x20 ADD SWAP2 PUSH2 0x36F JUMP JUMPDEST DUP3 ADD SWAP2 SWAP1 PUSH0 MSTORE PUSH1 0x20 PUSH0 KECCAK256 SWAP1 JUMPDEST DUP2 SLOAD DUP2 MSTORE SWAP1 PUSH1 0x1 ADD SWAP1 PUSH1 0x20 ADD DUP1 DUP4 GT PUSH2 0x352 JUMPI DUP3 SWAP1 SUB PUSH1 0x1F AND DUP3 ADD SWAP2 JUMPDEST POP POP POP POP POP SWAP1 POP SWAP1 JUMP JUMPDEST PUSH0 DUP1 PUSH2 0x383 PUSH2 0xF79 JUMP JUMPDEST SWAP1 POP DUP3 PUSH1 0x3 PUSH0 DUP4 PUSH20 0xFFFFFFFFFFFFFFFFFFFFFFFFFFFFFFFFFFFFFFFF AND PUSH20 0xFFFFFFFFFFFFFFFFFFFFFFFFFFFFFFFFFFFFFFFF AND DUP2 MSTORE PUSH1 0x20 ADD SWAP1 DUP2 MSTORE PUSH1 0x20 ADD PUSH0 KECCAK256 PUSH0 DUP7 PUSH20 0xFFFFFFFFFFFFFFFFFFFFFFFFFFFFFFFFFFFFFFFF AND PUSH20 0xFFFFFFFFFFFFFFFFFFFFFFFFFFFFFFFFFFFFFFFF AND DUP2 MSTORE PUSH1 0x20 ADD SWAP1 DUP2 MSTORE PUSH1 0x20 ADD PUSH0 KECCAK256 DUP2 SWAP1 SSTORE POP DUP4 PUSH20 0xFFFFFFFFFFFFFFFFFFFFFFFFFFFFFFFFFFFFFFFF AND DUP2 PUSH20 0xFFFFFFFFFFFFFFFFFFFFFFFFFFFFFFFFFFFFFFFF AND PUSH32 0x8C5BE1E5EBEC7D5BD14F71427D1E84F3DD0314C0F7B2291E5B200AC8C7C3B925 DUP6 PUSH1 0x40 MLOAD PUSH2 0x45F SWAP2 SWAP1 PUSH2 0x1372 JUMP JUMPDEST PUSH1 0x40 MLOAD DUP1 SWAP2 SUB SWAP1 LOG3 PUSH1 0x1 SWAP2 POP POP SWAP3 SWAP2 POP POP JUMP JUMPDEST PUSH0 SWAP1 JUMP JUMPDEST PUSH32 0x0 DUP2 JUMP JUMPDEST PUSH0 DUP2 PUSH32 0x0 PUSH20 0xFFFFFFFFFFFFFFFFFFFFFFFFFFFFFFFFFFFFFFFF AND PUSH4 0x70A08231 DUP7 PUSH1 0x40 MLOAD DUP3 PUSH4 0xFFFFFFFF AND PUSH1 0xE0 SHL DUP2 MSTORE PUSH1 0x4 ADD PUSH2 0x4F5 SWAP2 SWAP1 PUSH2 0x139A JUMP JUMPDEST PUSH1 0x20 PUSH1 0x40 MLOAD DUP1 DUP4 SUB DUP2 DUP7 GAS STATICCALL ISZERO DUP1 ISZERO PUSH2 0x510 JUMPI RETURNDATASIZE PUSH0 DUP1 RETURNDATACOPY RETURNDATASIZE PUSH0 REVERT JUMPDEST POP POP POP POP PUSH1 0x40 MLOAD RETURNDATASIZE PUSH1 0x1F NOT PUSH1 0x1F DUP3 ADD AND DUP3 ADD DUP1 PUSH1 0x40 MSTORE POP DUP2 ADD SWAP1 PUSH2 0x534 SWAP2 SWAP1 PUSH2 0x1547 JUMP JUMPDEST LT ISZERO PUSH2 0x575 JUMPI PUSH1 0x40 MLOAD PUSH32 0x8C379A000000000000000000000000000000000000000000000000000000000 DUP2 MSTORE PUSH1 0x4 ADD PUSH2 0x56C SWAP1 PUSH2 0x15BC JUMP JUMPDEST PUSH1 0x40 MLOAD DUP1 SWAP2 SUB SWAP1 REVERT JUMPDEST PUSH32 0x0 PUSH20 0xFFFFFFFFFFFFFFFFFFFFFFFFFFFFFFFFFFFFFFFF AND PUSH4 0x23B872DD DUP6 ADDRESS DUP6 PUSH1 0x40 MLOAD DUP5 PUSH4 0xFFFFFFFF AND PUSH1 0xE0 SHL DUP2 MSTORE PUSH1 0x4 ADD PUSH2 0x5D2 SWAP4 SWAP3 SWAP2 SWAP1 PUSH2 0x15DA JUMP JUMPDEST PUSH1 0x20 PUSH1 0x40 MLOAD DUP1 DUP4 SUB DUP2 PUSH0 DUP8 GAS CALL ISZERO DUP1 ISZERO PUSH2 0x5EE JUMPI RETURNDATASIZE PUSH0 DUP1 RETURNDATACOPY RETURNDATASIZE PUSH0 REVERT JUMPDEST POP POP POP POP PUSH1 0x40 MLOAD RETURNDATASIZE PUSH1 0x1F NOT PUSH1 0x1F DUP3 ADD AND DUP3 ADD DUP1 PUSH1 0x40 MSTORE POP DUP2 ADD SWAP1 PUSH2 0x612 SWAP2 SWAP1 PUSH2 0x1639 JUMP JUMPDEST PUSH2 0x651 JUMPI PUSH1 0x40 MLOAD PUSH32 0x8C379A000000000000000000000000000000000000000000000000000000000 DUP2 MSTORE PUSH1 0x4 ADD PUSH2 0x648 SWAP1 PUSH2 0x16AE JUMP JUMPDEST PUSH1 0x40 MLOAD DUP1 SWAP2 SUB SWAP1 REVERT JUMPDEST PUSH2 0x65B DUP4 DUP4 PUSH2 0xF80 JUMP JUMPDEST DUP3 PUSH20 0xFFFFFFFFFFFFFFFFFFFFFFFFFFFFFFFFFFFFFFFF AND DUP5 PUSH20 0xFFFFFFFFFFFFFFFFFFFFFFFFFFFFFFFFFFFFFFFF AND PUSH32 0xDDF252AD1BE2C89B69C2B068FC378DAA952BA7F163C4A11628F55A4DF523B3EF DUP5 PUSH1 0x40 MLOAD PUSH2 0x6B8 SWAP2 SWAP1 PUSH2 0x1372 JUMP JUMPDEST PUSH1 0x40 MLOAD DUP1 SWAP2 SUB SWAP1 LOG3 PUSH1 0x1 SWAP1 POP SWAP4 SWAP3 POP POP POP JUMP JUMPDEST PUSH0 PUSH1 0x2 PUSH0 SWAP1 SLOAD SWAP1 PUSH2 0x100 EXP SWAP1 DIV PUSH1 0xFF AND SWAP1 POP SWAP1 JUMP JUMPDEST PUSH32 0x0 DUP2 JUMP JUMPDEST PUSH32 0x0 DUP2 JUMP JUMPDEST PUSH0 DUP1 PUSH32 0x0 PUSH20 0xFFFFFFFFFFFFFFFFFFFFFFFFFFFFFFFFFFFFFFFF AND PUSH4 0x70A08231 DUP5 PUSH1 0x40 MLOAD DUP3 PUSH4 0xFFFFFFFF AND PUSH1 0xE0 SHL DUP2 MSTORE PUSH1 0x4 ADD PUSH2 0x783 SWAP2 SWAP1 PUSH2 0x139A JUMP JUMPDEST PUSH1 0x20 PUSH1 0x40 MLOAD DUP1 DUP4 SUB DUP2 DUP7 GAS STATICCALL ISZERO DUP1 ISZERO PUSH2 0x79E JUMPI RETURNDATASIZE PUSH0 DUP1 RETURNDATACOPY RETURNDATASIZE PUSH0 REVERT JUMPDEST POP POP POP POP PUSH1 0x40 MLOAD RETURNDATASIZE PUSH1 0x1F NOT PUSH1 0x1F DUP3 ADD AND DUP3 ADD DUP1 PUSH1 0x40 MSTORE POP DUP2 ADD SWAP1 PUSH2 0x7C2 SWAP2 SWAP1 PUSH2 0x1547 JUMP JUMPDEST SWAP1 POP PUSH0 DUP2 SUB PUSH2 0x7D4 JUMPI PUSH0 SWAP2 POP POP PUSH2 0xBFC JUMP JUMPDEST PUSH0 PUSH32 0x0 PUSH20 0xFFFFFFFFFFFFFFFFFFFFFFFFFFFFFFFFFFFFFFFF AND PUSH4 0x3850C7BD PUSH1 0x40 MLOAD DUP2 PUSH4 0xFFFFFFFF AND PUSH1 0xE0 SHL DUP2 MSTORE PUSH1 0x4 ADD PUSH1 0xE0 PUSH1 0x40 MLOAD DUP1 DUP4 SUB DUP2 DUP7 GAS STATICCALL ISZERO DUP1 ISZERO PUSH2 0x83E JUMPI RETURNDATASIZE PUSH0 DUP1 RETURNDATACOPY RETURNDATASIZE PUSH0 REVERT JUMPDEST POP POP POP POP PUSH1 0x40 MLOAD RETURNDATASIZE PUSH1 0x1F NOT PUSH1 0x1F DUP3 ADD AND DUP3 ADD DUP1 PUSH1 0x40 MSTORE POP DUP2 ADD SWAP1 PUSH2 0x862 SWAP2 SWAP1 PUSH2 0x178D JUMP JUMPDEST POP POP POP POP POP POP SWAP1 POP PUSH0 PUSH32 0x0 PUSH20 0xFFFFFFFFFFFFFFFFFFFFFFFFFFFFFFFFFFFFFFFF AND PUSH4 0xDFE1681 PUSH1 0x40 MLOAD DUP2 PUSH4 0xFFFFFFFF AND PUSH1 0xE0 SHL DUP2 MSTORE PUSH1 0x4 ADD PUSH1 0x20 PUSH1 0x40 MLOAD DUP1 DUP4 SUB DUP2 DUP7 GAS STATICCALL ISZERO DUP1 ISZERO PUSH2 0x8D4 JUMPI RETURNDATASIZE PUSH0 DUP1 RETURNDATACOPY RETURNDATASIZE PUSH0 REVERT JUMPDEST POP POP POP POP PUSH1 0x40 MLOAD RETURNDATASIZE PUSH1 0x1F NOT PUSH1 0x1F DUP3 ADD AND DUP3 ADD DUP1 PUSH1 0x40 MSTORE POP DUP2 ADD SWAP1 PUSH2 0x8F8 SWAP2 SWAP1 PUSH2 0x183E JUMP JUMPDEST SWAP1 POP PUSH0 PUSH32 0x0 PUSH20 0xFFFFFFFFFFFFFFFFFFFFFFFFFFFFFFFFFFFFFFFF AND PUSH4 0xD21220A7 PUSH1 0x40 MLOAD DUP2 PUSH4 0xFFFFFFFF AND PUSH1 0xE0 SHL DUP2 MSTORE PUSH1 0x4 ADD PUSH1 0x20 PUSH1 0x40 MLOAD DUP1 DUP4 SUB DUP2 DUP7 GAS STATICCALL ISZERO DUP1 ISZERO PUSH2 0x964 JUMPI RETURNDATASIZE PUSH0 DUP1 RETURNDATACOPY RETURNDATASIZE PUSH0 REVERT JUMPDEST POP POP POP POP PUSH1 0x40 MLOAD RETURNDATASIZE PUSH1 0x1F NOT PUSH1 0x1F DUP3 ADD AND DUP3 ADD DUP1 PUSH1 0x40 MSTORE POP DUP2 ADD SWAP1 PUSH2 0x988 SWAP2 SWAP1 PUSH2 0x183E JUMP JUMPDEST SWAP1 POP PUSH0 PUSH32 0x0 PUSH20 0xFFFFFFFFFFFFFFFFFFFFFFFFFFFFFFFFFFFFFFFF AND DUP4 PUSH20 0xFFFFFFFFFFFFFFFFFFFFFFFFFFFFFFFFFFFFFFFF AND EQ DUP1 ISZERO PUSH2 0xA31 JUMPI POP PUSH32 0x0 PUSH20 0xFFFFFFFFFFFFFFFFFFFFFFFFFFFFFFFFFFFFFFFF AND DUP3 PUSH20 0xFFFFFFFFFFFFFFFFFFFFFFFFFFFFFFFFFFFFFFFF AND EQ JUMPDEST ISZERO PUSH2 0xABF JUMPI PUSH25 0x1000000000000000000000000000000000000000000000000 DUP5 PUSH20 0xFFFFFFFFFFFFFFFFFFFFFFFFFFFFFFFFFFFFFFFF AND DUP6 PUSH20 0xFFFFFFFFFFFFFFFFFFFFFFFFFFFFFFFFFFFFFFFF AND PUSH2 0xA88 SWAP2 SWAP1 PUSH2 0x1896 JUMP JUMPDEST PUSH2 0xA92 SWAP2 SWAP1 PUSH2 0x1904 JUMP JUMPDEST SWAP1 POP PUSH8 0xDE0B6B3A7640000 DUP2 DUP7 PUSH2 0xAA9 SWAP2 SWAP1 PUSH2 0x1896 JUMP JUMPDEST PUSH2 0xAB3 SWAP2 SWAP1 PUSH2 0x1904 JUMP JUMPDEST SWAP6 POP POP POP POP POP POP PUSH2 0xBFC JUMP JUMPDEST PUSH32 0x0 PUSH20 0xFFFFFFFFFFFFFFFFFFFFFFFFFFFFFFFFFFFFFFFF AND DUP4 PUSH20 0xFFFFFFFFFFFFFFFFFFFFFFFFFFFFFFFFFFFFFFFF AND EQ DUP1 ISZERO PUSH2 0xB65 JUMPI POP PUSH32 0x0 PUSH20 0xFFFFFFFFFFFFFFFFFFFFFFFFFFFFFFFFFFFFFFFF AND DUP3 PUSH20 0xFFFFFFFFFFFFFFFFFFFFFFFFFFFFFFFFFFFFFFFF AND EQ JUMPDEST ISZERO PUSH2 0xBF3 JUMPI DUP4 PUSH20 0xFFFFFFFFFFFFFFFFFFFFFFFFFFFFFFFFFFFFFFFF AND DUP5 PUSH20 0xFFFFFFFFFFFFFFFFFFFFFFFFFFFFFFFFFFFFFFFF AND PUSH2 0xBA2 SWAP2 SWAP1 PUSH2 0x1896 JUMP JUMPDEST PUSH25 0x1000000000000000000000000000000000000000000000000 PUSH2 0xBC6 SWAP2 SWAP1 PUSH2 0x1904 JUMP JUMPDEST SWAP1 POP PUSH8 0xDE0B6B3A7640000 DUP2 DUP7 PUSH2 0xBDD SWAP2 SWAP1 PUSH2 0x1896 JUMP JUMPDEST PUSH2 0xBE7 SWAP2 SWAP1 PUSH2 0x1904 JUMP JUMPDEST SWAP6 POP POP POP POP POP POP PUSH2 0xBFC JUMP JUMPDEST PUSH0 SWAP6 POP POP POP POP POP POP JUMPDEST SWAP2 SWAP1 POP JUMP JUMPDEST PUSH1 0x60 PUSH1 0x1 DUP1 SLOAD PUSH2 0xC10 SWAP1 PUSH2 0x1503 JUMP JUMPDEST DUP1 PUSH1 0x1F ADD PUSH1 0x20 DUP1 SWAP2 DIV MUL PUSH1 0x20 ADD PUSH1 0x40 MLOAD SWAP1 DUP2 ADD PUSH1 0x40 MSTORE DUP1 SWAP3 SWAP2 SWAP1 DUP2 DUP2 MSTORE PUSH1 0x20 ADD DUP3 DUP1 SLOAD PUSH2 0xC3C SWAP1 PUSH2 0x1503 JUMP JUMPDEST DUP1 ISZERO PUSH2 0xC87 JUMPI DUP1 PUSH1 0x1F LT PUSH2 0xC5E JUMPI PUSH2 0x100 DUP1 DUP4 SLOAD DIV MUL DUP4 MSTORE SWAP2 PUSH1 0x20 ADD SWAP2 PUSH2 0xC87 JUMP JUMPDEST DUP3 ADD SWAP2 SWAP1 PUSH0 MSTORE PUSH1 0x20 PUSH0 KECCAK256 SWAP1 JUMPDEST DUP2 SLOAD DUP2 MSTORE SWAP1 PUSH1 0x1 ADD SWAP1 PUSH1 0x20 ADD DUP1 DUP4 GT PUSH2 0xC6A JUMPI DUP3 SWAP1 SUB PUSH1 0x1F AND DUP3 ADD SWAP2 JUMPDEST POP POP POP POP POP SWAP1 POP SWAP1 JUMP JUMPDEST PUSH0 DUP1 PUSH2 0xC9B PUSH2 0xF79 JUMP JUMPDEST SWAP1 POP DUP3 PUSH32 0x0 PUSH20 0xFFFFFFFFFFFFFFFFFFFFFFFFFFFFFFFFFFFFFFFF AND PUSH4 0x70A08231 DUP4 PUSH1 0x40 MLOAD DUP3 PUSH4 0xFFFFFFFF AND PUSH1 0xE0 SHL DUP2 MSTORE PUSH1 0x4 ADD PUSH2 0xCF7 SWAP2 SWAP1 PUSH2 0x139A JUMP JUMPDEST PUSH1 0x20 PUSH1 0x40 MLOAD DUP1 DUP4 SUB DUP2 DUP7 GAS STATICCALL ISZERO DUP1 ISZERO PUSH2 0xD12 JUMPI RETURNDATASIZE PUSH0 DUP1 RETURNDATACOPY RETURNDATASIZE PUSH0 REVERT JUMPDEST POP POP POP POP PUSH1 0x40 MLOAD RETURNDATASIZE PUSH1 0x1F NOT PUSH1 0x1F DUP3 ADD AND DUP3 ADD DUP1 PUSH1 0x40 MSTORE POP DUP2 ADD SWAP1 PUSH2 0xD36 SWAP2 SWAP1 PUSH2 0x1547 JUMP JUMPDEST LT ISZERO PUSH2 0xD77 JUMPI PUSH1 0x40 MLOAD PUSH32 0x8C379A000000000000000000000000000000000000000000000000000000000 DUP2 MSTORE PUSH1 0x4 ADD PUSH2 0xD6E SWAP1 PUSH2 0x15BC JUMP JUMPDEST PUSH1 0x40 MLOAD DUP1 SWAP2 SUB SWAP1 REVERT JUMPDEST PUSH32 0x0 PUSH20 0xFFFFFFFFFFFFFFFFFFFFFFFFFFFFFFFFFFFFFFFF AND PUSH4 0x23B872DD DUP3 ADDRESS DUP7 PUSH1 0x40 MLOAD DUP5 PUSH4 0xFFFFFFFF AND PUSH1 0xE0 SHL DUP2 MSTORE PUSH1 0x4 ADD PUSH2 0xDD4 SWAP4 SWAP3 SWAP2 SWAP1 PUSH2 0x15DA JUMP JUMPDEST PUSH1 0x20 PUSH1 0x40 MLOAD DUP1 DUP4 SUB DUP2 PUSH0 DUP8 GAS CALL ISZERO DUP1 ISZERO PUSH2 0xDF0 JUMPI RETURNDATASIZE PUSH0 DUP1 RETURNDATACOPY RETURNDATASIZE PUSH0 REVERT JUMPDEST POP POP POP POP PUSH1 0x40 MLOAD RETURNDATASIZE PUSH1 0x1F NOT PUSH1 0x1F DUP3 ADD AND DUP3 ADD DUP1 PUSH1 0x40 MSTORE POP DUP2 ADD SWAP1 PUSH2 0xE14 SWAP2 SWAP1 PUSH2 0x1639 JUMP JUMPDEST PUSH2 0xE53 JUMPI PUSH1 0x40 MLOAD PUSH32 0x8C379A000000000000000000000000000000000000000000000000000000000 DUP2 MSTORE PUSH1 0x4 ADD PUSH2 0xE4A SWAP1 PUSH2 0x16AE JUMP JUMPDEST PUSH1 0x40 MLOAD DUP1 SWAP2 SUB SWAP1 REVERT JUMPDEST PUSH2 0xE5D DUP5 DUP5 PUSH2 0xF80 JUMP JUMPDEST DUP4 PUSH20 0xFFFFFFFFFFFFFFFFFFFFFFFFFFFFFFFFFFFFFFFF AND DUP2 PUSH20 0xFFFFFFFFFFFFFFFFFFFFFFFFFFFFFFFFFFFFFFFF AND PUSH32 0xDDF252AD1BE2C89B69C2B068FC378DAA952BA7F163C4A11628F55A4DF523B3EF DUP6 PUSH1 0x40 MLOAD PUSH2 0xEBA SWAP2 SWAP1 PUSH2 0x1372 JUMP JUMPDEST PUSH1 0x40 MLOAD DUP1 SWAP2 SUB SWAP1 LOG3 PUSH1 0x1 SWAP2 POP POP SWAP3 SWAP2 POP POP JUMP JUMPDEST PUSH2 0xBB8 DUP2 JUMP JUMPDEST PUSH32 0x0 DUP2 JUMP JUMPDEST PUSH0 PUSH1 0x3 PUSH0 DUP5 PUSH20 0xFFFFFFFFFFFFFFFFFFFFFFFFFFFFFFFFFFFFFFFF AND PUSH20 0xFFFFFFFFFFFFFFFFFFFFFFFFFFFFFFFFFFFFFFFF AND DUP2 MSTORE PUSH1 0x20 ADD SWAP1 DUP2 MSTORE PUSH1 0x20 ADD PUSH0 KECCAK256 PUSH0 DUP4 PUSH20 0xFFFFFFFFFFFFFFFFFFFFFFFFFFFFFFFFFFFFFFFF AND PUSH20 0xFFFFFFFFFFFFFFFFFFFFFFFFFFFFFFFFFFFFFFFF AND DUP2 MSTORE PUSH1 0x20 ADD SWAP1 DUP2 MSTORE PUSH1 0x20 ADD PUSH0 KECCAK256 SLOAD SWAP1 POP SWAP3 SWAP2 POP POP JUMP JUMPDEST PUSH0 CALLER SWAP1 POP SWAP1 JUMP JUMPDEST PUSH32 0x0 PUSH20 0xFFFFFFFFFFFFFFFFFFFFFFFFFFFFFFFFFFFFFFFF AND PUSH4 0x95EA7B3 PUSH32 0x0 DUP4 PUSH1 0x40 MLOAD DUP4 PUSH4 0xFFFFFFFF AND PUSH1 0xE0 SHL DUP2 MSTORE PUSH1 0x4 ADD PUSH2 0xFFB SWAP3 SWAP2 SWAP1 PUSH2 0x1934 JUMP JUMPDEST PUSH1 0x20 PUSH1 0x40 MLOAD DUP1 DUP4 SUB DUP2 PUSH0 DUP8 GAS CALL ISZERO DUP1 ISZERO PUSH2 0x1017 JUMPI RETURNDATASIZE PUSH0 DUP1 RETURNDATACOPY RETURNDATASIZE PUSH0 REVERT JUMPDEST POP POP POP POP PUSH1 0x40 MLOAD RETURNDATASIZE PUSH1 0x1F NOT PUSH1 0x1F DUP3 ADD AND DUP3 ADD DUP1 PUSH1 0x40 MSTORE POP DUP2 ADD SWAP1 PUSH2 0x103B SWAP2 SWAP1 PUSH2 0x1639 JUMP JUMPDEST POP PUSH0 PUSH1 0x40 MLOAD DUP1 PUSH2 0x100 ADD PUSH1 0x40 MSTORE DUP1 PUSH32 0x0 PUSH20 0xFFFFFFFFFFFFFFFFFFFFFFFFFFFFFFFFFFFFFFFF AND DUP2 MSTORE PUSH1 0x20 ADD PUSH32 0x0 PUSH20 0xFFFFFFFFFFFFFFFFFFFFFFFFFFFFFFFFFFFFFFFF AND DUP2 MSTORE PUSH1 0x20 ADD PUSH2 0xBB8 PUSH3 0xFFFFFF AND DUP2 MSTORE PUSH1 0x20 ADD DUP5 PUSH20 0xFFFFFFFFFFFFFFFFFFFFFFFFFFFFFFFFFFFFFFFF AND DUP2 MSTORE PUSH1 0x20 ADD TIMESTAMP DUP2 MSTORE PUSH1 0x20 ADD DUP4 DUP2 MSTORE PUSH1 0x20 ADD PUSH0 DUP2 MSTORE PUSH1 0x20 ADD PUSH0 PUSH20 0xFFFFFFFFFFFFFFFFFFFFFFFFFFFFFFFFFFFFFFFF AND DUP2 MSTORE POP SWAP1 POP PUSH32 0x0 PUSH20 0xFFFFFFFFFFFFFFFFFFFFFFFFFFFFFFFFFFFFFFFF AND PUSH4 0x414BF389 DUP3 PUSH1 0x40 MLOAD DUP3 PUSH4 0xFFFFFFFF AND PUSH1 0xE0 SHL DUP2 MSTORE PUSH1 0x4 ADD PUSH2 0x1171 SWAP2 SWAP1 PUSH2 0x1A37 JUMP JUMPDEST PUSH1 0x20 PUSH1 0x40 MLOAD DUP1 DUP4 SUB DUP2 PUSH0 DUP8 GAS CALL ISZERO DUP1 ISZERO PUSH2 0x118D JUMPI RETURNDATASIZE PUSH0 DUP1 RETURNDATACOPY RETURNDATASIZE PUSH0 REVERT JUMPDEST POP POP POP POP PUSH1 0x40 MLOAD RETURNDATASIZE PUSH1 0x1F NOT PUSH1 0x1F DUP3 ADD AND DUP3 ADD DUP1 PUSH1 0x40 MSTORE POP DUP2 ADD SWAP1 PUSH2 0x11B1 SWAP2 SWAP1 PUSH2 0x1547 JUMP JUMPDEST POP POP POP POP JUMP JUMPDEST PUSH0 DUP2 MLOAD SWAP1 POP SWAP2 SWAP1 POP JUMP JUMPDEST PUSH0 DUP3 DUP3 MSTORE PUSH1 0x20 DUP3 ADD SWAP1 POP SWAP3 SWAP2 POP POP JUMP JUMPDEST PUSH0 JUMPDEST DUP4 DUP2 LT ISZERO PUSH2 0x11EE JUMPI DUP1 DUP3 ADD MLOAD DUP2 DUP5 ADD MSTORE PUSH1 0x20 DUP2 ADD SWAP1 POP PUSH2 0x11D3 JUMP JUMPDEST PUSH0 DUP5 DUP5 ADD MSTORE POP POP POP POP JUMP JUMPDEST PUSH0 PUSH1 0x1F NOT PUSH1 0x1F DUP4 ADD AND SWAP1 POP SWAP2 SWAP1 POP JUMP JUMPDEST PUSH0 PUSH2 0x1213 DUP3 PUSH2 0x11B7 JUMP JUMPDEST PUSH2 0x121D DUP2 DUP6 PUSH2 0x11C1 JUMP JUMPDEST SWAP4 POP PUSH2 0x122D DUP2 DUP6 PUSH1 0x20 DUP7 ADD PUSH2 0x11D1 JUMP JUMPDEST PUSH2 0x1236 DUP2 PUSH2 0x11F9 JUMP JUMPDEST DUP5 ADD SWAP2 POP POP SWAP3 SWAP2 POP POP JUMP JUMPDEST PUSH0 PUSH1 0x20 DUP3 ADD SWAP1 POP DUP2 DUP2 SUB PUSH0 DUP4 ADD MSTORE PUSH2 0x1259 DUP2 DUP5 PUSH2 0x1209 JUMP JUMPDEST SWAP1 POP SWAP3 SWAP2 POP POP JUMP JUMPDEST PUSH0 DUP1 REVERT JUMPDEST PUSH0 PUSH20 0xFFFFFFFFFFFFFFFFFFFFFFFFFFFFFFFFFFFFFFFF DUP3 AND SWAP1 POP SWAP2 SWAP1 POP JUMP JUMPDEST PUSH0 PUSH2 0x128E DUP3 PUSH2 0x1265 JUMP JUMPDEST SWAP1 POP SWAP2 SWAP1 POP JUMP JUMPDEST PUSH2 0x129E DUP2 PUSH2 0x1284 JUMP JUMPDEST DUP2 EQ PUSH2 0x12A8 JUMPI PUSH0 DUP1 REVERT JUMPDEST POP JUMP JUMPDEST PUSH0 DUP2 CALLDATALOAD SWAP1 POP PUSH2 0x12B9 DUP2 PUSH2 0x1295 JUMP JUMPDEST SWAP3 SWAP2 POP POP JUMP JUMPDEST PUSH0 DUP2 SWAP1 POP SWAP2 SWAP1 POP JUMP JUMPDEST PUSH2 0x12D1 DUP2 PUSH2 0x12BF JUMP JUMPDEST DUP2 EQ PUSH2 0x12DB JUMPI PUSH0 DUP1 REVERT JUMPDEST POP JUMP JUMPDEST PUSH0 DUP2 CALLDATALOAD SWAP1 POP PUSH2 0x12EC DUP2 PUSH2 0x12C8 JUMP JUMPDEST SWAP3 SWAP2 POP POP JUMP JUMPDEST PUSH0 DUP1 PUSH1 0x40 DUP4 DUP6 SUB SLT ISZERO PUSH2 0x1308 JUMPI PUSH2 0x1307 PUSH2 0x1261 JUMP JUMPDEST JUMPDEST PUSH0 PUSH2 0x1315 DUP6 DUP3 DUP7 ADD PUSH2 0x12AB JUMP JUMPDEST SWAP3 POP POP PUSH1 0x20 PUSH2 0x1326 DUP6 DUP3 DUP7 ADD PUSH2 0x12DE JUMP JUMPDEST SWAP2 POP POP SWAP3 POP SWAP3 SWAP1 POP JUMP JUMPDEST PUSH0 DUP2 ISZERO ISZERO SWAP1 POP SWAP2 SWAP1 POP JUMP JUMPDEST PUSH2 0x1344 DUP2 PUSH2 0x1330 JUMP JUMPDEST DUP3 MSTORE POP POP JUMP JUMPDEST PUSH0 PUSH1 0x20 DUP3 ADD SWAP1 POP PUSH2 0x135D PUSH0 DUP4 ADD DUP5 PUSH2 0x133B JUMP JUMPDEST SWAP3 SWAP2 POP POP JUMP JUMPDEST PUSH2 0x136C DUP2 PUSH2 0x12BF JUMP JUMPDEST DUP3 MSTORE POP POP JUMP JUMPDEST PUSH0 PUSH1 0x20 DUP3 ADD SWAP1 POP PUSH2 0x1385 PUSH0 DUP4 ADD DUP5 PUSH2 0x1363 JUMP JUMPDEST SWAP3 SWAP2 POP POP JUMP JUMPDEST PUSH2 0x1394 DUP2 PUSH2 0x1284 JUMP JUMPDEST DUP3 MSTORE POP POP JUMP JUMPDEST PUSH0 PUSH1 0x20 DUP3 ADD SWAP1 POP PUSH2 0x13AD PUSH0 DUP4 ADD DUP5 PUSH2 0x138B JUMP JUMPDEST SWAP3 SWAP2 POP POP JUMP JUMPDEST PUSH0 DUP1 PUSH0 PUSH1 0x60 DUP5 DUP7 SUB SLT ISZERO PUSH2 0x13CA JUMPI PUSH2 0x13C9 PUSH2 0x1261 JUMP JUMPDEST JUMPDEST PUSH0 PUSH2 0x13D7 DUP7 DUP3 DUP8 ADD PUSH2 0x12AB JUMP JUMPDEST SWAP4 POP POP PUSH1 0x20 PUSH2 0x13E8 DUP7 DUP3 DUP8 ADD PUSH2 0x12AB JUMP JUMPDEST SWAP3 POP POP PUSH1 0x40 PUSH2 0x13F9 DUP7 DUP3 DUP8 ADD PUSH2 0x12DE JUMP JUMPDEST SWAP2 POP POP SWAP3 POP SWAP3 POP SWAP3 JUMP JUMPDEST PUSH0 PUSH1 0xFF DUP3 AND SWAP1 POP SWAP2 SWAP1 POP JUMP JUMPDEST PUSH2 0x1418 DUP2 PUSH2 0x1403 JUMP JUMPDEST DUP3 MSTORE POP POP JUMP JUMPDEST PUSH0 PUSH1 0x20 DUP3 ADD SWAP1 POP PUSH2 0x1431 PUSH0 DUP4 ADD DUP5 PUSH2 0x140F JUMP JUMPDEST SWAP3 SWAP2 POP POP JUMP JUMPDEST PUSH0 PUSH1 0x20 DUP3 DUP5 SUB SLT ISZERO PUSH2 0x144C JUMPI PUSH2 0x144B PUSH2 0x1261 JUMP JUMPDEST JUMPDEST PUSH0 PUSH2 0x1459 DUP5 DUP3 DUP6 ADD PUSH2 0x12AB JUMP JUMPDEST SWAP2 POP POP SWAP3 SWAP2 POP POP JUMP JUMPDEST PUSH0 PUSH3 0xFFFFFF DUP3 AND SWAP1 POP SWAP2 SWAP1 POP JUMP JUMPDEST PUSH2 0x1479 DUP2 PUSH2 0x1462 JUMP JUMPDEST DUP3 MSTORE POP POP JUMP JUMPDEST PUSH0 PUSH1 0x20 DUP3 ADD SWAP1 POP PUSH2 0x1492 PUSH0 DUP4 ADD DUP5 PUSH2 0x1470 JUMP JUMPDEST SWAP3 SWAP2 POP POP JUMP JUMPDEST PUSH0 DUP1 PUSH1 0x40 DUP4 DUP6 SUB SLT ISZERO PUSH2 0x14AE JUMPI PUSH2 0x14AD PUSH2 0x1261 JUMP JUMPDEST JUMPDEST PUSH0 PUSH2 0x14BB DUP6 DUP3 DUP7 ADD PUSH2 0x12AB JUMP JUMPDEST SWAP3 POP POP PUSH1 0x20 PUSH2 0x14CC DUP6 DUP3 DUP7 ADD PUSH2 0x12AB JUMP JUMPDEST SWAP2 POP POP SWAP3 POP SWAP3 SWAP1 POP JUMP JUMPDEST PUSH32 0x4E487B7100000000000000000000000000000000000000000000000000000000 PUSH0 MSTORE PUSH1 0x22 PUSH1 0x4 MSTORE PUSH1 0x24 PUSH0 REVERT JUMPDEST PUSH0 PUSH1 0x2 DUP3 DIV SWAP1 POP PUSH1 0x1 DUP3 AND DUP1 PUSH2 0x151A JUMPI PUSH1 0x7F DUP3 AND SWAP2 POP JUMPDEST PUSH1 0x20 DUP3 LT DUP2 SUB PUSH2 0x152D JUMPI PUSH2 0x152C PUSH2 0x14D6 JUMP JUMPDEST JUMPDEST POP SWAP2 SWAP1 POP JUMP JUMPDEST PUSH0 DUP2 MLOAD SWAP1 POP PUSH2 0x1541 DUP2 PUSH2 0x12C8 JUMP JUMPDEST SWAP3 SWAP2 POP POP JUMP JUMPDEST PUSH0 PUSH1 0x20 DUP3 DUP5 SUB SLT ISZERO PUSH2 0x155C JUMPI PUSH2 0x155B PUSH2 0x1261 JUMP JUMPDEST JUMPDEST PUSH0 PUSH2 0x1569 DUP5 DUP3 DUP6 ADD PUSH2 0x1533 JUMP JUMPDEST SWAP2 POP POP SWAP3 SWAP2 POP POP JUMP JUMPDEST PUSH32 0x496E73756666696369656E742062616C616E6365000000000000000000000000 PUSH0 DUP3 ADD MSTORE POP JUMP JUMPDEST PUSH0 PUSH2 0x15A6 PUSH1 0x14 DUP4 PUSH2 0x11C1 JUMP JUMPDEST SWAP2 POP PUSH2 0x15B1 DUP3 PUSH2 0x1572 JUMP JUMPDEST PUSH1 0x20 DUP3 ADD SWAP1 POP SWAP2 SWAP1 POP JUMP JUMPDEST PUSH0 PUSH1 0x20 DUP3 ADD SWAP1 POP DUP2 DUP2 SUB PUSH0 DUP4 ADD MSTORE PUSH2 0x15D3 DUP2 PUSH2 0x159A JUMP JUMPDEST SWAP1 POP SWAP2 SWAP1 POP JUMP JUMPDEST PUSH0 PUSH1 0x60 DUP3 ADD SWAP1 POP PUSH2 0x15ED PUSH0 DUP4 ADD DUP7 PUSH2 0x138B JUMP JUMPDEST PUSH2 0x15FA PUSH1 0x20 DUP4 ADD DUP6 PUSH2 0x138B JUMP JUMPDEST PUSH2 0x1607 PUSH1 0x40 DUP4 ADD DUP5 PUSH2 0x1363 JUMP JUMPDEST SWAP5 SWAP4 POP POP POP POP JUMP JUMPDEST PUSH2 0x1618 DUP2 PUSH2 0x1330 JUMP JUMPDEST DUP2 EQ PUSH2 0x1622 JUMPI PUSH0 DUP1 REVERT JUMPDEST POP JUMP JUMPDEST PUSH0 DUP2 MLOAD SWAP1 POP PUSH2 0x1633 DUP2 PUSH2 0x160F JUMP JUMPDEST SWAP3 SWAP2 POP POP JUMP JUMPDEST PUSH0 PUSH1 0x20 DUP3 DUP5 SUB SLT ISZERO PUSH2 0x164E JUMPI PUSH2 0x164D PUSH2 0x1261 JUMP JUMPDEST JUMPDEST PUSH0 PUSH2 0x165B DUP5 DUP3 DUP6 ADD PUSH2 0x1625 JUMP JUMPDEST SWAP2 POP POP SWAP3 SWAP2 POP POP JUMP JUMPDEST PUSH32 0x7472616E73666572206661696C65640000000000000000000000000000000000 PUSH0 DUP3 ADD MSTORE POP JUMP JUMPDEST PUSH0 PUSH2 0x1698 PUSH1 0xF DUP4 PUSH2 0x11C1 JUMP JUMPDEST SWAP2 POP PUSH2 0x16A3 DUP3 PUSH2 0x1664 JUMP JUMPDEST PUSH1 0x20 DUP3 ADD SWAP1 POP SWAP2 SWAP1 POP JUMP JUMPDEST PUSH0 PUSH1 0x20 DUP3 ADD SWAP1 POP DUP2 DUP2 SUB PUSH0 DUP4 ADD MSTORE PUSH2 0x16C5 DUP2 PUSH2 0x168C JUMP JUMPDEST SWAP1 POP SWAP2 SWAP1 POP JUMP JUMPDEST PUSH2 0x16D5 DUP2 PUSH2 0x1265 JUMP JUMPDEST DUP2 EQ PUSH2 0x16DF JUMPI PUSH0 DUP1 REVERT JUMPDEST POP JUMP JUMPDEST PUSH0 DUP2 MLOAD SWAP1 POP PUSH2 0x16F0 DUP2 PUSH2 0x16CC JUMP JUMPDEST SWAP3 SWAP2 POP POP JUMP JUMPDEST PUSH0 DUP2 PUSH1 0x2 SIGNEXTEND SWAP1 POP SWAP2 SWAP1 POP JUMP JUMPDEST PUSH2 0x170B DUP2 PUSH2 0x16F6 JUMP JUMPDEST DUP2 EQ PUSH2 0x1715 JUMPI PUSH0 DUP1 REVERT JUMPDEST POP JUMP JUMPDEST PUSH0 DUP2 MLOAD SWAP1 POP PUSH2 0x1726 DUP2 PUSH2 0x1702 JUMP JUMPDEST SWAP3 SWAP2 POP POP JUMP JUMPDEST PUSH0 PUSH2 0xFFFF DUP3 AND SWAP1 POP SWAP2 SWAP1 POP JUMP JUMPDEST PUSH2 0x1742 DUP2 PUSH2 0x172C JUMP JUMPDEST DUP2 EQ PUSH2 0x174C JUMPI PUSH0 DUP1 REVERT JUMPDEST POP JUMP JUMPDEST PUSH0 DUP2 MLOAD SWAP1 POP PUSH2 0x175D DUP2 PUSH2 0x1739 JUMP JUMPDEST SWAP3 SWAP2 POP POP JUMP JUMPDEST PUSH2 0x176C DUP2 PUSH2 0x1403 JUMP JUMPDEST DUP2 EQ PUSH2 0x1776 JUMPI PUSH0 DUP1 REVERT JUMPDEST POP JUMP JUMPDEST PUSH0 DUP2 MLOAD SWAP1 POP PUSH2 0x1787 DUP2 PUSH2 0x1763 JUMP JUMPDEST SWAP3 SWAP2 POP POP JUMP JUMPDEST PUSH0 DUP1 PUSH0 DUP1 PUSH0 DUP1 PUSH0 PUSH1 0xE0 DUP9 DUP11 SUB SLT ISZERO PUSH2 0x17A8 JUMPI PUSH2 0x17A7 PUSH2 0x1261 JUMP JUMPDEST JUMPDEST PUSH0 PUSH2 0x17B5 DUP11 DUP3 DUP12 ADD PUSH2 0x16E2 JUMP JUMPDEST SWAP8 POP POP PUSH1 0x20 PUSH2 0x17C6 DUP11 DUP3 DUP12 ADD PUSH2 0x1718 JUMP JUMPDEST SWAP7 POP POP PUSH1 0x40 PUSH2 0x17D7 DUP11 DUP3 DUP12 ADD PUSH2 0x174F JUMP JUMPDEST SWAP6 POP POP PUSH1 0x60 PUSH2 0x17E8 DUP11 DUP3 DUP12 ADD PUSH2 0x174F JUMP JUMPDEST SWAP5 POP POP PUSH1 0x80 PUSH2 0x17F9 DUP11 DUP3 DUP12 ADD PUSH2 0x174F JUMP JUMPDEST SWAP4 POP POP PUSH1 0xA0 PUSH2 0x180A DUP11 DUP3 DUP12 ADD PUSH2 0x1779 JUMP JUMPDEST SWAP3 POP POP PUSH1 0xC0 PUSH2 0x181B DUP11 DUP3 DUP12 ADD PUSH2 0x1625 JUMP JUMPDEST SWAP2 POP POP SWAP3 SWAP6 SWAP9 SWAP2 SWAP5 SWAP8 POP SWAP3 SWAP6 POP JUMP JUMPDEST PUSH0 DUP2 MLOAD SWAP1 POP PUSH2 0x1838 DUP2 PUSH2 0x1295 JUMP JUMPDEST SWAP3 SWAP2 POP POP JUMP JUMPDEST PUSH0 PUSH1 0x20 DUP3 DUP5 SUB SLT ISZERO PUSH2 0x1853 JUMPI PUSH2 0x1852 PUSH2 0x1261 JUMP JUMPDEST JUMPDEST PUSH0 PUSH2 0x1860 DUP5 DUP3 DUP6 ADD PUSH2 0x182A JUMP JUMPDEST SWAP2 POP POP SWAP3 SWAP2 POP POP JUMP JUMPDEST PUSH32 0x4E487B7100000000000000000000000000000000000000000000000000000000 PUSH0 MSTORE PUSH1 0x11 PUSH1 0x4 MSTORE PUSH1 0x24 PUSH0 REVERT JUMPDEST PUSH0 PUSH2 0x18A0 DUP3 PUSH2 0x12BF JUMP JUMPDEST SWAP2 POP PUSH2 0x18AB DUP4 PUSH2 0x12BF JUMP JUMPDEST SWAP3 POP DUP3 DUP3 MUL PUSH2 0x18B9 DUP2 PUSH2 0x12BF JUMP JUMPDEST SWAP2 POP DUP3 DUP3 DIV DUP5 EQ DUP4 ISZERO OR PUSH2 0x18D0 JUMPI PUSH2 0x18CF PUSH2 0x1869 JUMP JUMPDEST JUMPDEST POP SWAP3 SWAP2 POP POP JUMP JUMPDEST PUSH32 0x4E487B7100000000000000000000000000000000000000000000000000000000 PUSH0 MSTORE PUSH1 0x12 PUSH1 0x4 MSTORE PUSH1 0x24 PUSH0 REVERT JUMPDEST PUSH0 PUSH2 0x190E DUP3 PUSH2 0x12BF JUMP JUMPDEST SWAP2 POP PUSH2 0x1919 DUP4 PUSH2 0x12BF JUMP JUMPDEST SWAP3 POP DUP3 PUSH2 0x1929 JUMPI PUSH2 0x1928 PUSH2 0x18D7 JUMP JUMPDEST JUMPDEST DUP3 DUP3 DIV SWAP1 POP SWAP3 SWAP2 POP POP JUMP JUMPDEST PUSH0 PUSH1 0x40 DUP3 ADD SWAP1 POP PUSH2 0x1947 PUSH0 DUP4 ADD DUP6 PUSH2 0x138B JUMP JUMPDEST PUSH2 0x1954 PUSH1 0x20 DUP4 ADD DUP5 PUSH2 0x1363 JUMP JUMPDEST SWAP4 SWAP3 POP POP POP JUMP JUMPDEST PUSH2 0x1964 DUP2 PUSH2 0x1284 JUMP JUMPDEST DUP3 MSTORE POP POP JUMP JUMPDEST PUSH2 0x1973 DUP2 PUSH2 0x1462 JUMP JUMPDEST DUP3 MSTORE POP POP JUMP JUMPDEST PUSH2 0x1982 DUP2 PUSH2 0x12BF JUMP JUMPDEST DUP3 MSTORE POP POP JUMP JUMPDEST PUSH2 0x1991 DUP2 PUSH2 0x1265 JUMP JUMPDEST DUP3 MSTORE POP POP JUMP JUMPDEST PUSH2 0x100 DUP3 ADD PUSH0 DUP3 ADD MLOAD PUSH2 0x19AC PUSH0 DUP6 ADD DUP3 PUSH2 0x195B JUMP JUMPDEST POP PUSH1 0x20 DUP3 ADD MLOAD PUSH2 0x19BF PUSH1 0x20 DUP6 ADD DUP3 PUSH2 0x195B JUMP JUMPDEST POP PUSH1 0x40 DUP3 ADD MLOAD PUSH2 0x19D2 PUSH1 0x40 DUP6 ADD DUP3 PUSH2 0x196A JUMP JUMPDEST POP PUSH1 0x60 DUP3 ADD MLOAD PUSH2 0x19E5 PUSH1 0x60 DUP6 ADD DUP3 PUSH2 0x195B JUMP JUMPDEST POP PUSH1 0x80 DUP3 ADD MLOAD PUSH2 0x19F8 PUSH1 0x80 DUP6 ADD DUP3 PUSH2 0x1979 JUMP JUMPDEST POP PUSH1 0xA0 DUP3 ADD MLOAD PUSH2 0x1A0B PUSH1 0xA0 DUP6 ADD DUP3 PUSH2 0x1979 JUMP JUMPDEST POP PUSH1 0xC0 DUP3 ADD MLOAD PUSH2 0x1A1E PUSH1 0xC0 DUP6 ADD DUP3 PUSH2 0x1979 JUMP JUMPDEST POP PUSH1 0xE0 DUP3 ADD MLOAD PUSH2 0x1A31 PUSH1 0xE0 DUP6 ADD DUP3 PUSH2 0x1988 JUMP JUMPDEST POP POP POP POP JUMP JUMPDEST PUSH0 PUSH2 0x100 DUP3 ADD SWAP1 POP PUSH2 0x1A4B PUSH0 DUP4 ADD DUP5 PUSH2 0x1997 JUMP JUMPDEST SWAP3 SWAP2 POP POP JUMP INVALID LOG2 PUSH5 0x6970667358 0x22 SLT KECCAK256 AND OR LOG0 CHAINID PUSH6 0x902E419FCE99 SWAP9 OR 0xB3 0xE5 0xCB 0xA6 0xF DUP13 0x1E SLT DUP15 0xED 0xC4 0xC0 PUSH17 0xA775A6E66E1864736F6C63430008180033 "
				},
				"gasEstimates": {
					"creation": {
						"codeDepositCost": "1358200",
						"executionCost": "infinite",
						"totalCost": "infinite"
					},
					"external": {
						"FEE()": "375",
						"TOKEN0()": "infinite",
						"TOKEN1()": "infinite",
						"UNISWAP_POOL()": "infinite",
						"UNISWAP_ROUTER()": "infinite",
						"allowance(address,address)": "infinite",
						"approve(address,uint256)": "infinite",
						"balanceOf(address)": "infinite",
						"decimals()": "2540",
						"name()": "infinite",
						"symbol()": "infinite",
						"totalSupply()": "392",
						"transfer(address,uint256)": "infinite",
						"transferFrom(address,address,uint256)": "infinite"
					},
					"internal": {
						"_swapExactOutput(address,uint256)": "infinite"
					}
				},
				"methodIdentifiers": {
					"FEE()": "c57981b5",
					"TOKEN0()": "443ec74d",
					"TOKEN1()": "5ee04d78",
					"UNISWAP_POOL()": "1d610577",
					"UNISWAP_ROUTER()": "d8264920",
					"allowance(address,address)": "dd62ed3e",
					"approve(address,uint256)": "095ea7b3",
					"balanceOf(address)": "70a08231",
					"decimals()": "313ce567",
					"name()": "06fdde03",
					"symbol()": "95d89b41",
					"totalSupply()": "18160ddd",
					"transfer(address,uint256)": "a9059cbb",
					"transferFrom(address,address,uint256)": "23b872dd"
				}
			},
			"storageLayout": {
				"storage": [
					{
						"astId": 200,
						"contract": "hardhat/contracts/VersatilToken.sol:VersatilToken",
						"label": "_name",
						"offset": 0,
						"slot": "0",
						"type": "t_string_storage"
					},
					{
						"astId": 202,
						"contract": "hardhat/contracts/VersatilToken.sol:VersatilToken",
						"label": "_symbol",
						"offset": 0,
						"slot": "1",
						"type": "t_string_storage"
					},
					{
						"astId": 205,
						"contract": "hardhat/contracts/VersatilToken.sol:VersatilToken",
						"label": "_decimals",
						"offset": 0,
						"slot": "2",
						"type": "t_uint8"
					},
					{
						"astId": 222,
						"contract": "hardhat/contracts/VersatilToken.sol:VersatilToken",
						"label": "_allowances",
						"offset": 0,
						"slot": "3",
						"type": "t_mapping(t_address,t_mapping(t_address,t_uint256))"
					}
				],
				"types": {
					"t_address": {
						"encoding": "inplace",
						"label": "address",
						"numberOfBytes": "20"
					},
					"t_mapping(t_address,t_mapping(t_address,t_uint256))": {
						"encoding": "mapping",
						"key": "t_address",
						"label": "mapping(address => mapping(address => uint256))",
						"numberOfBytes": "32",
						"value": "t_mapping(t_address,t_uint256)"
					},
					"t_mapping(t_address,t_uint256)": {
						"encoding": "mapping",
						"key": "t_address",
						"label": "mapping(address => uint256)",
						"numberOfBytes": "32",
						"value": "t_uint256"
					},
					"t_string_storage": {
						"encoding": "bytes",
						"label": "string",
						"numberOfBytes": "32"
					},
					"t_uint256": {
						"encoding": "inplace",
						"label": "uint256",
						"numberOfBytes": "32"
					},
					"t_uint8": {
						"encoding": "inplace",
						"label": "uint8",
						"numberOfBytes": "1"
					}
				}
			},
			"userdoc": {
				"kind": "user",
				"methods": {},
				"version": 1
			}
		}
	}
}